{
  "_format": "hh3-artifact-1",
  "contractName": "TaskEscrow",
  "sourceName": "contracts/TaskEscrow.sol",
  "abi": [
    {
      "inputs": [
        {
          "internalType": "address",
          "name": "_usdc",
          "type": "address"
        },
        {
          "internalType": "address",
          "name": "_feeRecipient",
          "type": "address"
        }
      ],
      "stateMutability": "nonpayable",
      "type": "constructor"
    },
    {
      "inputs": [],
      "name": "AutoApproveNotReady",
      "type": "error"
    },
    {
      "inputs": [],
      "name": "BidAlreadyPlaced",
      "type": "error"
    },
    {
      "inputs": [],
      "name": "BidExceedsBounty",
      "type": "error"
    },
    {
      "inputs": [],
      "name": "BidNotFound",
      "type": "error"
    },
    {
      "inputs": [],
      "name": "CannotCancelWithAcceptedBids",
      "type": "error"
    },
    {
      "inputs": [],
      "name": "CannotRefundYet",
      "type": "error"
    },
    {
      "inputs": [],
      "name": "DisputeWindowExpired",
      "type": "error"
    },
    {
      "inputs": [],
      "name": "EnforcedPause",
      "type": "error"
    },
    {
      "inputs": [],
      "name": "ExpectedPause",
      "type": "error"
    },
    {
      "inputs": [],
      "name": "FeeTooHigh",
      "type": "error"
    },
    {
      "inputs": [],
      "name": "InvalidBidPrice",
      "type": "error"
    },
    {
      "inputs": [],
      "name": "InvalidBounty",
      "type": "error"
    },
    {
      "inputs": [],
      "name": "InvalidFeeRecipient",
      "type": "error"
    },
    {
      "inputs": [],
      "name": "InvalidSplit",
      "type": "error"
    },
    {
      "inputs": [],
      "name": "NotParentTaskWorker",
      "type": "error"
    },
    {
      "inputs": [],
      "name": "OnlyPosterCanPerform",
      "type": "error"
    },
    {
      "inputs": [],
      "name": "OnlyWorkerCanPerform",
      "type": "error"
    },
    {
      "inputs": [
        {
          "internalType": "address",
          "name": "owner",
          "type": "address"
        }
      ],
      "name": "OwnableInvalidOwner",
      "type": "error"
    },
    {
      "inputs": [
        {
          "internalType": "address",
          "name": "account",
          "type": "address"
        }
      ],
      "name": "OwnableUnauthorizedAccount",
      "type": "error"
    },
    {
      "inputs": [],
      "name": "PosterCannotBidOwnTask",
      "type": "error"
    },
    {
      "inputs": [],
      "name": "ReentrancyGuardReentrantCall",
      "type": "error"
    },
    {
      "inputs": [
        {
          "internalType": "address",
          "name": "token",
          "type": "address"
        }
      ],
      "name": "SafeERC20FailedOperation",
      "type": "error"
    },
    {
      "inputs": [],
      "name": "TaskAlreadyExists",
      "type": "error"
    },
    {
      "inputs": [],
      "name": "TaskDoesNotExist",
      "type": "error"
    },
    {
      "inputs": [],
      "name": "TaskNotClaimed",
      "type": "error"
    },
    {
      "inputs": [],
      "name": "TaskNotDisputed",
      "type": "error"
    },
    {
      "inputs": [],
      "name": "TaskNotOpen",
      "type": "error"
    },
    {
      "inputs": [],
      "name": "TaskNotSubmitted",
      "type": "error"
    },
    {
      "anonymous": false,
      "inputs": [
        {
          "indexed": true,
          "internalType": "address",
          "name": "agent",
          "type": "address"
        }
      ],
      "name": "AgentRegistered",
      "type": "event"
    },
    {
      "anonymous": false,
      "inputs": [
        {
          "indexed": true,
          "internalType": "bytes32",
          "name": "taskId",
          "type": "bytes32"
        },
        {
          "indexed": true,
          "internalType": "address",
          "name": "bidder",
          "type": "address"
        },
        {
          "indexed": false,
          "internalType": "uint256",
          "name": "price",
          "type": "uint256"
        }
      ],
      "name": "BidAccepted",
      "type": "event"
    },
    {
      "anonymous": false,
      "inputs": [
        {
          "indexed": true,
          "internalType": "bytes32",
          "name": "taskId",
          "type": "bytes32"
        },
        {
          "indexed": false,
          "internalType": "bytes32",
          "name": "deliverableHash",
          "type": "bytes32"
        }
      ],
      "name": "DeliverableSubmitted",
      "type": "event"
    },
    {
      "anonymous": false,
      "inputs": [
        {
          "indexed": true,
          "internalType": "bytes32",
          "name": "taskId",
          "type": "bytes32"
        },
        {
          "indexed": false,
          "internalType": "uint256",
          "name": "posterShare",
          "type": "uint256"
        },
        {
          "indexed": false,
          "internalType": "uint256",
          "name": "workerShare",
          "type": "uint256"
        }
      ],
      "name": "DisputeResolved",
      "type": "event"
    },
    {
      "anonymous": false,
      "inputs": [
        {
          "indexed": false,
          "internalType": "address",
          "name": "oldRecipient",
          "type": "address"
        },
        {
          "indexed": false,
          "internalType": "address",
          "name": "newRecipient",
          "type": "address"
        }
      ],
      "name": "FeeRecipientUpdated",
      "type": "event"
    },
    {
      "anonymous": false,
      "inputs": [
        {
          "indexed": false,
          "internalType": "uint256",
          "name": "oldFeeBps",
          "type": "uint256"
        },
        {
          "indexed": false,
          "internalType": "uint256",
          "name": "newFeeBps",
          "type": "uint256"
        }
      ],
      "name": "FeeUpdated",
      "type": "event"
    },
    {
      "anonymous": false,
      "inputs": [
        {
          "indexed": true,
          "internalType": "address",
          "name": "previousOwner",
          "type": "address"
        },
        {
          "indexed": true,
          "internalType": "address",
          "name": "newOwner",
          "type": "address"
        }
      ],
      "name": "OwnershipTransferred",
      "type": "event"
    },
    {
      "anonymous": false,
      "inputs": [
        {
          "indexed": false,
          "internalType": "address",
          "name": "account",
          "type": "address"
        }
      ],
      "name": "Paused",
      "type": "event"
    },
    {
      "anonymous": false,
      "inputs": [
        {
          "indexed": true,
          "internalType": "bytes32",
          "name": "parentTaskId",
          "type": "bytes32"
        },
        {
          "indexed": true,
          "internalType": "bytes32",
          "name": "subtaskId",
          "type": "bytes32"
        },
        {
          "indexed": true,
          "internalType": "address",
          "name": "creator",
          "type": "address"
        },
        {
          "indexed": false,
          "internalType": "uint256",
          "name": "bounty",
          "type": "uint256"
        }
      ],
      "name": "SubtaskCreated",
      "type": "event"
    },
    {
      "anonymous": false,
      "inputs": [
        {
          "indexed": true,
          "internalType": "bytes32",
          "name": "taskId",
          "type": "bytes32"
        },
        {
          "indexed": true,
          "internalType": "address",
          "name": "worker",
          "type": "address"
        },
        {
          "indexed": false,
          "internalType": "uint256",
          "name": "workerPayout",
          "type": "uint256"
        },
        {
          "indexed": false,
          "internalType": "uint256",
          "name": "platformFee",
          "type": "uint256"
        }
      ],
      "name": "TaskApproved",
      "type": "event"
    },
    {
      "anonymous": false,
      "inputs": [
        {
          "indexed": true,
          "internalType": "bytes32",
          "name": "taskId",
          "type": "bytes32"
        },
        {
          "indexed": true,
          "internalType": "address",
          "name": "bidder",
          "type": "address"
        },
        {
          "indexed": false,
          "internalType": "uint256",
          "name": "price",
          "type": "uint256"
        },
        {
          "indexed": false,
          "internalType": "uint256",
          "name": "estimatedTime",
          "type": "uint256"
        }
      ],
      "name": "TaskBid",
      "type": "event"
    },
    {
      "anonymous": false,
      "inputs": [
        {
          "indexed": true,
          "internalType": "bytes32",
          "name": "taskId",
          "type": "bytes32"
        },
        {
          "indexed": true,
          "internalType": "address",
          "name": "poster",
          "type": "address"
        }
      ],
      "name": "TaskCancelled",
      "type": "event"
    },
    {
      "anonymous": false,
      "inputs": [
        {
          "indexed": true,
          "internalType": "bytes32",
          "name": "taskId",
          "type": "bytes32"
        },
        {
          "indexed": true,
          "internalType": "address",
          "name": "worker",
          "type": "address"
        }
      ],
      "name": "TaskClaimed",
      "type": "event"
    },
    {
      "anonymous": false,
      "inputs": [
        {
          "indexed": true,
          "internalType": "bytes32",
          "name": "taskId",
          "type": "bytes32"
        },
        {
          "indexed": true,
          "internalType": "address",
          "name": "poster",
          "type": "address"
        },
        {
          "indexed": false,
          "internalType": "uint256",
          "name": "bounty",
          "type": "uint256"
        },
        {
          "indexed": false,
          "internalType": "bytes32",
          "name": "parentTaskId",
          "type": "bytes32"
        }
      ],
      "name": "TaskCreated",
      "type": "event"
    },
    {
      "anonymous": false,
      "inputs": [
        {
          "indexed": true,
          "internalType": "bytes32",
          "name": "taskId",
          "type": "bytes32"
        }
      ],
      "name": "TaskDisputed",
      "type": "event"
    },
    {
      "anonymous": false,
      "inputs": [
        {
          "indexed": true,
          "internalType": "bytes32",
          "name": "taskId",
          "type": "bytes32"
        },
        {
          "indexed": true,
          "internalType": "address",
          "name": "poster",
          "type": "address"
        },
        {
          "indexed": false,
          "internalType": "uint256",
          "name": "amount",
          "type": "uint256"
        }
      ],
      "name": "TaskRefunded",
      "type": "event"
    },
    {
      "anonymous": false,
      "inputs": [
        {
          "indexed": false,
          "internalType": "address",
          "name": "account",
          "type": "address"
        }
      ],
      "name": "Unpaused",
      "type": "event"
    },
    {
      "inputs": [],
      "name": "BPS_DENOMINATOR",
      "outputs": [
        {
          "internalType": "uint256",
          "name": "",
          "type": "uint256"
        }
      ],
      "stateMutability": "view",
      "type": "function"
    },
    {
      "inputs": [],
      "name": "MAX_FEE_BPS",
      "outputs": [
        {
          "internalType": "uint256",
          "name": "",
          "type": "uint256"
        }
      ],
      "stateMutability": "view",
      "type": "function"
    },
    {
      "inputs": [
        {
          "internalType": "bytes32",
          "name": "taskId",
          "type": "bytes32"
        },
        {
          "internalType": "address",
          "name": "bidder",
          "type": "address"
        }
      ],
      "name": "acceptBid",
      "outputs": [],
      "stateMutability": "nonpayable",
      "type": "function"
    },
    {
      "inputs": [
        {
          "internalType": "address",
          "name": "",
          "type": "address"
        },
        {
          "internalType": "uint256",
          "name": "",
          "type": "uint256"
        }
      ],
      "name": "agentTasksCompleted",
      "outputs": [
        {
          "internalType": "bytes32",
          "name": "",
          "type": "bytes32"
        }
      ],
      "stateMutability": "view",
      "type": "function"
    },
    {
      "inputs": [
        {
          "internalType": "address",
          "name": "",
          "type": "address"
        },
        {
          "internalType": "uint256",
          "name": "",
          "type": "uint256"
        }
      ],
      "name": "agentTasksPosted",
      "outputs": [
        {
          "internalType": "bytes32",
          "name": "",
          "type": "bytes32"
        }
      ],
      "stateMutability": "view",
      "type": "function"
    },
    {
      "inputs": [
        {
          "internalType": "bytes32",
          "name": "taskId",
          "type": "bytes32"
        }
      ],
      "name": "approveTask",
      "outputs": [],
      "stateMutability": "nonpayable",
      "type": "function"
    },
    {
      "inputs": [
        {
          "internalType": "bytes32",
          "name": "taskId",
          "type": "bytes32"
        }
      ],
      "name": "autoApprove",
      "outputs": [],
      "stateMutability": "nonpayable",
      "type": "function"
    },
    {
      "inputs": [],
      "name": "autoApproveWindow",
      "outputs": [
        {
          "internalType": "uint256",
          "name": "",
          "type": "uint256"
        }
      ],
      "stateMutability": "view",
      "type": "function"
    },
    {
      "inputs": [
        {
          "internalType": "bytes32",
          "name": "taskId",
          "type": "bytes32"
        },
        {
          "internalType": "uint256",
          "name": "price",
          "type": "uint256"
        },
        {
          "internalType": "uint256",
          "name": "estimatedTime",
          "type": "uint256"
        }
      ],
      "name": "bidOnTask",
      "outputs": [],
      "stateMutability": "nonpayable",
      "type": "function"
    },
    {
      "inputs": [
        {
          "internalType": "bytes32",
          "name": "taskId",
          "type": "bytes32"
        }
      ],
      "name": "cancelTask",
      "outputs": [],
      "stateMutability": "nonpayable",
      "type": "function"
    },
    {
      "inputs": [
        {
          "internalType": "bytes32",
          "name": "taskId",
          "type": "bytes32"
        }
      ],
      "name": "claimTask",
      "outputs": [],
      "stateMutability": "nonpayable",
      "type": "function"
    },
    {
      "inputs": [],
      "name": "claimTimeout",
      "outputs": [
        {
          "internalType": "uint256",
          "name": "",
          "type": "uint256"
        }
      ],
      "stateMutability": "view",
      "type": "function"
    },
    {
      "inputs": [
        {
          "internalType": "bytes32",
          "name": "parentTaskId",
          "type": "bytes32"
        },
        {
          "internalType": "bytes32",
          "name": "subtaskId",
          "type": "bytes32"
        },
        {
          "internalType": "uint256",
          "name": "bountyAmount",
          "type": "uint256"
        }
      ],
      "name": "createSubtask",
      "outputs": [],
      "stateMutability": "nonpayable",
      "type": "function"
    },
    {
      "inputs": [
        {
          "internalType": "bytes32",
          "name": "taskId",
          "type": "bytes32"
        },
        {
          "internalType": "uint256",
          "name": "bountyAmount",
          "type": "uint256"
        }
      ],
      "name": "createTask",
      "outputs": [],
      "stateMutability": "nonpayable",
      "type": "function"
    },
    {
      "inputs": [],
      "name": "disputePosterShareBps",
      "outputs": [
        {
          "internalType": "uint256",
          "name": "",
          "type": "uint256"
        }
      ],
      "stateMutability": "view",
      "type": "function"
    },
    {
      "inputs": [
        {
          "internalType": "bytes32",
          "name": "taskId",
          "type": "bytes32"
        }
      ],
      "name": "disputeTask",
      "outputs": [],
      "stateMutability": "nonpayable",
      "type": "function"
    },
    {
      "inputs": [],
      "name": "disputeWindow",
      "outputs": [
        {
          "internalType": "uint256",
          "name": "",
          "type": "uint256"
        }
      ],
      "stateMutability": "view",
      "type": "function"
    },
    {
      "inputs": [],
      "name": "feeRecipient",
      "outputs": [
        {
          "internalType": "address",
          "name": "",
          "type": "address"
        }
      ],
      "stateMutability": "view",
      "type": "function"
    },
    {
      "inputs": [
        {
          "internalType": "address",
          "name": "agent",
          "type": "address"
        }
      ],
      "name": "getAgentCompletedTasks",
      "outputs": [
        {
          "internalType": "bytes32[]",
          "name": "",
          "type": "bytes32[]"
        }
      ],
      "stateMutability": "view",
      "type": "function"
    },
    {
      "inputs": [
        {
          "internalType": "address",
          "name": "agent",
          "type": "address"
        }
      ],
      "name": "getAgentPostedTasks",
      "outputs": [
        {
          "internalType": "bytes32[]",
          "name": "",
          "type": "bytes32[]"
        }
      ],
      "stateMutability": "view",
      "type": "function"
    },
    {
      "inputs": [
        {
          "internalType": "address",
          "name": "agent",
          "type": "address"
        }
      ],
      "name": "getAgentTier",
      "outputs": [
        {
          "internalType": "uint8",
          "name": "tier",
          "type": "uint8"
        }
      ],
      "stateMutability": "view",
      "type": "function"
    },
    {
      "inputs": [
        {
          "internalType": "bytes32",
          "name": "taskId",
          "type": "bytes32"
        },
        {
          "internalType": "address",
          "name": "bidder",
          "type": "address"
        }
      ],
      "name": "getBid",
      "outputs": [
        {
          "components": [
            {
              "internalType": "address",
              "name": "bidder",
              "type": "address"
            },
            {
              "internalType": "uint256",
              "name": "price",
              "type": "uint256"
            },
            {
              "internalType": "uint256",
              "name": "estimatedTime",
              "type": "uint256"
            },
            {
              "internalType": "uint256",
              "name": "timestamp",
              "type": "uint256"
            },
            {
              "internalType": "bool",
              "name": "accepted",
              "type": "bool"
            }
          ],
          "internalType": "struct TaskEscrow.Bid",
          "name": "",
          "type": "tuple"
        }
      ],
      "stateMutability": "view",
      "type": "function"
    },
    {
      "inputs": [
        {
          "internalType": "address",
          "name": "agent",
          "type": "address"
        }
      ],
      "name": "getReputation",
      "outputs": [
        {
          "components": [
            {
              "internalType": "uint256",
              "name": "tasksCompleted",
              "type": "uint256"
            },
            {
              "internalType": "uint256",
              "name": "tasksPosted",
              "type": "uint256"
            },
            {
              "internalType": "uint256",
              "name": "totalEarned",
              "type": "uint256"
            },
            {
              "internalType": "uint256",
              "name": "totalSpent",
              "type": "uint256"
            },
            {
              "internalType": "uint256",
              "name": "disputesAsWorker",
              "type": "uint256"
            },
            {
              "internalType": "uint256",
              "name": "disputesAsPoster",
              "type": "uint256"
            },
            {
              "internalType": "uint256",
              "name": "registeredAt",
              "type": "uint256"
            }
          ],
          "internalType": "struct TaskEscrow.AgentReputation",
          "name": "",
          "type": "tuple"
        }
      ],
      "stateMutability": "view",
      "type": "function"
    },
    {
      "inputs": [],
      "name": "getStats",
      "outputs": [
        {
          "internalType": "uint256",
          "name": "tasksCreated",
          "type": "uint256"
        },
        {
          "internalType": "uint256",
          "name": "tasksCompleted",
          "type": "uint256"
        },
        {
          "internalType": "uint256",
          "name": "volumeUsdc",
          "type": "uint256"
        },
        {
          "internalType": "uint256",
          "name": "feesCollected",
          "type": "uint256"
        },
        {
          "internalType": "uint256",
          "name": "currentFeeBps",
          "type": "uint256"
        },
        {
          "internalType": "uint256",
          "name": "registeredAgents",
          "type": "uint256"
        }
      ],
      "stateMutability": "view",
      "type": "function"
    },
    {
      "inputs": [
        {
          "internalType": "bytes32",
          "name": "parentTaskId",
          "type": "bytes32"
        }
      ],
      "name": "getSubtasks",
      "outputs": [
        {
          "internalType": "bytes32[]",
          "name": "",
          "type": "bytes32[]"
        }
      ],
      "stateMutability": "view",
      "type": "function"
    },
    {
      "inputs": [
        {
          "internalType": "bytes32",
          "name": "taskId",
          "type": "bytes32"
        }
      ],
      "name": "getTask",
      "outputs": [
        {
          "components": [
            {
              "internalType": "address",
              "name": "poster",
              "type": "address"
            },
            {
              "internalType": "address",
              "name": "worker",
              "type": "address"
            },
            {
              "internalType": "uint256",
              "name": "bounty",
              "type": "uint256"
            },
            {
              "internalType": "uint256",
              "name": "agreedPrice",
              "type": "uint256"
            },
            {
              "internalType": "enum TaskEscrow.Status",
              "name": "status",
              "type": "uint8"
            },
            {
              "internalType": "bytes32",
              "name": "deliverableHash",
              "type": "bytes32"
            },
            {
              "internalType": "uint256",
              "name": "createdAt",
              "type": "uint256"
            },
            {
              "internalType": "uint256",
              "name": "claimedAt",
              "type": "uint256"
            },
            {
              "internalType": "uint256",
              "name": "submittedAt",
              "type": "uint256"
            },
            {
              "internalType": "bytes32",
              "name": "parentTaskId",
              "type": "bytes32"
            },
            {
              "internalType": "uint256",
              "name": "bidCount",
              "type": "uint256"
            }
          ],
          "internalType": "struct TaskEscrow.Task",
          "name": "",
          "type": "tuple"
        }
      ],
      "stateMutability": "view",
      "type": "function"
    },
    {
      "inputs": [
        {
          "internalType": "bytes32",
          "name": "taskId",
          "type": "bytes32"
        }
      ],
      "name": "getTaskBids",
      "outputs": [
        {
          "internalType": "address[]",
          "name": "bidders",
          "type": "address[]"
        },
        {
          "components": [
            {
              "internalType": "address",
              "name": "bidder",
              "type": "address"
            },
            {
              "internalType": "uint256",
              "name": "price",
              "type": "uint256"
            },
            {
              "internalType": "uint256",
              "name": "estimatedTime",
              "type": "uint256"
            },
            {
              "internalType": "uint256",
              "name": "timestamp",
              "type": "uint256"
            },
            {
              "internalType": "bool",
              "name": "accepted",
              "type": "bool"
            }
          ],
          "internalType": "struct TaskEscrow.Bid[]",
          "name": "bids",
          "type": "tuple[]"
        }
      ],
      "stateMutability": "view",
      "type": "function"
    },
    {
      "inputs": [],
      "name": "owner",
      "outputs": [
        {
          "internalType": "address",
          "name": "",
          "type": "address"
        }
      ],
      "stateMutability": "view",
      "type": "function"
    },
    {
      "inputs": [],
      "name": "pause",
      "outputs": [],
      "stateMutability": "nonpayable",
      "type": "function"
    },
    {
      "inputs": [],
      "name": "paused",
      "outputs": [
        {
          "internalType": "bool",
          "name": "",
          "type": "bool"
        }
      ],
      "stateMutability": "view",
      "type": "function"
    },
    {
      "inputs": [],
      "name": "platformFeeBps",
      "outputs": [
        {
          "internalType": "uint256",
          "name": "",
          "type": "uint256"
        }
      ],
      "stateMutability": "view",
      "type": "function"
    },
    {
      "inputs": [
        {
          "internalType": "bytes32",
          "name": "taskId",
          "type": "bytes32"
        }
      ],
      "name": "refund",
      "outputs": [],
      "stateMutability": "nonpayable",
      "type": "function"
    },
    {
      "inputs": [],
      "name": "renounceOwnership",
      "outputs": [],
      "stateMutability": "nonpayable",
      "type": "function"
    },
    {
      "inputs": [
        {
          "internalType": "address",
          "name": "",
          "type": "address"
        }
      ],
      "name": "reputation",
      "outputs": [
        {
          "internalType": "uint256",
          "name": "tasksCompleted",
          "type": "uint256"
        },
        {
          "internalType": "uint256",
          "name": "tasksPosted",
          "type": "uint256"
        },
        {
          "internalType": "uint256",
          "name": "totalEarned",
          "type": "uint256"
        },
        {
          "internalType": "uint256",
          "name": "totalSpent",
          "type": "uint256"
        },
        {
          "internalType": "uint256",
          "name": "disputesAsWorker",
          "type": "uint256"
        },
        {
          "internalType": "uint256",
          "name": "disputesAsPoster",
          "type": "uint256"
        },
        {
          "internalType": "uint256",
          "name": "registeredAt",
          "type": "uint256"
        }
      ],
      "stateMutability": "view",
      "type": "function"
    },
    {
      "inputs": [
        {
          "internalType": "bytes32",
          "name": "taskId",
          "type": "bytes32"
        }
      ],
      "name": "resolveDispute",
      "outputs": [],
      "stateMutability": "nonpayable",
      "type": "function"
    },
    {
      "inputs": [
        {
          "internalType": "uint256",
          "name": "newWindow",
          "type": "uint256"
        }
      ],
      "name": "setAutoApproveWindow",
      "outputs": [],
      "stateMutability": "nonpayable",
      "type": "function"
    },
    {
      "inputs": [
        {
          "internalType": "uint256",
          "name": "newTimeout",
          "type": "uint256"
        }
      ],
      "name": "setClaimTimeout",
      "outputs": [],
      "stateMutability": "nonpayable",
      "type": "function"
    },
    {
      "inputs": [
        {
          "internalType": "uint256",
          "name": "newPosterShareBps",
          "type": "uint256"
        }
      ],
      "name": "setDisputeSplit",
      "outputs": [],
      "stateMutability": "nonpayable",
      "type": "function"
    },
    {
      "inputs": [
        {
          "internalType": "uint256",
          "name": "newWindow",
          "type": "uint256"
        }
      ],
      "name": "setDisputeWindow",
      "outputs": [],
      "stateMutability": "nonpayable",
      "type": "function"
    },
    {
      "inputs": [
        {
          "internalType": "uint256",
          "name": "newFeeBps",
          "type": "uint256"
        }
      ],
      "name": "setFee",
      "outputs": [],
      "stateMutability": "nonpayable",
      "type": "function"
    },
    {
      "inputs": [
        {
          "internalType": "address",
          "name": "newRecipient",
          "type": "address"
        }
      ],
      "name": "setFeeRecipient",
      "outputs": [],
      "stateMutability": "nonpayable",
      "type": "function"
    },
    {
      "inputs": [
        {
          "internalType": "bytes32",
          "name": "taskId",
          "type": "bytes32"
        },
        {
          "internalType": "bytes32",
          "name": "deliverableHash",
          "type": "bytes32"
        }
      ],
      "name": "submitDeliverable",
      "outputs": [],
      "stateMutability": "nonpayable",
      "type": "function"
    },
    {
      "inputs": [
        {
          "internalType": "bytes32",
          "name": "",
          "type": "bytes32"
        },
        {
          "internalType": "uint256",
          "name": "",
          "type": "uint256"
        }
      ],
      "name": "subtasks",
      "outputs": [
        {
          "internalType": "bytes32",
          "name": "",
          "type": "bytes32"
        }
      ],
      "stateMutability": "view",
      "type": "function"
    },
    {
      "inputs": [
        {
          "internalType": "bytes32",
          "name": "",
          "type": "bytes32"
        },
        {
          "internalType": "uint256",
          "name": "",
          "type": "uint256"
        }
      ],
      "name": "taskBidders",
      "outputs": [
        {
          "internalType": "address",
          "name": "",
          "type": "address"
        }
      ],
      "stateMutability": "view",
      "type": "function"
    },
    {
      "inputs": [
        {
          "internalType": "bytes32",
          "name": "",
          "type": "bytes32"
        },
        {
          "internalType": "address",
          "name": "",
          "type": "address"
        }
      ],
      "name": "taskBids",
      "outputs": [
        {
          "internalType": "address",
          "name": "bidder",
          "type": "address"
        },
        {
          "internalType": "uint256",
          "name": "price",
          "type": "uint256"
        },
        {
          "internalType": "uint256",
          "name": "estimatedTime",
          "type": "uint256"
        },
        {
          "internalType": "uint256",
          "name": "timestamp",
          "type": "uint256"
        },
        {
          "internalType": "bool",
          "name": "accepted",
          "type": "bool"
        }
      ],
      "stateMutability": "view",
      "type": "function"
    },
    {
      "inputs": [
        {
          "internalType": "bytes32",
          "name": "",
          "type": "bytes32"
        }
      ],
      "name": "tasks",
      "outputs": [
        {
          "internalType": "address",
          "name": "poster",
          "type": "address"
        },
        {
          "internalType": "address",
          "name": "worker",
          "type": "address"
        },
        {
          "internalType": "uint256",
          "name": "bounty",
          "type": "uint256"
        },
        {
          "internalType": "uint256",
          "name": "agreedPrice",
          "type": "uint256"
        },
        {
          "internalType": "enum TaskEscrow.Status",
          "name": "status",
          "type": "uint8"
        },
        {
          "internalType": "bytes32",
          "name": "deliverableHash",
          "type": "bytes32"
        },
        {
          "internalType": "uint256",
          "name": "createdAt",
          "type": "uint256"
        },
        {
          "internalType": "uint256",
          "name": "claimedAt",
          "type": "uint256"
        },
        {
          "internalType": "uint256",
          "name": "submittedAt",
          "type": "uint256"
        },
        {
          "internalType": "bytes32",
          "name": "parentTaskId",
          "type": "bytes32"
        },
        {
          "internalType": "uint256",
          "name": "bidCount",
          "type": "uint256"
        }
      ],
      "stateMutability": "view",
      "type": "function"
    },
    {
      "inputs": [],
      "name": "totalAgents",
      "outputs": [
        {
          "internalType": "uint256",
          "name": "",
          "type": "uint256"
        }
      ],
      "stateMutability": "view",
      "type": "function"
    },
    {
      "inputs": [],
      "name": "totalFeesCollected",
      "outputs": [
        {
          "internalType": "uint256",
          "name": "",
          "type": "uint256"
        }
      ],
      "stateMutability": "view",
      "type": "function"
    },
    {
      "inputs": [],
      "name": "totalTasksCompleted",
      "outputs": [
        {
          "internalType": "uint256",
          "name": "",
          "type": "uint256"
        }
      ],
      "stateMutability": "view",
      "type": "function"
    },
    {
      "inputs": [],
      "name": "totalTasksCreated",
      "outputs": [
        {
          "internalType": "uint256",
          "name": "",
          "type": "uint256"
        }
      ],
      "stateMutability": "view",
      "type": "function"
    },
    {
      "inputs": [],
      "name": "totalVolumeUsdc",
      "outputs": [
        {
          "internalType": "uint256",
          "name": "",
          "type": "uint256"
        }
      ],
      "stateMutability": "view",
      "type": "function"
    },
    {
      "inputs": [
        {
          "internalType": "address",
          "name": "newOwner",
          "type": "address"
        }
      ],
      "name": "transferOwnership",
      "outputs": [],
      "stateMutability": "nonpayable",
      "type": "function"
    },
    {
      "inputs": [],
      "name": "unpause",
      "outputs": [],
      "stateMutability": "nonpayable",
      "type": "function"
    },
    {
      "inputs": [],
      "name": "usdc",
      "outputs": [
        {
          "internalType": "contract IERC20",
          "name": "",
          "type": "address"
        }
      ],
      "stateMutability": "view",
      "type": "function"
    }
  ],
  "bytecode": "0x60a060405260fa60025562093a806010556203f48060115562127500601255611b5860135534801562000030575f80fd5b5060405162002d0c38038062002d0c8339810160408190526200005391620001d0565b60015f5533806200007e57604051631e4fbdf760e01b81525f60048201526024015b60405180910390fd5b620000898162000163565b506001600160a01b038216620000e25760405162461bcd60e51b815260206004820152601460248201527f496e76616c696420555344432061646472657373000000000000000000000000604482015260640162000075565b6001600160a01b0381166200013a5760405162461bcd60e51b815260206004820152601560248201527f496e76616c69642066656520726563697069656e740000000000000000000000604482015260640162000075565b6001600160a01b03918216608052600380546001600160a01b0319169190921617905562000206565b600180546001600160a01b038381166001600160a01b0319831681179093556040519116919082907f8be0079c531659141344cd1fd0a4f28419497f9722a3daafe3b4186f6b6457e0905f90a35050565b80516001600160a01b0381168114620001cb575f80fd5b919050565b5f8060408385031215620001e2575f80fd5b620001ed83620001b4565b9150620001fd60208401620001b4565b90509250929050565b608051612ab5620002575f395f8181610404015281816110590152818161125b015281816116b4015281816116f601528181611c9e01528181611fa001528181611ff3015261220d0152612ab55ff3fe608060405234801561000f575f80fd5b5060043610610333575f3560e01c80638deff864116101af578063c8218e3e116100fe578063e74b981b1161009e578063f08f6ea011610079578063f08f6ea0146108cf578063f2444b0d146108e2578063f2fde38b146108f5578063fd4df69b14610908575f80fd5b8063e74b981b14610896578063e7a5b4ea146108a9578063ee8ca3b5146108bc575f80fd5b8063d4fa5d61116100d9578063d4fa5d61146107e3578063d55be8c6146107f6578063e1a45218146107ff578063e579f50014610808575f80fd5b8063c8218e3e1461079d578063d0ba5264146107b0578063d46600aa146107d0575f80fd5b8063b9f7945111610169578063bbacc59111610144578063bbacc5911461072f578063be909bb914610742578063c505371214610755578063c59d48471461075e575f80fd5b8063b9f7945114610603578063ba4852b614610682578063bb5b93b5146106a7575f80fd5b80638deff864146105465780639bbeabda146105595780639c89a0e2146105625780639eabd40c146105ca5780639eac6099146105dd578063a5aed1ad146105f0575f80fd5b806346904840116102855780636fbb5f62116102255780637249fbb6116102005780637249fbb6146105075780638456cb591461051a578063888a7934146105225780638da5cb5b14610535575f80fd5b80636fbb5f62146104d957806370f8c6f9146104ec578063715018a6146104ff575f80fd5b806364a0c3f51161026057806364a0c3f51461047f57806367e2fe9c146104a057806369fe0e2d146104b35780636c51c0f1146104c6575f80fd5b806346904840146104465780635c975abb1461045957806360c6d8ae14610476575f80fd5b806315a29035116102f05780632b0cd42a116102cb5780632b0cd42a146103d9578063332226d0146103ec5780633e413bee146103ff5780633f4ba83a1461043e575f80fd5b806315a29035146103a757806322dcd13e146103c757806324dd2893146103d0575f80fd5b806308abfe9f146103375780630ccce304146103605780630e1da6c314610375578063108ab45e1461038c578063117f5f921461039557806313578c371461039e575b5f80fd5b61034a6103453660046126ad565b610911565b60405161035791906126cd565b60405180910390f35b61037361036e366004612710565b61097a565b005b61037e60105481565b604051908152602001610357565b61037e600c5481565b61037e60115481565b61037e60135481565b6103ba6103b5366004612710565b610a11565b604051610357919061275b565b61037e60025481565b61037e600d5481565b6103736103e7366004612710565b610b2c565b6103736103fa366004612710565b610b5c565b6104267f000000000000000000000000000000000000000000000000000000000000000081565b6040516001600160a01b039091168152602001610357565b610373610b69565b600354610426906001600160a01b031681565b600154600160a01b900460ff166040519015158152602001610357565b61037e600e5481565b61049261048d366004612710565b610b7b565b60405161035792919061282f565b61034a6104ae3660046126ad565b610d0b565b6103736104c1366004612710565b610d72565b61034a6104d4366004612710565b610de3565b6103736104e73660046128bb565b610e40565b6103736104fa366004612710565b610e68565b610373610f84565b610373610515366004612710565b610f95565b6103736110de565b6103736105303660046128db565b6110ee565b6001546001600160a01b0316610426565b61037e610554366004612905565b61130e565b61037e60125481565b6105756105703660046126ad565b611339565b60405161035791905f60e082019050825182526020830151602083015260408301516040830152606083015160608301526080830151608083015260a083015160a083015260c083015160c083015292915050565b6104266105d83660046128bb565b6113dd565b6103736105eb366004612710565b611411565b61037e6105fe366004612905565b61141e565b61064d6106113660046126ad565b60086020525f90815260409020805460018201546002830154600384015460048501546005860154600690960154949593949293919290919087565b604080519788526020880196909652948601939093526060850191909152608084015260a083015260c082015260e001610357565b6106956106903660046126ad565b611437565b60405160ff9091168152602001610357565b6106fb6106b53660046128db565b600560209081525f9283526040808420909152908252902080546001820154600283015460038401546004909401546001600160a01b0390931693919290919060ff1685565b604080516001600160a01b03909616865260208601949094529284019190915260608301521515608082015260a001610357565b61037361073d366004612710565b61149b565b61037e6107503660046128bb565b6115ec565b61037e600f5481565b600b54600c54600d54600e54600254600f54604080519687526020870195909552938501929092526060840152608083015260a082015260c001610357565b6103736107ab366004612710565b611605565b6107c36107be3660046128db565b611766565b604051610357919061292d565b6103736107de3660046128bb565b6117d6565b6103736107f136600461293b565b611906565b61037e6103e881565b61037e61271081565b61087f610816366004612710565b600460208190525f918252604090912080546001820154600283015460038401549484015460058501546006860154600787015460088801546009890154600a909901546001600160a01b039889169a9790981698959760ff909516959394929391929091908b565b6040516103579b9a99989796959493929190612964565b6103736108a43660046126ad565b611b4d565b6103736108b7366004612710565b611bd6565b6103736108ca366004612710565b611be3565b6103736108dd366004612710565b611d13565b6103736108f036600461293b565b611d93565b6103736109033660046126ad565b611eb4565b61037e600b5481565b6001600160a01b0381165f908152600a602090815260409182902080548351818402810184019094528084526060939283018282801561096e57602002820191905f5260205f20905b81548152602001906001019080831161095a575b50505050509050919050565b610982611eee565b61098a611f16565b5f8181526004602052604090206002600482015460ff1660068111156109b2576109b2612727565b146109d0576040516315fcfca760e21b815260040160405180910390fd5b80546001600160a01b031633146109fa57604051635085c6a760e01b815260040160405180910390fd5b610a048282611f41565b50610a0e60015f55565b50565b60408051610160810182525f80825260208201819052918101829052606081018290526080810182905260a0810182905260c0810182905260e08101829052610100810182905261012081018290526101408101919091525f8281526004602081815260409283902083516101608101855281546001600160a01b039081168252600183015416928101929092526002810154938201939093526003830154606082015290820154909190608083019060ff166006811115610ad557610ad5612727565b6006811115610ae657610ae6612727565b815260058201546020820152600682015460408201526007820154606082015260088201546080820152600982015460a0820152600a9091015460c09091015292915050565b610b34612129565b612710811115610b575760405163bcd55b0f60e01b815260040160405180910390fd5b601355565b610b64612129565b601155565b610b71612129565b610b79612156565b565b60608060065f8481526020019081526020015f20805480602002602001604051908101604052809291908181526020018280548015610be157602002820191905f5260205f20905b81546001600160a01b03168152600190910190602001808311610bc3575b50505050509150815167ffffffffffffffff811115610c0257610c026129cf565b604051908082528060200260200182016040528015610c3b57816020015b610c2861265d565b815260200190600190039081610c205790505b5090505f5b8251811015610d055760055f8581526020019081526020015f205f848381518110610c6d57610c6d6129e3565b6020908102919091018101516001600160a01b0390811683528282019390935260409182015f20825160a08101845281549094168452600181015491840191909152600281015491830191909152600381015460608301526004015460ff16151560808201528251839083908110610ce757610ce76129e3565b60200260200101819052508080610cfd90612a0b565b915050610c40565b50915091565b6001600160a01b0381165f9081526009602090815260409182902080548351818402810184019094528084526060939283018282801561096e57602002820191905f5260205f209081548152602001906001019080831161095a5750505050509050919050565b610d7a612129565b6103e8811115610d9d5760405163cd4e616760e01b815260040160405180910390fd5b600280549082905560408051828152602081018490527f528d9479e9f9889a87a3c30c7f7ba537e5e59c4c85a37733b16e57c62df6130291015b60405180910390a15050565b5f8181526007602090815260409182902080548351818402810184019094528084526060939283018282801561096e57602002820191905f5260205f209081548152602001906001019080831161095a5750505050509050919050565b610e48611eee565b610e50611f16565b610e5b82825f6121ab565b610e6460015f55565b5050565b610e70611eee565b610e78611f16565b5f81815260046020526040902080546001600160a01b0316610ead5760405163da319dff60e01b815260040160405180910390fd5b5f600482015460ff166006811115610ec757610ec7612727565b14610ee55760405163fe89421760e01b815260040160405180910390fd5b80546001600160a01b03163303610f0f57604051632fc366d560e21b815260040160405180910390fd5b610f183361240d565b600180820180546001600160a01b031916331790556002820154600383015560048201805460ff191682800217905550426007820155604051339083907f0e1f58463da369c5bf09630219fad2558dd2b2ead275c5dc36269b384dc138fe905f90a350610a0e60015f55565b610f8c612129565b610b795f612495565b610f9d611eee565b5f81815260046020526040902080546001600160a01b03163314610fd457604051635085c6a760e01b815260040160405180910390fd5b5f600482015460ff166006811115610fee57610fee612727565b1461100c5760405163781da3af60e11b815260040160405180910390fd5b601054816006015461101e9190612a23565b421161103d5760405163781da3af60e11b815260040160405180910390fd5b60048101805460ff191660051790558054600282015461108c917f00000000000000000000000000000000000000000000000000000000000000006001600160a01b03908116929116906124e6565b805460028201546040519081526001600160a01b039091169083907ff3a7ab0ccbad7f367b7892962016c155d1ce76a3e6fdd0420b5e749763acbda79060200160405180910390a350610a0e60015f55565b6110e6612129565b610b79612545565b6110f6611eee565b6110fe611f16565b5f82815260046020526040902080546001600160a01b03166111335760405163da319dff60e01b815260040160405180910390fd5b5f600482015460ff16600681111561114d5761114d612727565b1461116b5760405163fe89421760e01b815260040160405180910390fd5b80546001600160a01b0316331461119557604051635085c6a760e01b815260040160405180910390fd5b5f8381526005602090815260408083206001600160a01b038087168552925290912080549091166111d9576040516307e0eec960e31b815260040160405180910390fd5b60048181018054600160ff19918216811790925584820180546001600160a01b0319166001600160a01b0388161790558184018054600387015592850180549091169091179055426007840155600283015490541015611286575f816001015483600201546112489190612a36565b8354909150611284906001600160a01b037f000000000000000000000000000000000000000000000000000000000000000081169116836124e6565b505b826001600160a01b0316847f11584506704f1759083d660085355522a050c85b08441c428accd0ce05f9692883600101546040516112c691815260200190565b60405180910390a36040516001600160a01b0384169085907f0e1f58463da369c5bf09630219fad2558dd2b2ead275c5dc36269b384dc138fe905f90a35050610e6460015f55565b6009602052815f5260405f208181548110611327575f80fd5b905f5260205f20015f91509150505481565b6113726040518060e001604052805f81526020015f81526020015f81526020015f81526020015f81526020015f81526020015f81525090565b506001600160a01b03165f90815260086020908152604091829020825160e081018452815481526001820154928101929092526002810154928201929092526003820154606082015260048201546080820152600582015460a082015260069091015460c082015290565b6006602052815f5260405f2081815481106113f6575f80fd5b5f918252602090912001546001600160a01b03169150829050565b611419612129565b601255565b600a602052815f5260405f208181548110611327575f80fd5b6001600160a01b0381165f90815260086020526040812054603281106114605750600492915050565b601e81106114715750600392915050565b600f81106114825750600292915050565b600581106114935750600192915050565b505f92915050565b6114a3611eee565b6114ab611f16565b5f8181526004602052604090206002600482015460ff1660068111156114d3576114d3612727565b146114f1576040516315fcfca760e21b815260040160405180910390fd5b80546001600160a01b0316331461151b57604051635085c6a760e01b815260040160405180910390fd5b601154816008015461152d9190612a23565b42111561154d5760405163234c0ffd60e21b815260040160405180910390fd5b6004818101805460ff1916909117905580546001600160a01b03165f90815260086020526040812060050180549161158483612a0b565b909155505060018101546001600160a01b03165f9081526008602052604081206004018054916115b383612a0b565b909155505060405182907f765b57ef8d3683c90cb2af2cc30b2d34ced9fbbf1e02759c3ef780afed1e8cf4905f90a250610a0e60015f55565b6007602052815f5260405f208181548110611327575f80fd5b61160d611eee565b611615612129565b5f81815260046020819052604090912090600482015460ff16600681111561163f5761163f612727565b1461165d57604051630335c25360e21b815260040160405180910390fd5b60048101805460ff1916600517905560135460038201545f91612710916116849190612a49565b61168e9190612a60565b90505f8183600301546116a19190612a36565b83549091506116dd906001600160a01b037f000000000000000000000000000000000000000000000000000000000000000081169116846124e6565b801561171f57600183015461171f906001600160a01b037f000000000000000000000000000000000000000000000000000000000000000081169116836124e6565b604080518381526020810183905285917f58a2558343c2558557b34020fdd42da40f54056195b7744918f27e2e19adcc12910160405180910390a2505050610a0e60015f55565b61176e61265d565b505f8281526005602090815260408083206001600160a01b03808616855290835292819020815160a08101835281549094168452600181015492840192909252600282015490830152600381015460608301526004015460ff16151560808201525b92915050565b6117de611eee565b6117e6611f16565b5f8281526004602052604090206001600482015460ff16600681111561180e5761180e612727565b1461182c5760405163abbfac0d60e01b815260040160405180910390fd5b60018101546001600160a01b031633146118595760405163e1b1be1960e01b815260040160405180910390fd5b816118ab5760405162461bcd60e51b815260206004820152601860248201527f496e76616c69642064656c6976657261626c652068617368000000000000000060448201526064015b60405180910390fd5b6005810182905560048101805460ff1916600217905542600882015560405182815283907f480da4ccf65f8315cba8ba88ec1e6cdc983d8cff56ccc4c99af625a3c74ce4da9060200160405180910390a250610e6460015f55565b61190e611eee565b611916611f16565b5f83815260046020526040902080546001600160a01b031661194b5760405163da319dff60e01b815260040160405180910390fd5b5f600482015460ff16600681111561196557611965612727565b146119835760405163fe89421760e01b815260040160405180910390fd5b80546001600160a01b031633036119ad57604051632fc366d560e21b815260040160405180910390fd5b825f036119cd5760405163aa04eead60e01b815260040160405180910390fd5b80600201548311156119f2576040516309f44ed760e21b815260040160405180910390fd5b5f8481526005602090815260408083203384529091529020546001600160a01b031615611a3257604051630b8cee9f60e41b815260040160405180910390fd5b611a3b3361240d565b6040805160a08101825233808252602080830187815283850187815242606086019081525f608087018181528c8252600586528882208783528652888220975188546001600160a01b03919091166001600160a01b03199182161789559451600189810191909155935160028901559151600388015590516004909601805496151560ff199097169690961790955589855260068352948420805495860181558452908320909301805490931617909155600a8201805491611afc83612a0b565b90915550506040805184815260208101849052339186917fef6d2c268e6c826f1b828eb961b739407d952aa5104e66b5ea600f36f7f0f21a910160405180910390a350611b4860015f55565b505050565b611b55612129565b6001600160a01b038116611b7c57604051630ed1b8b360e31b815260040160405180910390fd5b600380546001600160a01b038381166001600160a01b031983168117909355604080519190921680825260208201939093527faaebcf1bfa00580e41d966056b48521fa9f202645c86d4ddf28113e617c1b1d39101610dd7565b611bde612129565b601055565b611beb611eee565b5f81815260046020526040902080546001600160a01b0316611c205760405163da319dff60e01b815260040160405180910390fd5b5f600482015460ff166006811115611c3a57611c3a612727565b14611c585760405163fe89421760e01b815260040160405180910390fd5b80546001600160a01b03163314611c8257604051635085c6a760e01b815260040160405180910390fd5b60048101805460ff1916600617905580546002820154611cd1917f00000000000000000000000000000000000000000000000000000000000000006001600160a01b03908116929116906124e6565b80546040516001600160a01b039091169083907f44d83729a43f9c6046446df014d073dd242e0ad672071e9b292f31b669c25b09905f90a350610a0e60015f55565b611d1b611eee565b5f8181526004602052604090206002600482015460ff166006811115611d4357611d43612727565b14611d61576040516315fcfca760e21b815260040160405180910390fd5b6012548160080154611d739190612a23565b4210156109fa57604051630e05d40360e41b815260040160405180910390fd5b611d9b611eee565b611da3611f16565b5f83815260046020526040902080546001600160a01b0316611dd85760405163da319dff60e01b815260040160405180910390fd5b60018101546001600160a01b03163314611e055760405163d6b2f97f60e01b815260040160405180910390fd5b6001600482015460ff166006811115611e2057611e20612727565b14611e3e5760405163abbfac0d60e01b815260040160405180910390fd5b611e498383866121ab565b5f84815260076020908152604080832080546001810182559084529190922001849055513390849086907fa8fbc1664833c0000ec4104c2d4e046afdef3f29bd44b36be042a0110eb4548290611ea29087815260200190565b60405180910390a450611b4860015f55565b611ebc612129565b6001600160a01b038116611ee557604051631e4fbdf760e01b81525f60048201526024016118a2565b610a0e81612495565b60025f5403611f1057604051633ee5aeb560e01b815260040160405180910390fd5b60025f55565b600154600160a01b900460ff1615610b795760405163d93c066560e01b815260040160405180910390fd5b60048101805460ff19166003908117909155600254908201545f9161271091611f6a9190612a49565b611f749190612a60565b90505f818360030154611f879190612a36565b90508115611fe057600354611fc9906001600160a01b037f000000000000000000000000000000000000000000000000000000000000000081169116846124e6565b81600e5f828254611fda9190612a23565b90915550505b600183015461201c906001600160a01b037f000000000000000000000000000000000000000000000000000000000000000081169116836124e6565b60018301546001600160a01b03165f90815260086020526040812080549161204383612a0b565b909155505060018301546001600160a01b03165f9081526008602052604081206002018054839290612076908490612a23565b90915550506001808401546001600160a01b03165f90815260096020908152604082208054938401815582528120909101859055600c8054916120b883612a0b565b91905055508260030154600d5f8282546120d29190612a23565b9091555050600183015460408051838152602081018590526001600160a01b039092169186917fe5e356644794526fe6ef15b4a65ccbc570eea7f640ea5d636d2b74776c501fa7910160405180910390a350505050565b6001546001600160a01b03163314610b795760405163118cdaa760e01b81523360048201526024016118a2565b61215e612588565b6001805460ff60a01b191690557f5db9ee0a495bf2e6ff9c91a7834c1ba4fdd244a5e8aa4e537bd38aeae4b073aa335b6040516001600160a01b03909116815260200160405180910390a1565b5f838152600460205260409020546001600160a01b0316156121e05760405163f2e16b0360e01b815260040160405180910390fd5b815f036122005760405163ce8338ed60e01b815260040160405180910390fd5b6122356001600160a01b037f0000000000000000000000000000000000000000000000000000000000000000163330856125b2565b60408051610160810182523381525f6020808301828152838501878152606085018881526080860185815260a087018690524260c088015260e087018690526101008701869052610120870189905261014087018690528a865260049485905296909420855181546001600160a01b03199081166001600160a01b039283161783559351600180840180549096169190921617909355905160028201559251600384015593519082018054939492939192909160ff1916908360068111156122ff576122ff612727565b021790555060a0820151600582015560c0820151600682015560e082015160078201556101008201516008820155610120820151600982015561014090910151600a9091015561234e3361240d565b335f90815260086020526040812060010180549161236b83612a0b565b9091555050335f9081526008602052604081206003018054849290612391908490612a23565b9091555050335f908152600a602090815260408220805460018101825590835290822001849055600b8054916123c683612a0b565b90915550506040805183815260208101839052339185917f2b6d0a485834bbf18c00f1c929f83b527c3d517653ad7206e356af51190e9b36910160405180910390a3505050565b6001600160a01b0381165f908152600860205260408120600601549003610a0e576001600160a01b0381165f90815260086020526040812042600690910155600f80549161245a83612a0b565b90915550506040516001600160a01b038216907f82d0829d9d481e4cb9913897f9b9c903271c4db68c7b3324071d2a7e3b2c5ff0905f90a250565b600180546001600160a01b038381166001600160a01b0319831681179093556040519116919082907f8be0079c531659141344cd1fd0a4f28419497f9722a3daafe3b4186f6b6457e0905f90a35050565b6040516001600160a01b03838116602483015260448201839052611b4891859182169063a9059cbb906064015b604051602081830303815290604052915060e01b6020820180516001600160e01b0383818316178352505050506125f1565b61254d611f16565b6001805460ff60a01b1916600160a01b1790557f62e78cea01bee320cd4e420270b5ea74000d11b0c9f74754ebdbfc544b05a25861218e3390565b600154600160a01b900460ff16610b7957604051638dfc202b60e01b815260040160405180910390fd5b6040516001600160a01b0384811660248301528381166044830152606482018390526125eb9186918216906323b872dd90608401612513565b50505050565b5f8060205f8451602086015f885af180612610576040513d5f823e3d81fd5b50505f513d91508115612627578060011415612634565b6001600160a01b0384163b155b156125eb57604051635274afe760e01b81526001600160a01b03851660048201526024016118a2565b6040518060a001604052805f6001600160a01b031681526020015f81526020015f81526020015f81526020015f151581525090565b80356001600160a01b03811681146126a8575f80fd5b919050565b5f602082840312156126bd575f80fd5b6126c682612692565b9392505050565b602080825282518282018190525f9190848201906040850190845b81811015612704578351835292840192918401916001016126e8565b50909695505050505050565b5f60208284031215612720575f80fd5b5035919050565b634e487b7160e01b5f52602160045260245ffd5b6007811061275757634e487b7160e01b5f52602160045260245ffd5b9052565b81516001600160a01b031681526101608101602083015161278760208401826001600160a01b03169052565b50604083015160408301526060830151606083015260808301516127ae608084018261273b565b5060a083015160a083015260c083015160c083015260e083015160e083015261010080840151818401525061012080840151818401525061014080840151818401525092915050565b80516001600160a01b031682526020808201519083015260408082015190830152606080820151908301526080908101511515910152565b604080825283519082018190525f906020906060840190828701845b828110156128705781516001600160a01b03168452928401929084019060010161284b565b505050838103828501528451808252858301918301905f5b818110156128ae5761289b8385516127f7565b9284019260a09290920191600101612888565b5090979650505050505050565b5f80604083850312156128cc575f80fd5b50508035926020909101359150565b5f80604083850312156128ec575f80fd5b823591506128fc60208401612692565b90509250929050565b5f8060408385031215612916575f80fd5b61291f83612692565b946020939093013593505050565b60a081016117d082846127f7565b5f805f6060848603121561294d575f80fd5b505081359360208301359350604090920135919050565b6001600160a01b038c811682528b166020820152604081018a9052606081018990526101608101612998608083018a61273b565b8760a08301528660c08301528560e08301528461010083015283610120830152826101408301529c9b505050505050505050505050565b634e487b7160e01b5f52604160045260245ffd5b634e487b7160e01b5f52603260045260245ffd5b634e487b7160e01b5f52601160045260245ffd5b5f60018201612a1c57612a1c6129f7565b5060010190565b808201808211156117d0576117d06129f7565b818103818111156117d0576117d06129f7565b80820281158282048414176117d0576117d06129f7565b5f82612a7a57634e487b7160e01b5f52601260045260245ffd5b50049056fea26469706673582212203a448ecac39c1a8c9e435e78b202e8a549171d42ea0bf7dee601ddc5a65b569564736f6c63430008140033",
  "linkReferences": {},
  "deployedLinkReferences": {},
  "immutableReferences": {
    "1019": [
      {
        "length": 32,
        "start": 1028
      },
      {
        "length": 32,
        "start": 4185
      },
      {
        "length": 32,
        "start": 4699
      },
      {
        "length": 32,
        "start": 5812
      },
      {
        "length": 32,
        "start": 5878
      },
      {
        "length": 32,
        "start": 7326
      },
      {
        "length": 32,
        "start": 8096
      },
      {
        "length": 32,
        "start": 8179
      },
      {
        "length": 32,
        "start": 8717
      }
    ]
  },
  "inputSourceName": "project/contracts/TaskEscrow.sol",
  "buildInfoId": "solc-0_8_20-e4e52b47d07591fa0f6bb768816625998e0e9f91"
}