{"project/contracts/TaskEscrow.sol":{"TaskEscrow":{"abi":[{"inputs":[{"internalType":"address","name":"_usdc","type":"address"},{"internalType":"address","name":"_feeRecipient","type":"address"}],"stateMutability":"nonpayable","type":"constructor"},{"inputs":[],"name":"AutoApproveNotReady","type":"error"},{"inputs":[],"name":"BidAlreadyPlaced","type":"error"},{"inputs":[],"name":"BidExceedsBounty","type":"error"},{"inputs":[],"name":"BidNotFound","type":"error"},{"inputs":[],"name":"CannotCancelWithAcceptedBids","type":"error"},{"inputs":[],"name":"CannotRefundYet","type":"error"},{"inputs":[],"name":"DisputeWindowExpired","type":"error"},{"inputs":[],"name":"EnforcedPause","type":"error"},{"inputs":[],"name":"ExpectedPause","type":"error"},{"inputs":[],"name":"FeeTooHigh","type":"error"},{"inputs":[],"name":"InvalidBidPrice","type":"error"},{"inputs":[],"name":"InvalidBounty","type":"error"},{"inputs":[],"name":"InvalidFeeRecipient","type":"error"},{"inputs":[],"name":"InvalidSplit","type":"error"},{"inputs":[],"name":"NotParentTaskWorker","type":"error"},{"inputs":[],"name":"OnlyPosterCanPerform","type":"error"},{"inputs":[],"name":"OnlyWorkerCanPerform","type":"error"},{"inputs":[{"internalType":"address","name":"owner","type":"address"}],"name":"OwnableInvalidOwner","type":"error"},{"inputs":[{"internalType":"address","name":"account","type":"address"}],"name":"OwnableUnauthorizedAccount","type":"error"},{"inputs":[],"name":"PosterCannotBidOwnTask","type":"error"},{"inputs":[],"name":"ReentrancyGuardReentrantCall","type":"error"},{"inputs":[{"internalType":"address","name":"token","type":"address"}],"name":"SafeERC20FailedOperation","type":"error"},{"inputs":[],"name":"TaskAlreadyExists","type":"error"},{"inputs":[],"name":"TaskDoesNotExist","type":"error"},{"inputs":[],"name":"TaskNotClaimed","type":"error"},{"inputs":[],"name":"TaskNotDisputed","type":"error"},{"inputs":[],"name":"TaskNotOpen","type":"error"},{"inputs":[],"name":"TaskNotSubmitted","type":"error"},{"anonymous":false,"inputs":[{"indexed":true,"internalType":"address","name":"agent","type":"address"}],"name":"AgentRegistered","type":"event"},{"anonymous":false,"inputs":[{"indexed":true,"internalType":"bytes32","name":"taskId","type":"bytes32"},{"indexed":true,"internalType":"address","name":"bidder","type":"address"},{"indexed":false,"internalType":"uint256","name":"price","type":"uint256"}],"name":"BidAccepted","type":"event"},{"anonymous":false,"inputs":[{"indexed":true,"internalType":"bytes32","name":"taskId","type":"bytes32"},{"indexed":false,"internalType":"bytes32","name":"deliverableHash","type":"bytes32"}],"name":"DeliverableSubmitted","type":"event"},{"anonymous":false,"inputs":[{"indexed":true,"internalType":"bytes32","name":"taskId","type":"bytes32"},{"indexed":false,"internalType":"uint256","name":"posterShare","type":"uint256"},{"indexed":false,"internalType":"uint256","name":"workerShare","type":"uint256"}],"name":"DisputeResolved","type":"event"},{"anonymous":false,"inputs":[{"indexed":false,"internalType":"address","name":"oldRecipient","type":"address"},{"indexed":false,"internalType":"address","name":"newRecipient","type":"address"}],"name":"FeeRecipientUpdated","type":"event"},{"anonymous":false,"inputs":[{"indexed":false,"internalType":"uint256","name":"oldFeeBps","type":"uint256"},{"indexed":false,"internalType":"uint256","name":"newFeeBps","type":"uint256"}],"name":"FeeUpdated","type":"event"},{"anonymous":false,"inputs":[{"indexed":true,"internalType":"address","name":"previousOwner","type":"address"},{"indexed":true,"internalType":"address","name":"newOwner","type":"address"}],"name":"OwnershipTransferred","type":"event"},{"anonymous":false,"inputs":[{"indexed":false,"internalType":"address","name":"account","type":"address"}],"name":"Paused","type":"event"},{"anonymous":false,"inputs":[{"indexed":true,"internalType":"bytes32","name":"parentTaskId","type":"bytes32"},{"indexed":true,"internalType":"bytes32","name":"subtaskId","type":"bytes32"},{"indexed":true,"internalType":"address","name":"creator","type":"address"},{"indexed":false,"internalType":"uint256","name":"bounty","type":"uint256"}],"name":"SubtaskCreated","type":"event"},{"anonymous":false,"inputs":[{"indexed":true,"internalType":"bytes32","name":"taskId","type":"bytes32"},{"indexed":true,"internalType":"address","name":"worker","type":"address"},{"indexed":false,"internalType":"uint256","name":"workerPayout","type":"uint256"},{"indexed":false,"internalType":"uint256","name":"platformFee","type":"uint256"}],"name":"TaskApproved","type":"event"},{"anonymous":false,"inputs":[{"indexed":true,"internalType":"bytes32","name":"taskId","type":"bytes32"},{"indexed":true,"internalType":"address","name":"bidder","type":"address"},{"indexed":false,"internalType":"uint256","name":"price","type":"uint256"},{"indexed":false,"internalType":"uint256","name":"estimatedTime","type":"uint256"}],"name":"TaskBid","type":"event"},{"anonymous":false,"inputs":[{"indexed":true,"internalType":"bytes32","name":"taskId","type":"bytes32"},{"indexed":true,"internalType":"address","name":"poster","type":"address"}],"name":"TaskCancelled","type":"event"},{"anonymous":false,"inputs":[{"indexed":true,"internalType":"bytes32","name":"taskId","type":"bytes32"},{"indexed":true,"internalType":"address","name":"worker","type":"address"}],"name":"TaskClaimed","type":"event"},{"anonymous":false,"inputs":[{"indexed":true,"internalType":"bytes32","name":"taskId","type":"bytes32"},{"indexed":true,"internalType":"address","name":"poster","type":"address"},{"indexed":false,"internalType":"uint256","name":"bounty","type":"uint256"},{"indexed":false,"internalType":"bytes32","name":"parentTaskId","type":"bytes32"}],"name":"TaskCreated","type":"event"},{"anonymous":false,"inputs":[{"indexed":true,"internalType":"bytes32","name":"taskId","type":"bytes32"}],"name":"TaskDisputed","type":"event"},{"anonymous":false,"inputs":[{"indexed":true,"internalType":"bytes32","name":"taskId","type":"bytes32"},{"indexed":true,"internalType":"address","name":"poster","type":"address"},{"indexed":false,"internalType":"uint256","name":"amount","type":"uint256"}],"name":"TaskRefunded","type":"event"},{"anonymous":false,"inputs":[{"indexed":false,"internalType":"address","name":"account","type":"address"}],"name":"Unpaused","type":"event"},{"inputs":[],"name":"BPS_DENOMINATOR","outputs":[{"internalType":"uint256","name":"","type":"uint256"}],"stateMutability":"view","type":"function"},{"inputs":[],"name":"MAX_FEE_BPS","outputs":[{"internalType":"uint256","name":"","type":"uint256"}],"stateMutability":"view","type":"function"},{"inputs":[{"internalType":"bytes32","name":"taskId","type":"bytes32"},{"internalType":"address","name":"bidder","type":"address"}],"name":"acceptBid","outputs":[],"stateMutability":"nonpayable","type":"function"},{"inputs":[{"internalType":"address","name":"","type":"address"},{"internalType":"uint256","name":"","type":"uint256"}],"name":"agentTasksCompleted","outputs":[{"internalType":"bytes32","name":"","type":"bytes32"}],"stateMutability":"view","type":"function"},{"inputs":[{"internalType":"address","name":"","type":"address"},{"internalType":"uint256","name":"","type":"uint256"}],"name":"agentTasksPosted","outputs":[{"internalType":"bytes32","name":"","type":"bytes32"}],"stateMutability":"view","type":"function"},{"inputs":[{"internalType":"bytes32","name":"taskId","type":"bytes32"}],"name":"approveTask","outputs":[],"stateMutability":"nonpayable","type":"function"},{"inputs":[{"internalType":"bytes32","name":"taskId","type":"bytes32"}],"name":"autoApprove","outputs":[],"stateMutability":"nonpayable","type":"function"},{"inputs":[],"name":"autoApproveWindow","outputs":[{"internalType":"uint256","name":"","type":"uint256"}],"stateMutability":"view","type":"function"},{"inputs":[{"internalType":"bytes32","name":"taskId","type":"bytes32"},{"internalType":"uint256","name":"price","type":"uint256"},{"internalType":"uint256","name":"estimatedTime","type":"uint256"}],"name":"bidOnTask","outputs":[],"stateMutability":"nonpayable","type":"function"},{"inputs":[{"internalType":"bytes32","name":"taskId","type":"bytes32"}],"name":"cancelTask","outputs":[],"stateMutability":"nonpayable","type":"function"},{"inputs":[{"internalType":"bytes32","name":"taskId","type":"bytes32"}],"name":"claimTask","outputs":[],"stateMutability":"nonpayable","type":"function"},{"inputs":[],"name":"claimTimeout","outputs":[{"internalType":"uint256","name":"","type":"uint256"}],"stateMutability":"view","type":"function"},{"inputs":[{"internalType":"bytes32","name":"parentTaskId","type":"bytes32"},{"internalType":"bytes32","name":"subtaskId","type":"bytes32"},{"internalType":"uint256","name":"bountyAmount","type":"uint256"}],"name":"createSubtask","outputs":[],"stateMutability":"nonpayable","type":"function"},{"inputs":[{"internalType":"bytes32","name":"taskId","type":"bytes32"},{"internalType":"uint256","name":"bountyAmount","type":"uint256"}],"name":"createTask","outputs":[],"stateMutability":"nonpayable","type":"function"},{"inputs":[],"name":"disputePosterShareBps","outputs":[{"internalType":"uint256","name":"","type":"uint256"}],"stateMutability":"view","type":"function"},{"inputs":[{"internalType":"bytes32","name":"taskId","type":"bytes32"}],"name":"disputeTask","outputs":[],"stateMutability":"nonpayable","type":"function"},{"inputs":[],"name":"disputeWindow","outputs":[{"internalType":"uint256","name":"","type":"uint256"}],"stateMutability":"view","type":"function"},{"inputs":[],"name":"feeRecipient","outputs":[{"internalType":"address","name":"","type":"address"}],"stateMutability":"view","type":"function"},{"inputs":[{"internalType":"address","name":"agent","type":"address"}],"name":"getAgentCompletedTasks","outputs":[{"internalType":"bytes32[]","name":"","type":"bytes32[]"}],"stateMutability":"view","type":"function"},{"inputs":[{"internalType":"address","name":"agent","type":"address"}],"name":"getAgentPostedTasks","outputs":[{"internalType":"bytes32[]","name":"","type":"bytes32[]"}],"stateMutability":"view","type":"function"},{"inputs":[{"internalType":"address","name":"agent","type":"address"}],"name":"getAgentTier","outputs":[{"internalType":"uint8","name":"tier","type":"uint8"}],"stateMutability":"view","type":"function"},{"inputs":[{"internalType":"bytes32","name":"taskId","type":"bytes32"},{"internalType":"address","name":"bidder","type":"address"}],"name":"getBid","outputs":[{"components":[{"internalType":"address","name":"bidder","type":"address"},{"internalType":"uint256","name":"price","type":"uint256"},{"internalType":"uint256","name":"estimatedTime","type":"uint256"},{"internalType":"uint256","name":"timestamp","type":"uint256"},{"internalType":"bool","name":"accepted","type":"bool"}],"internalType":"struct TaskEscrow.Bid","name":"","type":"tuple"}],"stateMutability":"view","type":"function"},{"inputs":[{"internalType":"address","name":"agent","type":"address"}],"name":"getReputation","outputs":[{"components":[{"internalType":"uint256","name":"tasksCompleted","type":"uint256"},{"internalType":"uint256","name":"tasksPosted","type":"uint256"},{"internalType":"uint256","name":"totalEarned","type":"uint256"},{"internalType":"uint256","name":"totalSpent","type":"uint256"},{"internalType":"uint256","name":"disputesAsWorker","type":"uint256"},{"internalType":"uint256","name":"disputesAsPoster","type":"uint256"},{"internalType":"uint256","name":"registeredAt","type":"uint256"}],"internalType":"struct TaskEscrow.AgentReputation","name":"","type":"tuple"}],"stateMutability":"view","type":"function"},{"inputs":[],"name":"getStats","outputs":[{"internalType":"uint256","name":"tasksCreated","type":"uint256"},{"internalType":"uint256","name":"tasksCompleted","type":"uint256"},{"internalType":"uint256","name":"volumeUsdc","type":"uint256"},{"internalType":"uint256","name":"feesCollected","type":"uint256"},{"internalType":"uint256","name":"currentFeeBps","type":"uint256"},{"internalType":"uint256","name":"registeredAgents","type":"uint256"}],"stateMutability":"view","type":"function"},{"inputs":[{"internalType":"bytes32","name":"parentTaskId","type":"bytes32"}],"name":"getSubtasks","outputs":[{"internalType":"bytes32[]","name":"","type":"bytes32[]"}],"stateMutability":"view","type":"function"},{"inputs":[{"internalType":"bytes32","name":"taskId","type":"bytes32"}],"name":"getTask","outputs":[{"components":[{"internalType":"address","name":"poster","type":"address"},{"internalType":"address","name":"worker","type":"address"},{"internalType":"uint256","name":"bounty","type":"uint256"},{"internalType":"uint256","name":"agreedPrice","type":"uint256"},{"internalType":"enum TaskEscrow.Status","name":"status","type":"uint8"},{"internalType":"bytes32","name":"deliverableHash","type":"bytes32"},{"internalType":"uint256","name":"createdAt","type":"uint256"},{"internalType":"uint256","name":"claimedAt","type":"uint256"},{"internalType":"uint256","name":"submittedAt","type":"uint256"},{"internalType":"bytes32","name":"parentTaskId","type":"bytes32"},{"internalType":"uint256","name":"bidCount","type":"uint256"}],"internalType":"struct TaskEscrow.Task","name":"","type":"tuple"}],"stateMutability":"view","type":"function"},{"inputs":[{"internalType":"bytes32","name":"taskId","type":"bytes32"}],"name":"getTaskBids","outputs":[{"internalType":"address[]","name":"bidders","type":"address[]"},{"components":[{"internalType":"address","name":"bidder","type":"address"},{"internalType":"uint256","name":"price","type":"uint256"},{"internalType":"uint256","name":"estimatedTime","type":"uint256"},{"internalType":"uint256","name":"timestamp","type":"uint256"},{"internalType":"bool","name":"accepted","type":"bool"}],"internalType":"struct TaskEscrow.Bid[]","name":"bids","type":"tuple[]"}],"stateMutability":"view","type":"function"},{"inputs":[],"name":"owner","outputs":[{"internalType":"address","name":"","type":"address"}],"stateMutability":"view","type":"function"},{"inputs":[],"name":"pause","outputs":[],"stateMutability":"nonpayable","type":"function"},{"inputs":[],"name":"paused","outputs":[{"internalType":"bool","name":"","type":"bool"}],"stateMutability":"view","type":"function"},{"inputs":[],"name":"platformFeeBps","outputs":[{"internalType":"uint256","name":"","type":"uint256"}],"stateMutability":"view","type":"function"},{"inputs":[{"internalType":"bytes32","name":"taskId","type":"bytes32"}],"name":"refund","outputs":[],"stateMutability":"nonpayable","type":"function"},{"inputs":[],"name":"renounceOwnership","outputs":[],"stateMutability":"nonpayable","type":"function"},{"inputs":[{"internalType":"address","name":"","type":"address"}],"name":"reputation","outputs":[{"internalType":"uint256","name":"tasksCompleted","type":"uint256"},{"internalType":"uint256","name":"tasksPosted","type":"uint256"},{"internalType":"uint256","name":"totalEarned","type":"uint256"},{"internalType":"uint256","name":"totalSpent","type":"uint256"},{"internalType":"uint256","name":"disputesAsWorker","type":"uint256"},{"internalType":"uint256","name":"disputesAsPoster","type":"uint256"},{"internalType":"uint256","name":"registeredAt","type":"uint256"}],"stateMutability":"view","type":"function"},{"inputs":[{"internalType":"bytes32","name":"taskId","type":"bytes32"}],"name":"resolveDispute","outputs":[],"stateMutability":"nonpayable","type":"function"},{"inputs":[{"internalType":"uint256","name":"newWindow","type":"uint256"}],"name":"setAutoApproveWindow","outputs":[],"stateMutability":"nonpayable","type":"function"},{"inputs":[{"internalType":"uint256","name":"newTimeout","type":"uint256"}],"name":"setClaimTimeout","outputs":[],"stateMutability":"nonpayable","type":"function"},{"inputs":[{"internalType":"uint256","name":"newPosterShareBps","type":"uint256"}],"name":"setDisputeSplit","outputs":[],"stateMutability":"nonpayable","type":"function"},{"inputs":[{"internalType":"uint256","name":"newWindow","type":"uint256"}],"name":"setDisputeWindow","outputs":[],"stateMutability":"nonpayable","type":"function"},{"inputs":[{"internalType":"uint256","name":"newFeeBps","type":"uint256"}],"name":"setFee","outputs":[],"stateMutability":"nonpayable","type":"function"},{"inputs":[{"internalType":"address","name":"newRecipient","type":"address"}],"name":"setFeeRecipient","outputs":[],"stateMutability":"nonpayable","type":"function"},{"inputs":[{"internalType":"bytes32","name":"taskId","type":"bytes32"},{"internalType":"bytes32","name":"deliverableHash","type":"bytes32"}],"name":"submitDeliverable","outputs":[],"stateMutability":"nonpayable","type":"function"},{"inputs":[{"internalType":"bytes32","name":"","type":"bytes32"},{"internalType":"uint256","name":"","type":"uint256"}],"name":"subtasks","outputs":[{"internalType":"bytes32","name":"","type":"bytes32"}],"stateMutability":"view","type":"function"},{"inputs":[{"internalType":"bytes32","name":"","type":"bytes32"},{"internalType":"uint256","name":"","type":"uint256"}],"name":"taskBidders","outputs":[{"internalType":"address","name":"","type":"address"}],"stateMutability":"view","type":"function"},{"inputs":[{"internalType":"bytes32","name":"","type":"bytes32"},{"internalType":"address","name":"","type":"address"}],"name":"taskBids","outputs":[{"internalType":"address","name":"bidder","type":"address"},{"internalType":"uint256","name":"price","type":"uint256"},{"internalType":"uint256","name":"estimatedTime","type":"uint256"},{"internalType":"uint256","name":"timestamp","type":"uint256"},{"internalType":"bool","name":"accepted","type":"bool"}],"stateMutability":"view","type":"function"},{"inputs":[{"internalType":"bytes32","name":"","type":"bytes32"}],"name":"tasks","outputs":[{"internalType":"address","name":"poster","type":"address"},{"internalType":"address","name":"worker","type":"address"},{"internalType":"uint256","name":"bounty","type":"uint256"},{"internalType":"uint256","name":"agreedPrice","type":"uint256"},{"internalType":"enum TaskEscrow.Status","name":"status","type":"uint8"},{"internalType":"bytes32","name":"deliverableHash","type":"bytes32"},{"internalType":"uint256","name":"createdAt","type":"uint256"},{"internalType":"uint256","name":"claimedAt","type":"uint256"},{"internalType":"uint256","name":"submittedAt","type":"uint256"},{"internalType":"bytes32","name":"parentTaskId","type":"bytes32"},{"internalType":"uint256","name":"bidCount","type":"uint256"}],"stateMutability":"view","type":"function"},{"inputs":[],"name":"totalAgents","outputs":[{"internalType":"uint256","name":"","type":"uint256"}],"stateMutability":"view","type":"function"},{"inputs":[],"name":"totalFeesCollected","outputs":[{"internalType":"uint256","name":"","type":"uint256"}],"stateMutability":"view","type":"function"},{"inputs":[],"name":"totalTasksCompleted","outputs":[{"internalType":"uint256","name":"","type":"uint256"}],"stateMutability":"view","type":"function"},{"inputs":[],"name":"totalTasksCreated","outputs":[{"internalType":"uint256","name":"","type":"uint256"}],"stateMutability":"view","type":"function"},{"inputs":[],"name":"totalVolumeUsdc","outputs":[{"internalType":"uint256","name":"","type":"uint256"}],"stateMutability":"view","type":"function"},{"inputs":[{"internalType":"address","name":"newOwner","type":"address"}],"name":"transferOwnership","outputs":[],"stateMutability":"nonpayable","type":"function"},{"inputs":[],"name":"unpause","outputs":[],"stateMutability":"nonpayable","type":"function"},{"inputs":[],"name":"usdc","outputs":[{"internalType":"contract IERC20","name":"","type":"address"}],"stateMutability":"view","type":"function"}],"evm":{"bytecode":{"linkReferences":{},"object":"60a060405260fa60025562093a806010556203f48060115562127500601255611b5860135534801562000030575f80fd5b5060405162002d0c38038062002d0c8339810160408190526200005391620001d0565b60015f5533806200007e57604051631e4fbdf760e01b81525f60048201526024015b60405180910390fd5b620000898162000163565b506001600160a01b038216620000e25760405162461bcd60e51b815260206004820152601460248201527f496e76616c696420555344432061646472657373000000000000000000000000604482015260640162000075565b6001600160a01b0381166200013a5760405162461bcd60e51b815260206004820152601560248201527f496e76616c69642066656520726563697069656e740000000000000000000000604482015260640162000075565b6001600160a01b03918216608052600380546001600160a01b0319169190921617905562000206565b600180546001600160a01b038381166001600160a01b0319831681179093556040519116919082907f8be0079c531659141344cd1fd0a4f28419497f9722a3daafe3b4186f6b6457e0905f90a35050565b80516001600160a01b0381168114620001cb575f80fd5b919050565b5f8060408385031215620001e2575f80fd5b620001ed83620001b4565b9150620001fd60208401620001b4565b90509250929050565b608051612ab5620002575f395f8181610404015281816110590152818161125b015281816116b4015281816116f601528181611c9e01528181611fa001528181611ff3015261220d0152612ab55ff3fe608060405234801561000f575f80fd5b5060043610610333575f3560e01c80638deff864116101af578063c8218e3e116100fe578063e74b981b1161009e578063f08f6ea011610079578063f08f6ea0146108cf578063f2444b0d146108e2578063f2fde38b146108f5578063fd4df69b14610908575f80fd5b8063e74b981b14610896578063e7a5b4ea146108a9578063ee8ca3b5146108bc575f80fd5b8063d4fa5d61116100d9578063d4fa5d61146107e3578063d55be8c6146107f6578063e1a45218146107ff578063e579f50014610808575f80fd5b8063c8218e3e1461079d578063d0ba5264146107b0578063d46600aa146107d0575f80fd5b8063b9f7945111610169578063bbacc59111610144578063bbacc5911461072f578063be909bb914610742578063c505371214610755578063c59d48471461075e575f80fd5b8063b9f7945114610603578063ba4852b614610682578063bb5b93b5146106a7575f80fd5b80638deff864146105465780639bbeabda146105595780639c89a0e2146105625780639eabd40c146105ca5780639eac6099146105dd578063a5aed1ad146105f0575f80fd5b806346904840116102855780636fbb5f62116102255780637249fbb6116102005780637249fbb6146105075780638456cb591461051a578063888a7934146105225780638da5cb5b14610535575f80fd5b80636fbb5f62146104d957806370f8c6f9146104ec578063715018a6146104ff575f80fd5b806364a0c3f51161026057806364a0c3f51461047f57806367e2fe9c146104a057806369fe0e2d146104b35780636c51c0f1146104c6575f80fd5b806346904840146104465780635c975abb1461045957806360c6d8ae14610476575f80fd5b806315a29035116102f05780632b0cd42a116102cb5780632b0cd42a146103d9578063332226d0146103ec5780633e413bee146103ff5780633f4ba83a1461043e575f80fd5b806315a29035146103a757806322dcd13e146103c757806324dd2893146103d0575f80fd5b806308abfe9f146103375780630ccce304146103605780630e1da6c314610375578063108ab45e1461038c578063117f5f921461039557806313578c371461039e575b5f80fd5b61034a6103453660046126ad565b610911565b60405161035791906126cd565b60405180910390f35b61037361036e366004612710565b61097a565b005b61037e60105481565b604051908152602001610357565b61037e600c5481565b61037e60115481565b61037e60135481565b6103ba6103b5366004612710565b610a11565b604051610357919061275b565b61037e60025481565b61037e600d5481565b6103736103e7366004612710565b610b2c565b6103736103fa366004612710565b610b5c565b6104267f000000000000000000000000000000000000000000000000000000000000000081565b6040516001600160a01b039091168152602001610357565b610373610b69565b600354610426906001600160a01b031681565b600154600160a01b900460ff166040519015158152602001610357565b61037e600e5481565b61049261048d366004612710565b610b7b565b60405161035792919061282f565b61034a6104ae3660046126ad565b610d0b565b6103736104c1366004612710565b610d72565b61034a6104d4366004612710565b610de3565b6103736104e73660046128bb565b610e40565b6103736104fa366004612710565b610e68565b610373610f84565b610373610515366004612710565b610f95565b6103736110de565b6103736105303660046128db565b6110ee565b6001546001600160a01b0316610426565b61037e610554366004612905565b61130e565b61037e60125481565b6105756105703660046126ad565b611339565b60405161035791905f60e082019050825182526020830151602083015260408301516040830152606083015160608301526080830151608083015260a083015160a083015260c083015160c083015292915050565b6104266105d83660046128bb565b6113dd565b6103736105eb366004612710565b611411565b61037e6105fe366004612905565b61141e565b61064d6106113660046126ad565b60086020525f90815260409020805460018201546002830154600384015460048501546005860154600690960154949593949293919290919087565b604080519788526020880196909652948601939093526060850191909152608084015260a083015260c082015260e001610357565b6106956106903660046126ad565b611437565b60405160ff9091168152602001610357565b6106fb6106b53660046128db565b600560209081525f9283526040808420909152908252902080546001820154600283015460038401546004909401546001600160a01b0390931693919290919060ff1685565b604080516001600160a01b03909616865260208601949094529284019190915260608301521515608082015260a001610357565b61037361073d366004612710565b61149b565b61037e6107503660046128bb565b6115ec565b61037e600f5481565b600b54600c54600d54600e54600254600f54604080519687526020870195909552938501929092526060840152608083015260a082015260c001610357565b6103736107ab366004612710565b611605565b6107c36107be3660046128db565b611766565b604051610357919061292d565b6103736107de3660046128bb565b6117d6565b6103736107f136600461293b565b611906565b61037e6103e881565b61037e61271081565b61087f610816366004612710565b600460208190525f918252604090912080546001820154600283015460038401549484015460058501546006860154600787015460088801546009890154600a909901546001600160a01b039889169a9790981698959760ff909516959394929391929091908b565b6040516103579b9a99989796959493929190612964565b6103736108a43660046126ad565b611b4d565b6103736108b7366004612710565b611bd6565b6103736108ca366004612710565b611be3565b6103736108dd366004612710565b611d13565b6103736108f036600461293b565b611d93565b6103736109033660046126ad565b611eb4565b61037e600b5481565b6001600160a01b0381165f908152600a602090815260409182902080548351818402810184019094528084526060939283018282801561096e57602002820191905f5260205f20905b81548152602001906001019080831161095a575b50505050509050919050565b610982611eee565b61098a611f16565b5f8181526004602052604090206002600482015460ff1660068111156109b2576109b2612727565b146109d0576040516315fcfca760e21b815260040160405180910390fd5b80546001600160a01b031633146109fa57604051635085c6a760e01b815260040160405180910390fd5b610a048282611f41565b50610a0e60015f55565b50565b60408051610160810182525f80825260208201819052918101829052606081018290526080810182905260a0810182905260c0810182905260e08101829052610100810182905261012081018290526101408101919091525f8281526004602081815260409283902083516101608101855281546001600160a01b039081168252600183015416928101929092526002810154938201939093526003830154606082015290820154909190608083019060ff166006811115610ad557610ad5612727565b6006811115610ae657610ae6612727565b815260058201546020820152600682015460408201526007820154606082015260088201546080820152600982015460a0820152600a9091015460c09091015292915050565b610b34612129565b612710811115610b575760405163bcd55b0f60e01b815260040160405180910390fd5b601355565b610b64612129565b601155565b610b71612129565b610b79612156565b565b60608060065f8481526020019081526020015f20805480602002602001604051908101604052809291908181526020018280548015610be157602002820191905f5260205f20905b81546001600160a01b03168152600190910190602001808311610bc3575b50505050509150815167ffffffffffffffff811115610c0257610c026129cf565b604051908082528060200260200182016040528015610c3b57816020015b610c2861265d565b815260200190600190039081610c205790505b5090505f5b8251811015610d055760055f8581526020019081526020015f205f848381518110610c6d57610c6d6129e3565b6020908102919091018101516001600160a01b0390811683528282019390935260409182015f20825160a08101845281549094168452600181015491840191909152600281015491830191909152600381015460608301526004015460ff16151560808201528251839083908110610ce757610ce76129e3565b60200260200101819052508080610cfd90612a0b565b915050610c40565b50915091565b6001600160a01b0381165f9081526009602090815260409182902080548351818402810184019094528084526060939283018282801561096e57602002820191905f5260205f209081548152602001906001019080831161095a5750505050509050919050565b610d7a612129565b6103e8811115610d9d5760405163cd4e616760e01b815260040160405180910390fd5b600280549082905560408051828152602081018490527f528d9479e9f9889a87a3c30c7f7ba537e5e59c4c85a37733b16e57c62df6130291015b60405180910390a15050565b5f8181526007602090815260409182902080548351818402810184019094528084526060939283018282801561096e57602002820191905f5260205f209081548152602001906001019080831161095a5750505050509050919050565b610e48611eee565b610e50611f16565b610e5b82825f6121ab565b610e6460015f55565b5050565b610e70611eee565b610e78611f16565b5f81815260046020526040902080546001600160a01b0316610ead5760405163da319dff60e01b815260040160405180910390fd5b5f600482015460ff166006811115610ec757610ec7612727565b14610ee55760405163fe89421760e01b815260040160405180910390fd5b80546001600160a01b03163303610f0f57604051632fc366d560e21b815260040160405180910390fd5b610f183361240d565b600180820180546001600160a01b031916331790556002820154600383015560048201805460ff191682800217905550426007820155604051339083907f0e1f58463da369c5bf09630219fad2558dd2b2ead275c5dc36269b384dc138fe905f90a350610a0e60015f55565b610f8c612129565b610b795f612495565b610f9d611eee565b5f81815260046020526040902080546001600160a01b03163314610fd457604051635085c6a760e01b815260040160405180910390fd5b5f600482015460ff166006811115610fee57610fee612727565b1461100c5760405163781da3af60e11b815260040160405180910390fd5b601054816006015461101e9190612a23565b421161103d5760405163781da3af60e11b815260040160405180910390fd5b60048101805460ff191660051790558054600282015461108c917f00000000000000000000000000000000000000000000000000000000000000006001600160a01b03908116929116906124e6565b805460028201546040519081526001600160a01b039091169083907ff3a7ab0ccbad7f367b7892962016c155d1ce76a3e6fdd0420b5e749763acbda79060200160405180910390a350610a0e60015f55565b6110e6612129565b610b79612545565b6110f6611eee565b6110fe611f16565b5f82815260046020526040902080546001600160a01b03166111335760405163da319dff60e01b815260040160405180910390fd5b5f600482015460ff16600681111561114d5761114d612727565b1461116b5760405163fe89421760e01b815260040160405180910390fd5b80546001600160a01b0316331461119557604051635085c6a760e01b815260040160405180910390fd5b5f8381526005602090815260408083206001600160a01b038087168552925290912080549091166111d9576040516307e0eec960e31b815260040160405180910390fd5b60048181018054600160ff19918216811790925584820180546001600160a01b0319166001600160a01b0388161790558184018054600387015592850180549091169091179055426007840155600283015490541015611286575f816001015483600201546112489190612a36565b8354909150611284906001600160a01b037f000000000000000000000000000000000000000000000000000000000000000081169116836124e6565b505b826001600160a01b0316847f11584506704f1759083d660085355522a050c85b08441c428accd0ce05f9692883600101546040516112c691815260200190565b60405180910390a36040516001600160a01b0384169085907f0e1f58463da369c5bf09630219fad2558dd2b2ead275c5dc36269b384dc138fe905f90a35050610e6460015f55565b6009602052815f5260405f208181548110611327575f80fd5b905f5260205f20015f91509150505481565b6113726040518060e001604052805f81526020015f81526020015f81526020015f81526020015f81526020015f81526020015f81525090565b506001600160a01b03165f90815260086020908152604091829020825160e081018452815481526001820154928101929092526002810154928201929092526003820154606082015260048201546080820152600582015460a082015260069091015460c082015290565b6006602052815f5260405f2081815481106113f6575f80fd5b5f918252602090912001546001600160a01b03169150829050565b611419612129565b601255565b600a602052815f5260405f208181548110611327575f80fd5b6001600160a01b0381165f90815260086020526040812054603281106114605750600492915050565b601e81106114715750600392915050565b600f81106114825750600292915050565b600581106114935750600192915050565b505f92915050565b6114a3611eee565b6114ab611f16565b5f8181526004602052604090206002600482015460ff1660068111156114d3576114d3612727565b146114f1576040516315fcfca760e21b815260040160405180910390fd5b80546001600160a01b0316331461151b57604051635085c6a760e01b815260040160405180910390fd5b601154816008015461152d9190612a23565b42111561154d5760405163234c0ffd60e21b815260040160405180910390fd5b6004818101805460ff1916909117905580546001600160a01b03165f90815260086020526040812060050180549161158483612a0b565b909155505060018101546001600160a01b03165f9081526008602052604081206004018054916115b383612a0b565b909155505060405182907f765b57ef8d3683c90cb2af2cc30b2d34ced9fbbf1e02759c3ef780afed1e8cf4905f90a250610a0e60015f55565b6007602052815f5260405f208181548110611327575f80fd5b61160d611eee565b611615612129565b5f81815260046020819052604090912090600482015460ff16600681111561163f5761163f612727565b1461165d57604051630335c25360e21b815260040160405180910390fd5b60048101805460ff1916600517905560135460038201545f91612710916116849190612a49565b61168e9190612a60565b90505f8183600301546116a19190612a36565b83549091506116dd906001600160a01b037f000000000000000000000000000000000000000000000000000000000000000081169116846124e6565b801561171f57600183015461171f906001600160a01b037f000000000000000000000000000000000000000000000000000000000000000081169116836124e6565b604080518381526020810183905285917f58a2558343c2558557b34020fdd42da40f54056195b7744918f27e2e19adcc12910160405180910390a2505050610a0e60015f55565b61176e61265d565b505f8281526005602090815260408083206001600160a01b03808616855290835292819020815160a08101835281549094168452600181015492840192909252600282015490830152600381015460608301526004015460ff16151560808201525b92915050565b6117de611eee565b6117e6611f16565b5f8281526004602052604090206001600482015460ff16600681111561180e5761180e612727565b1461182c5760405163abbfac0d60e01b815260040160405180910390fd5b60018101546001600160a01b031633146118595760405163e1b1be1960e01b815260040160405180910390fd5b816118ab5760405162461bcd60e51b815260206004820152601860248201527f496e76616c69642064656c6976657261626c652068617368000000000000000060448201526064015b60405180910390fd5b6005810182905560048101805460ff1916600217905542600882015560405182815283907f480da4ccf65f8315cba8ba88ec1e6cdc983d8cff56ccc4c99af625a3c74ce4da9060200160405180910390a250610e6460015f55565b61190e611eee565b611916611f16565b5f83815260046020526040902080546001600160a01b031661194b5760405163da319dff60e01b815260040160405180910390fd5b5f600482015460ff16600681111561196557611965612727565b146119835760405163fe89421760e01b815260040160405180910390fd5b80546001600160a01b031633036119ad57604051632fc366d560e21b815260040160405180910390fd5b825f036119cd5760405163aa04eead60e01b815260040160405180910390fd5b80600201548311156119f2576040516309f44ed760e21b815260040160405180910390fd5b5f8481526005602090815260408083203384529091529020546001600160a01b031615611a3257604051630b8cee9f60e41b815260040160405180910390fd5b611a3b3361240d565b6040805160a08101825233808252602080830187815283850187815242606086019081525f608087018181528c8252600586528882208783528652888220975188546001600160a01b03919091166001600160a01b03199182161789559451600189810191909155935160028901559151600388015590516004909601805496151560ff199097169690961790955589855260068352948420805495860181558452908320909301805490931617909155600a8201805491611afc83612a0b565b90915550506040805184815260208101849052339186917fef6d2c268e6c826f1b828eb961b739407d952aa5104e66b5ea600f36f7f0f21a910160405180910390a350611b4860015f55565b505050565b611b55612129565b6001600160a01b038116611b7c57604051630ed1b8b360e31b815260040160405180910390fd5b600380546001600160a01b038381166001600160a01b031983168117909355604080519190921680825260208201939093527faaebcf1bfa00580e41d966056b48521fa9f202645c86d4ddf28113e617c1b1d39101610dd7565b611bde612129565b601055565b611beb611eee565b5f81815260046020526040902080546001600160a01b0316611c205760405163da319dff60e01b815260040160405180910390fd5b5f600482015460ff166006811115611c3a57611c3a612727565b14611c585760405163fe89421760e01b815260040160405180910390fd5b80546001600160a01b03163314611c8257604051635085c6a760e01b815260040160405180910390fd5b60048101805460ff1916600617905580546002820154611cd1917f00000000000000000000000000000000000000000000000000000000000000006001600160a01b03908116929116906124e6565b80546040516001600160a01b039091169083907f44d83729a43f9c6046446df014d073dd242e0ad672071e9b292f31b669c25b09905f90a350610a0e60015f55565b611d1b611eee565b5f8181526004602052604090206002600482015460ff166006811115611d4357611d43612727565b14611d61576040516315fcfca760e21b815260040160405180910390fd5b6012548160080154611d739190612a23565b4210156109fa57604051630e05d40360e41b815260040160405180910390fd5b611d9b611eee565b611da3611f16565b5f83815260046020526040902080546001600160a01b0316611dd85760405163da319dff60e01b815260040160405180910390fd5b60018101546001600160a01b03163314611e055760405163d6b2f97f60e01b815260040160405180910390fd5b6001600482015460ff166006811115611e2057611e20612727565b14611e3e5760405163abbfac0d60e01b815260040160405180910390fd5b611e498383866121ab565b5f84815260076020908152604080832080546001810182559084529190922001849055513390849086907fa8fbc1664833c0000ec4104c2d4e046afdef3f29bd44b36be042a0110eb4548290611ea29087815260200190565b60405180910390a450611b4860015f55565b611ebc612129565b6001600160a01b038116611ee557604051631e4fbdf760e01b81525f60048201526024016118a2565b610a0e81612495565b60025f5403611f1057604051633ee5aeb560e01b815260040160405180910390fd5b60025f55565b600154600160a01b900460ff1615610b795760405163d93c066560e01b815260040160405180910390fd5b60048101805460ff19166003908117909155600254908201545f9161271091611f6a9190612a49565b611f749190612a60565b90505f818360030154611f879190612a36565b90508115611fe057600354611fc9906001600160a01b037f000000000000000000000000000000000000000000000000000000000000000081169116846124e6565b81600e5f828254611fda9190612a23565b90915550505b600183015461201c906001600160a01b037f000000000000000000000000000000000000000000000000000000000000000081169116836124e6565b60018301546001600160a01b03165f90815260086020526040812080549161204383612a0b565b909155505060018301546001600160a01b03165f9081526008602052604081206002018054839290612076908490612a23565b90915550506001808401546001600160a01b03165f90815260096020908152604082208054938401815582528120909101859055600c8054916120b883612a0b565b91905055508260030154600d5f8282546120d29190612a23565b9091555050600183015460408051838152602081018590526001600160a01b039092169186917fe5e356644794526fe6ef15b4a65ccbc570eea7f640ea5d636d2b74776c501fa7910160405180910390a350505050565b6001546001600160a01b03163314610b795760405163118cdaa760e01b81523360048201526024016118a2565b61215e612588565b6001805460ff60a01b191690557f5db9ee0a495bf2e6ff9c91a7834c1ba4fdd244a5e8aa4e537bd38aeae4b073aa335b6040516001600160a01b03909116815260200160405180910390a1565b5f838152600460205260409020546001600160a01b0316156121e05760405163f2e16b0360e01b815260040160405180910390fd5b815f036122005760405163ce8338ed60e01b815260040160405180910390fd5b6122356001600160a01b037f0000000000000000000000000000000000000000000000000000000000000000163330856125b2565b60408051610160810182523381525f6020808301828152838501878152606085018881526080860185815260a087018690524260c088015260e087018690526101008701869052610120870189905261014087018690528a865260049485905296909420855181546001600160a01b03199081166001600160a01b039283161783559351600180840180549096169190921617909355905160028201559251600384015593519082018054939492939192909160ff1916908360068111156122ff576122ff612727565b021790555060a0820151600582015560c0820151600682015560e082015160078201556101008201516008820155610120820151600982015561014090910151600a9091015561234e3361240d565b335f90815260086020526040812060010180549161236b83612a0b565b9091555050335f9081526008602052604081206003018054849290612391908490612a23565b9091555050335f908152600a602090815260408220805460018101825590835290822001849055600b8054916123c683612a0b565b90915550506040805183815260208101839052339185917f2b6d0a485834bbf18c00f1c929f83b527c3d517653ad7206e356af51190e9b36910160405180910390a3505050565b6001600160a01b0381165f908152600860205260408120600601549003610a0e576001600160a01b0381165f90815260086020526040812042600690910155600f80549161245a83612a0b565b90915550506040516001600160a01b038216907f82d0829d9d481e4cb9913897f9b9c903271c4db68c7b3324071d2a7e3b2c5ff0905f90a250565b600180546001600160a01b038381166001600160a01b0319831681179093556040519116919082907f8be0079c531659141344cd1fd0a4f28419497f9722a3daafe3b4186f6b6457e0905f90a35050565b6040516001600160a01b03838116602483015260448201839052611b4891859182169063a9059cbb906064015b604051602081830303815290604052915060e01b6020820180516001600160e01b0383818316178352505050506125f1565b61254d611f16565b6001805460ff60a01b1916600160a01b1790557f62e78cea01bee320cd4e420270b5ea74000d11b0c9f74754ebdbfc544b05a25861218e3390565b600154600160a01b900460ff16610b7957604051638dfc202b60e01b815260040160405180910390fd5b6040516001600160a01b0384811660248301528381166044830152606482018390526125eb9186918216906323b872dd90608401612513565b50505050565b5f8060205f8451602086015f885af180612610576040513d5f823e3d81fd5b50505f513d91508115612627578060011415612634565b6001600160a01b0384163b155b156125eb57604051635274afe760e01b81526001600160a01b03851660048201526024016118a2565b6040518060a001604052805f6001600160a01b031681526020015f81526020015f81526020015f81526020015f151581525090565b80356001600160a01b03811681146126a8575f80fd5b919050565b5f602082840312156126bd575f80fd5b6126c682612692565b9392505050565b602080825282518282018190525f9190848201906040850190845b81811015612704578351835292840192918401916001016126e8565b50909695505050505050565b5f60208284031215612720575f80fd5b5035919050565b634e487b7160e01b5f52602160045260245ffd5b6007811061275757634e487b7160e01b5f52602160045260245ffd5b9052565b81516001600160a01b031681526101608101602083015161278760208401826001600160a01b03169052565b50604083015160408301526060830151606083015260808301516127ae608084018261273b565b5060a083015160a083015260c083015160c083015260e083015160e083015261010080840151818401525061012080840151818401525061014080840151818401525092915050565b80516001600160a01b031682526020808201519083015260408082015190830152606080820151908301526080908101511515910152565b604080825283519082018190525f906020906060840190828701845b828110156128705781516001600160a01b03168452928401929084019060010161284b565b505050838103828501528451808252858301918301905f5b818110156128ae5761289b8385516127f7565b9284019260a09290920191600101612888565b5090979650505050505050565b5f80604083850312156128cc575f80fd5b50508035926020909101359150565b5f80604083850312156128ec575f80fd5b823591506128fc60208401612692565b90509250929050565b5f8060408385031215612916575f80fd5b61291f83612692565b946020939093013593505050565b60a081016117d082846127f7565b5f805f6060848603121561294d575f80fd5b505081359360208301359350604090920135919050565b6001600160a01b038c811682528b166020820152604081018a9052606081018990526101608101612998608083018a61273b565b8760a08301528660c08301528560e08301528461010083015283610120830152826101408301529c9b505050505050505050505050565b634e487b7160e01b5f52604160045260245ffd5b634e487b7160e01b5f52603260045260245ffd5b634e487b7160e01b5f52601160045260245ffd5b5f60018201612a1c57612a1c6129f7565b5060010190565b808201808211156117d0576117d06129f7565b818103818111156117d0576117d06129f7565b80820281158282048414176117d0576117d06129f7565b5f82612a7a57634e487b7160e01b5f52601260045260245ffd5b50049056fea26469706673582212203a448ecac39c1a8c9e435e78b202e8a549171d42ea0bf7dee601ddc5a65b569564736f6c63430008140033","opcodes":"PUSH1 0xA0 PUSH1 0x40 MSTORE PUSH1 0xFA PUSH1 0x2 SSTORE PUSH3 0x93A80 PUSH1 0x10 SSTORE PUSH3 0x3F480 PUSH1 0x11 SSTORE PUSH3 0x127500 PUSH1 0x12 SSTORE PUSH2 0x1B58 PUSH1 0x13 SSTORE CALLVALUE DUP1 ISZERO PUSH3 0x30 JUMPI PUSH0 DUP1 REVERT JUMPDEST POP PUSH1 0x40 MLOAD PUSH3 0x2D0C CODESIZE SUB DUP1 PUSH3 0x2D0C DUP4 CODECOPY DUP2 ADD PUSH1 0x40 DUP2 SWAP1 MSTORE PUSH3 0x53 SWAP2 PUSH3 0x1D0 JUMP JUMPDEST PUSH1 0x1 PUSH0 SSTORE CALLER DUP1 PUSH3 0x7E JUMPI PUSH1 0x40 MLOAD PUSH4 0x1E4FBDF7 PUSH1 0xE0 SHL DUP2 MSTORE PUSH0 PUSH1 0x4 DUP3 ADD MSTORE PUSH1 0x24 ADD JUMPDEST PUSH1 0x40 MLOAD DUP1 SWAP2 SUB SWAP1 REVERT JUMPDEST PUSH3 0x89 DUP2 PUSH3 0x163 JUMP JUMPDEST POP PUSH1 0x1 PUSH1 0x1 PUSH1 0xA0 SHL SUB DUP3 AND PUSH3 0xE2 JUMPI PUSH1 0x40 MLOAD PUSH3 0x461BCD PUSH1 0xE5 SHL DUP2 MSTORE PUSH1 0x20 PUSH1 0x4 DUP3 ADD MSTORE PUSH1 0x14 PUSH1 0x24 DUP3 ADD MSTORE PUSH32 0x496E76616C696420555344432061646472657373000000000000000000000000 PUSH1 0x44 DUP3 ADD MSTORE PUSH1 0x64 ADD PUSH3 0x75 JUMP JUMPDEST PUSH1 0x1 PUSH1 0x1 PUSH1 0xA0 SHL SUB DUP2 AND PUSH3 0x13A JUMPI PUSH1 0x40 MLOAD PUSH3 0x461BCD PUSH1 0xE5 SHL DUP2 MSTORE PUSH1 0x20 PUSH1 0x4 DUP3 ADD MSTORE PUSH1 0x15 PUSH1 0x24 DUP3 ADD MSTORE PUSH32 0x496E76616C69642066656520726563697069656E740000000000000000000000 PUSH1 0x44 DUP3 ADD MSTORE PUSH1 0x64 ADD PUSH3 0x75 JUMP JUMPDEST PUSH1 0x1 PUSH1 0x1 PUSH1 0xA0 SHL SUB SWAP2 DUP3 AND PUSH1 0x80 MSTORE PUSH1 0x3 DUP1 SLOAD PUSH1 0x1 PUSH1 0x1 PUSH1 0xA0 SHL SUB NOT AND SWAP2 SWAP1 SWAP3 AND OR SWAP1 SSTORE PUSH3 0x206 JUMP JUMPDEST PUSH1 0x1 DUP1 SLOAD PUSH1 0x1 PUSH1 0x1 PUSH1 0xA0 SHL SUB DUP4 DUP2 AND PUSH1 0x1 PUSH1 0x1 PUSH1 0xA0 SHL SUB NOT DUP4 AND DUP2 OR SWAP1 SWAP4 SSTORE PUSH1 0x40 MLOAD SWAP2 AND SWAP2 SWAP1 DUP3 SWAP1 PUSH32 0x8BE0079C531659141344CD1FD0A4F28419497F9722A3DAAFE3B4186F6B6457E0 SWAP1 PUSH0 SWAP1 LOG3 POP POP JUMP JUMPDEST DUP1 MLOAD PUSH1 0x1 PUSH1 0x1 PUSH1 0xA0 SHL SUB DUP2 AND DUP2 EQ PUSH3 0x1CB JUMPI PUSH0 DUP1 REVERT JUMPDEST SWAP2 SWAP1 POP JUMP JUMPDEST PUSH0 DUP1 PUSH1 0x40 DUP4 DUP6 SUB SLT ISZERO PUSH3 0x1E2 JUMPI PUSH0 DUP1 REVERT JUMPDEST PUSH3 0x1ED DUP4 PUSH3 0x1B4 JUMP JUMPDEST SWAP2 POP PUSH3 0x1FD PUSH1 0x20 DUP5 ADD PUSH3 0x1B4 JUMP JUMPDEST SWAP1 POP SWAP3 POP SWAP3 SWAP1 POP JUMP JUMPDEST PUSH1 0x80 MLOAD PUSH2 0x2AB5 PUSH3 0x257 PUSH0 CODECOPY PUSH0 DUP2 DUP2 PUSH2 0x404 ADD MSTORE DUP2 DUP2 PUSH2 0x1059 ADD MSTORE DUP2 DUP2 PUSH2 0x125B ADD MSTORE DUP2 DUP2 PUSH2 0x16B4 ADD MSTORE DUP2 DUP2 PUSH2 0x16F6 ADD MSTORE DUP2 DUP2 PUSH2 0x1C9E ADD MSTORE DUP2 DUP2 PUSH2 0x1FA0 ADD MSTORE DUP2 DUP2 PUSH2 0x1FF3 ADD MSTORE PUSH2 0x220D ADD MSTORE PUSH2 0x2AB5 PUSH0 RETURN INVALID PUSH1 0x80 PUSH1 0x40 MSTORE CALLVALUE DUP1 ISZERO PUSH2 0xF JUMPI PUSH0 DUP1 REVERT JUMPDEST POP PUSH1 0x4 CALLDATASIZE LT PUSH2 0x333 JUMPI PUSH0 CALLDATALOAD PUSH1 0xE0 SHR DUP1 PUSH4 0x8DEFF864 GT PUSH2 0x1AF JUMPI DUP1 PUSH4 0xC8218E3E GT PUSH2 0xFE JUMPI DUP1 PUSH4 0xE74B981B GT PUSH2 0x9E JUMPI DUP1 PUSH4 0xF08F6EA0 GT PUSH2 0x79 JUMPI DUP1 PUSH4 0xF08F6EA0 EQ PUSH2 0x8CF JUMPI DUP1 PUSH4 0xF2444B0D EQ PUSH2 0x8E2 JUMPI DUP1 PUSH4 0xF2FDE38B EQ PUSH2 0x8F5 JUMPI DUP1 PUSH4 0xFD4DF69B EQ PUSH2 0x908 JUMPI PUSH0 DUP1 REVERT JUMPDEST DUP1 PUSH4 0xE74B981B EQ PUSH2 0x896 JUMPI DUP1 PUSH4 0xE7A5B4EA EQ PUSH2 0x8A9 JUMPI DUP1 PUSH4 0xEE8CA3B5 EQ PUSH2 0x8BC JUMPI PUSH0 DUP1 REVERT JUMPDEST DUP1 PUSH4 0xD4FA5D61 GT PUSH2 0xD9 JUMPI DUP1 PUSH4 0xD4FA5D61 EQ PUSH2 0x7E3 JUMPI DUP1 PUSH4 0xD55BE8C6 EQ PUSH2 0x7F6 JUMPI DUP1 PUSH4 0xE1A45218 EQ PUSH2 0x7FF JUMPI DUP1 PUSH4 0xE579F500 EQ PUSH2 0x808 JUMPI PUSH0 DUP1 REVERT JUMPDEST DUP1 PUSH4 0xC8218E3E EQ PUSH2 0x79D JUMPI DUP1 PUSH4 0xD0BA5264 EQ PUSH2 0x7B0 JUMPI DUP1 PUSH4 0xD46600AA EQ PUSH2 0x7D0 JUMPI PUSH0 DUP1 REVERT JUMPDEST DUP1 PUSH4 0xB9F79451 GT PUSH2 0x169 JUMPI DUP1 PUSH4 0xBBACC591 GT PUSH2 0x144 JUMPI DUP1 PUSH4 0xBBACC591 EQ PUSH2 0x72F JUMPI DUP1 PUSH4 0xBE909BB9 EQ PUSH2 0x742 JUMPI DUP1 PUSH4 0xC5053712 EQ PUSH2 0x755 JUMPI DUP1 PUSH4 0xC59D4847 EQ PUSH2 0x75E JUMPI PUSH0 DUP1 REVERT JUMPDEST DUP1 PUSH4 0xB9F79451 EQ PUSH2 0x603 JUMPI DUP1 PUSH4 0xBA4852B6 EQ PUSH2 0x682 JUMPI DUP1 PUSH4 0xBB5B93B5 EQ PUSH2 0x6A7 JUMPI PUSH0 DUP1 REVERT JUMPDEST DUP1 PUSH4 0x8DEFF864 EQ PUSH2 0x546 JUMPI DUP1 PUSH4 0x9BBEABDA EQ PUSH2 0x559 JUMPI DUP1 PUSH4 0x9C89A0E2 EQ PUSH2 0x562 JUMPI DUP1 PUSH4 0x9EABD40C EQ PUSH2 0x5CA JUMPI DUP1 PUSH4 0x9EAC6099 EQ PUSH2 0x5DD JUMPI DUP1 PUSH4 0xA5AED1AD EQ PUSH2 0x5F0 JUMPI PUSH0 DUP1 REVERT JUMPDEST DUP1 PUSH4 0x46904840 GT PUSH2 0x285 JUMPI DUP1 PUSH4 0x6FBB5F62 GT PUSH2 0x225 JUMPI DUP1 PUSH4 0x7249FBB6 GT PUSH2 0x200 JUMPI DUP1 PUSH4 0x7249FBB6 EQ PUSH2 0x507 JUMPI DUP1 PUSH4 0x8456CB59 EQ PUSH2 0x51A JUMPI DUP1 PUSH4 0x888A7934 EQ PUSH2 0x522 JUMPI DUP1 PUSH4 0x8DA5CB5B EQ PUSH2 0x535 JUMPI PUSH0 DUP1 REVERT JUMPDEST DUP1 PUSH4 0x6FBB5F62 EQ PUSH2 0x4D9 JUMPI DUP1 PUSH4 0x70F8C6F9 EQ PUSH2 0x4EC JUMPI DUP1 PUSH4 0x715018A6 EQ PUSH2 0x4FF JUMPI PUSH0 DUP1 REVERT JUMPDEST DUP1 PUSH4 0x64A0C3F5 GT PUSH2 0x260 JUMPI DUP1 PUSH4 0x64A0C3F5 EQ PUSH2 0x47F JUMPI DUP1 PUSH4 0x67E2FE9C EQ PUSH2 0x4A0 JUMPI DUP1 PUSH4 0x69FE0E2D EQ PUSH2 0x4B3 JUMPI DUP1 PUSH4 0x6C51C0F1 EQ PUSH2 0x4C6 JUMPI PUSH0 DUP1 REVERT JUMPDEST DUP1 PUSH4 0x46904840 EQ PUSH2 0x446 JUMPI DUP1 PUSH4 0x5C975ABB EQ PUSH2 0x459 JUMPI DUP1 PUSH4 0x60C6D8AE EQ PUSH2 0x476 JUMPI PUSH0 DUP1 REVERT JUMPDEST DUP1 PUSH4 0x15A29035 GT PUSH2 0x2F0 JUMPI DUP1 PUSH4 0x2B0CD42A GT PUSH2 0x2CB JUMPI DUP1 PUSH4 0x2B0CD42A EQ PUSH2 0x3D9 JUMPI DUP1 PUSH4 0x332226D0 EQ PUSH2 0x3EC JUMPI DUP1 PUSH4 0x3E413BEE EQ PUSH2 0x3FF JUMPI DUP1 PUSH4 0x3F4BA83A EQ PUSH2 0x43E JUMPI PUSH0 DUP1 REVERT JUMPDEST DUP1 PUSH4 0x15A29035 EQ PUSH2 0x3A7 JUMPI DUP1 PUSH4 0x22DCD13E EQ PUSH2 0x3C7 JUMPI DUP1 PUSH4 0x24DD2893 EQ PUSH2 0x3D0 JUMPI PUSH0 DUP1 REVERT JUMPDEST DUP1 PUSH4 0x8ABFE9F EQ PUSH2 0x337 JUMPI DUP1 PUSH4 0xCCCE304 EQ PUSH2 0x360 JUMPI DUP1 PUSH4 0xE1DA6C3 EQ PUSH2 0x375 JUMPI DUP1 PUSH4 0x108AB45E EQ PUSH2 0x38C JUMPI DUP1 PUSH4 0x117F5F92 EQ PUSH2 0x395 JUMPI DUP1 PUSH4 0x13578C37 EQ PUSH2 0x39E JUMPI JUMPDEST PUSH0 DUP1 REVERT JUMPDEST PUSH2 0x34A PUSH2 0x345 CALLDATASIZE PUSH1 0x4 PUSH2 0x26AD JUMP JUMPDEST PUSH2 0x911 JUMP JUMPDEST PUSH1 0x40 MLOAD PUSH2 0x357 SWAP2 SWAP1 PUSH2 0x26CD JUMP JUMPDEST PUSH1 0x40 MLOAD DUP1 SWAP2 SUB SWAP1 RETURN JUMPDEST PUSH2 0x373 PUSH2 0x36E CALLDATASIZE PUSH1 0x4 PUSH2 0x2710 JUMP JUMPDEST PUSH2 0x97A JUMP JUMPDEST STOP JUMPDEST PUSH2 0x37E PUSH1 0x10 SLOAD DUP2 JUMP JUMPDEST PUSH1 0x40 MLOAD SWAP1 DUP2 MSTORE PUSH1 0x20 ADD PUSH2 0x357 JUMP JUMPDEST PUSH2 0x37E PUSH1 0xC SLOAD DUP2 JUMP JUMPDEST PUSH2 0x37E PUSH1 0x11 SLOAD DUP2 JUMP JUMPDEST PUSH2 0x37E PUSH1 0x13 SLOAD DUP2 JUMP JUMPDEST PUSH2 0x3BA PUSH2 0x3B5 CALLDATASIZE PUSH1 0x4 PUSH2 0x2710 JUMP JUMPDEST PUSH2 0xA11 JUMP JUMPDEST PUSH1 0x40 MLOAD PUSH2 0x357 SWAP2 SWAP1 PUSH2 0x275B JUMP JUMPDEST PUSH2 0x37E PUSH1 0x2 SLOAD DUP2 JUMP JUMPDEST PUSH2 0x37E PUSH1 0xD SLOAD DUP2 JUMP JUMPDEST PUSH2 0x373 PUSH2 0x3E7 CALLDATASIZE PUSH1 0x4 PUSH2 0x2710 JUMP JUMPDEST PUSH2 0xB2C JUMP JUMPDEST PUSH2 0x373 PUSH2 0x3FA CALLDATASIZE PUSH1 0x4 PUSH2 0x2710 JUMP JUMPDEST PUSH2 0xB5C JUMP JUMPDEST PUSH2 0x426 PUSH32 0x0 DUP2 JUMP JUMPDEST PUSH1 0x40 MLOAD PUSH1 0x1 PUSH1 0x1 PUSH1 0xA0 SHL SUB SWAP1 SWAP2 AND DUP2 MSTORE PUSH1 0x20 ADD PUSH2 0x357 JUMP JUMPDEST PUSH2 0x373 PUSH2 0xB69 JUMP JUMPDEST PUSH1 0x3 SLOAD PUSH2 0x426 SWAP1 PUSH1 0x1 PUSH1 0x1 PUSH1 0xA0 SHL SUB AND DUP2 JUMP JUMPDEST PUSH1 0x1 SLOAD PUSH1 0x1 PUSH1 0xA0 SHL SWAP1 DIV PUSH1 0xFF AND PUSH1 0x40 MLOAD SWAP1 ISZERO ISZERO DUP2 MSTORE PUSH1 0x20 ADD PUSH2 0x357 JUMP JUMPDEST PUSH2 0x37E PUSH1 0xE SLOAD DUP2 JUMP JUMPDEST PUSH2 0x492 PUSH2 0x48D CALLDATASIZE PUSH1 0x4 PUSH2 0x2710 JUMP JUMPDEST PUSH2 0xB7B JUMP JUMPDEST PUSH1 0x40 MLOAD PUSH2 0x357 SWAP3 SWAP2 SWAP1 PUSH2 0x282F JUMP JUMPDEST PUSH2 0x34A PUSH2 0x4AE CALLDATASIZE PUSH1 0x4 PUSH2 0x26AD JUMP JUMPDEST PUSH2 0xD0B JUMP JUMPDEST PUSH2 0x373 PUSH2 0x4C1 CALLDATASIZE PUSH1 0x4 PUSH2 0x2710 JUMP JUMPDEST PUSH2 0xD72 JUMP JUMPDEST PUSH2 0x34A PUSH2 0x4D4 CALLDATASIZE PUSH1 0x4 PUSH2 0x2710 JUMP JUMPDEST PUSH2 0xDE3 JUMP JUMPDEST PUSH2 0x373 PUSH2 0x4E7 CALLDATASIZE PUSH1 0x4 PUSH2 0x28BB JUMP JUMPDEST PUSH2 0xE40 JUMP JUMPDEST PUSH2 0x373 PUSH2 0x4FA CALLDATASIZE PUSH1 0x4 PUSH2 0x2710 JUMP JUMPDEST PUSH2 0xE68 JUMP JUMPDEST PUSH2 0x373 PUSH2 0xF84 JUMP JUMPDEST PUSH2 0x373 PUSH2 0x515 CALLDATASIZE PUSH1 0x4 PUSH2 0x2710 JUMP JUMPDEST PUSH2 0xF95 JUMP JUMPDEST PUSH2 0x373 PUSH2 0x10DE JUMP JUMPDEST PUSH2 0x373 PUSH2 0x530 CALLDATASIZE PUSH1 0x4 PUSH2 0x28DB JUMP JUMPDEST PUSH2 0x10EE JUMP JUMPDEST PUSH1 0x1 SLOAD PUSH1 0x1 PUSH1 0x1 PUSH1 0xA0 SHL SUB AND PUSH2 0x426 JUMP JUMPDEST PUSH2 0x37E PUSH2 0x554 CALLDATASIZE PUSH1 0x4 PUSH2 0x2905 JUMP JUMPDEST PUSH2 0x130E JUMP JUMPDEST PUSH2 0x37E PUSH1 0x12 SLOAD DUP2 JUMP JUMPDEST PUSH2 0x575 PUSH2 0x570 CALLDATASIZE PUSH1 0x4 PUSH2 0x26AD JUMP JUMPDEST PUSH2 0x1339 JUMP JUMPDEST PUSH1 0x40 MLOAD PUSH2 0x357 SWAP2 SWAP1 PUSH0 PUSH1 0xE0 DUP3 ADD SWAP1 POP DUP3 MLOAD DUP3 MSTORE PUSH1 0x20 DUP4 ADD MLOAD PUSH1 0x20 DUP4 ADD MSTORE PUSH1 0x40 DUP4 ADD MLOAD PUSH1 0x40 DUP4 ADD MSTORE PUSH1 0x60 DUP4 ADD MLOAD PUSH1 0x60 DUP4 ADD MSTORE PUSH1 0x80 DUP4 ADD MLOAD PUSH1 0x80 DUP4 ADD MSTORE PUSH1 0xA0 DUP4 ADD MLOAD PUSH1 0xA0 DUP4 ADD MSTORE PUSH1 0xC0 DUP4 ADD MLOAD PUSH1 0xC0 DUP4 ADD MSTORE SWAP3 SWAP2 POP POP JUMP JUMPDEST PUSH2 0x426 PUSH2 0x5D8 CALLDATASIZE PUSH1 0x4 PUSH2 0x28BB JUMP JUMPDEST PUSH2 0x13DD JUMP JUMPDEST PUSH2 0x373 PUSH2 0x5EB CALLDATASIZE PUSH1 0x4 PUSH2 0x2710 JUMP JUMPDEST PUSH2 0x1411 JUMP JUMPDEST PUSH2 0x37E PUSH2 0x5FE CALLDATASIZE PUSH1 0x4 PUSH2 0x2905 JUMP JUMPDEST PUSH2 0x141E JUMP JUMPDEST PUSH2 0x64D PUSH2 0x611 CALLDATASIZE PUSH1 0x4 PUSH2 0x26AD JUMP JUMPDEST PUSH1 0x8 PUSH1 0x20 MSTORE PUSH0 SWAP1 DUP2 MSTORE PUSH1 0x40 SWAP1 KECCAK256 DUP1 SLOAD PUSH1 0x1 DUP3 ADD SLOAD PUSH1 0x2 DUP4 ADD SLOAD PUSH1 0x3 DUP5 ADD SLOAD PUSH1 0x4 DUP6 ADD SLOAD PUSH1 0x5 DUP7 ADD SLOAD PUSH1 0x6 SWAP1 SWAP7 ADD SLOAD SWAP5 SWAP6 SWAP4 SWAP5 SWAP3 SWAP4 SWAP2 SWAP3 SWAP1 SWAP2 SWAP1 DUP8 JUMP JUMPDEST PUSH1 0x40 DUP1 MLOAD SWAP8 DUP9 MSTORE PUSH1 0x20 DUP9 ADD SWAP7 SWAP1 SWAP7 MSTORE SWAP5 DUP7 ADD SWAP4 SWAP1 SWAP4 MSTORE PUSH1 0x60 DUP6 ADD SWAP2 SWAP1 SWAP2 MSTORE PUSH1 0x80 DUP5 ADD MSTORE PUSH1 0xA0 DUP4 ADD MSTORE PUSH1 0xC0 DUP3 ADD MSTORE PUSH1 0xE0 ADD PUSH2 0x357 JUMP JUMPDEST PUSH2 0x695 PUSH2 0x690 CALLDATASIZE PUSH1 0x4 PUSH2 0x26AD JUMP JUMPDEST PUSH2 0x1437 JUMP JUMPDEST PUSH1 0x40 MLOAD PUSH1 0xFF SWAP1 SWAP2 AND DUP2 MSTORE PUSH1 0x20 ADD PUSH2 0x357 JUMP JUMPDEST PUSH2 0x6FB PUSH2 0x6B5 CALLDATASIZE PUSH1 0x4 PUSH2 0x28DB JUMP JUMPDEST PUSH1 0x5 PUSH1 0x20 SWAP1 DUP2 MSTORE PUSH0 SWAP3 DUP4 MSTORE PUSH1 0x40 DUP1 DUP5 KECCAK256 SWAP1 SWAP2 MSTORE SWAP1 DUP3 MSTORE SWAP1 KECCAK256 DUP1 SLOAD PUSH1 0x1 DUP3 ADD SLOAD PUSH1 0x2 DUP4 ADD SLOAD PUSH1 0x3 DUP5 ADD SLOAD PUSH1 0x4 SWAP1 SWAP5 ADD SLOAD PUSH1 0x1 PUSH1 0x1 PUSH1 0xA0 SHL SUB SWAP1 SWAP4 AND SWAP4 SWAP2 SWAP3 SWAP1 SWAP2 SWAP1 PUSH1 0xFF AND DUP6 JUMP JUMPDEST PUSH1 0x40 DUP1 MLOAD PUSH1 0x1 PUSH1 0x1 PUSH1 0xA0 SHL SUB SWAP1 SWAP7 AND DUP7 MSTORE PUSH1 0x20 DUP7 ADD SWAP5 SWAP1 SWAP5 MSTORE SWAP3 DUP5 ADD SWAP2 SWAP1 SWAP2 MSTORE PUSH1 0x60 DUP4 ADD MSTORE ISZERO ISZERO PUSH1 0x80 DUP3 ADD MSTORE PUSH1 0xA0 ADD PUSH2 0x357 JUMP JUMPDEST PUSH2 0x373 PUSH2 0x73D CALLDATASIZE PUSH1 0x4 PUSH2 0x2710 JUMP JUMPDEST PUSH2 0x149B JUMP JUMPDEST PUSH2 0x37E PUSH2 0x750 CALLDATASIZE PUSH1 0x4 PUSH2 0x28BB JUMP JUMPDEST PUSH2 0x15EC JUMP JUMPDEST PUSH2 0x37E PUSH1 0xF SLOAD DUP2 JUMP JUMPDEST PUSH1 0xB SLOAD PUSH1 0xC SLOAD PUSH1 0xD SLOAD PUSH1 0xE SLOAD PUSH1 0x2 SLOAD PUSH1 0xF SLOAD PUSH1 0x40 DUP1 MLOAD SWAP7 DUP8 MSTORE PUSH1 0x20 DUP8 ADD SWAP6 SWAP1 SWAP6 MSTORE SWAP4 DUP6 ADD SWAP3 SWAP1 SWAP3 MSTORE PUSH1 0x60 DUP5 ADD MSTORE PUSH1 0x80 DUP4 ADD MSTORE PUSH1 0xA0 DUP3 ADD MSTORE PUSH1 0xC0 ADD PUSH2 0x357 JUMP JUMPDEST PUSH2 0x373 PUSH2 0x7AB CALLDATASIZE PUSH1 0x4 PUSH2 0x2710 JUMP JUMPDEST PUSH2 0x1605 JUMP JUMPDEST PUSH2 0x7C3 PUSH2 0x7BE CALLDATASIZE PUSH1 0x4 PUSH2 0x28DB JUMP JUMPDEST PUSH2 0x1766 JUMP JUMPDEST PUSH1 0x40 MLOAD PUSH2 0x357 SWAP2 SWAP1 PUSH2 0x292D JUMP JUMPDEST PUSH2 0x373 PUSH2 0x7DE CALLDATASIZE PUSH1 0x4 PUSH2 0x28BB JUMP JUMPDEST PUSH2 0x17D6 JUMP JUMPDEST PUSH2 0x373 PUSH2 0x7F1 CALLDATASIZE PUSH1 0x4 PUSH2 0x293B JUMP JUMPDEST PUSH2 0x1906 JUMP JUMPDEST PUSH2 0x37E PUSH2 0x3E8 DUP2 JUMP JUMPDEST PUSH2 0x37E PUSH2 0x2710 DUP2 JUMP JUMPDEST PUSH2 0x87F PUSH2 0x816 CALLDATASIZE PUSH1 0x4 PUSH2 0x2710 JUMP JUMPDEST PUSH1 0x4 PUSH1 0x20 DUP2 SWAP1 MSTORE PUSH0 SWAP2 DUP3 MSTORE PUSH1 0x40 SWAP1 SWAP2 KECCAK256 DUP1 SLOAD PUSH1 0x1 DUP3 ADD SLOAD PUSH1 0x2 DUP4 ADD SLOAD PUSH1 0x3 DUP5 ADD SLOAD SWAP5 DUP5 ADD SLOAD PUSH1 0x5 DUP6 ADD SLOAD PUSH1 0x6 DUP7 ADD SLOAD PUSH1 0x7 DUP8 ADD SLOAD PUSH1 0x8 DUP9 ADD SLOAD PUSH1 0x9 DUP10 ADD SLOAD PUSH1 0xA SWAP1 SWAP10 ADD SLOAD PUSH1 0x1 PUSH1 0x1 PUSH1 0xA0 SHL SUB SWAP9 DUP10 AND SWAP11 SWAP8 SWAP1 SWAP9 AND SWAP9 SWAP6 SWAP8 PUSH1 0xFF SWAP1 SWAP6 AND SWAP6 SWAP4 SWAP5 SWAP3 SWAP4 SWAP2 SWAP3 SWAP1 SWAP2 SWAP1 DUP12 JUMP JUMPDEST PUSH1 0x40 MLOAD PUSH2 0x357 SWAP12 SWAP11 SWAP10 SWAP9 SWAP8 SWAP7 SWAP6 SWAP5 SWAP4 SWAP3 SWAP2 SWAP1 PUSH2 0x2964 JUMP JUMPDEST PUSH2 0x373 PUSH2 0x8A4 CALLDATASIZE PUSH1 0x4 PUSH2 0x26AD JUMP JUMPDEST PUSH2 0x1B4D JUMP JUMPDEST PUSH2 0x373 PUSH2 0x8B7 CALLDATASIZE PUSH1 0x4 PUSH2 0x2710 JUMP JUMPDEST PUSH2 0x1BD6 JUMP JUMPDEST PUSH2 0x373 PUSH2 0x8CA CALLDATASIZE PUSH1 0x4 PUSH2 0x2710 JUMP JUMPDEST PUSH2 0x1BE3 JUMP JUMPDEST PUSH2 0x373 PUSH2 0x8DD CALLDATASIZE PUSH1 0x4 PUSH2 0x2710 JUMP JUMPDEST PUSH2 0x1D13 JUMP JUMPDEST PUSH2 0x373 PUSH2 0x8F0 CALLDATASIZE PUSH1 0x4 PUSH2 0x293B JUMP JUMPDEST PUSH2 0x1D93 JUMP JUMPDEST PUSH2 0x373 PUSH2 0x903 CALLDATASIZE PUSH1 0x4 PUSH2 0x26AD JUMP JUMPDEST PUSH2 0x1EB4 JUMP JUMPDEST PUSH2 0x37E PUSH1 0xB SLOAD DUP2 JUMP JUMPDEST PUSH1 0x1 PUSH1 0x1 PUSH1 0xA0 SHL SUB DUP2 AND PUSH0 SWAP1 DUP2 MSTORE PUSH1 0xA PUSH1 0x20 SWAP1 DUP2 MSTORE PUSH1 0x40 SWAP2 DUP3 SWAP1 KECCAK256 DUP1 SLOAD DUP4 MLOAD DUP2 DUP5 MUL DUP2 ADD DUP5 ADD SWAP1 SWAP5 MSTORE DUP1 DUP5 MSTORE PUSH1 0x60 SWAP4 SWAP3 DUP4 ADD DUP3 DUP3 DUP1 ISZERO PUSH2 0x96E JUMPI PUSH1 0x20 MUL DUP3 ADD SWAP2 SWAP1 PUSH0 MSTORE PUSH1 0x20 PUSH0 KECCAK256 SWAP1 JUMPDEST DUP2 SLOAD DUP2 MSTORE PUSH1 0x20 ADD SWAP1 PUSH1 0x1 ADD SWAP1 DUP1 DUP4 GT PUSH2 0x95A JUMPI JUMPDEST POP POP POP POP POP SWAP1 POP SWAP2 SWAP1 POP JUMP JUMPDEST PUSH2 0x982 PUSH2 0x1EEE JUMP JUMPDEST PUSH2 0x98A PUSH2 0x1F16 JUMP JUMPDEST PUSH0 DUP2 DUP2 MSTORE PUSH1 0x4 PUSH1 0x20 MSTORE PUSH1 0x40 SWAP1 KECCAK256 PUSH1 0x2 PUSH1 0x4 DUP3 ADD SLOAD PUSH1 0xFF AND PUSH1 0x6 DUP2 GT ISZERO PUSH2 0x9B2 JUMPI PUSH2 0x9B2 PUSH2 0x2727 JUMP JUMPDEST EQ PUSH2 0x9D0 JUMPI PUSH1 0x40 MLOAD PUSH4 0x15FCFCA7 PUSH1 0xE2 SHL DUP2 MSTORE PUSH1 0x4 ADD PUSH1 0x40 MLOAD DUP1 SWAP2 SUB SWAP1 REVERT JUMPDEST DUP1 SLOAD PUSH1 0x1 PUSH1 0x1 PUSH1 0xA0 SHL SUB AND CALLER EQ PUSH2 0x9FA JUMPI PUSH1 0x40 MLOAD PUSH4 0x5085C6A7 PUSH1 0xE0 SHL DUP2 MSTORE PUSH1 0x4 ADD PUSH1 0x40 MLOAD DUP1 SWAP2 SUB SWAP1 REVERT JUMPDEST PUSH2 0xA04 DUP3 DUP3 PUSH2 0x1F41 JUMP JUMPDEST POP PUSH2 0xA0E PUSH1 0x1 PUSH0 SSTORE JUMP JUMPDEST POP JUMP JUMPDEST PUSH1 0x40 DUP1 MLOAD PUSH2 0x160 DUP2 ADD DUP3 MSTORE PUSH0 DUP1 DUP3 MSTORE PUSH1 0x20 DUP3 ADD DUP2 SWAP1 MSTORE SWAP2 DUP2 ADD DUP3 SWAP1 MSTORE PUSH1 0x60 DUP2 ADD DUP3 SWAP1 MSTORE PUSH1 0x80 DUP2 ADD DUP3 SWAP1 MSTORE PUSH1 0xA0 DUP2 ADD DUP3 SWAP1 MSTORE PUSH1 0xC0 DUP2 ADD DUP3 SWAP1 MSTORE PUSH1 0xE0 DUP2 ADD DUP3 SWAP1 MSTORE PUSH2 0x100 DUP2 ADD DUP3 SWAP1 MSTORE PUSH2 0x120 DUP2 ADD DUP3 SWAP1 MSTORE PUSH2 0x140 DUP2 ADD SWAP2 SWAP1 SWAP2 MSTORE PUSH0 DUP3 DUP2 MSTORE PUSH1 0x4 PUSH1 0x20 DUP2 DUP2 MSTORE PUSH1 0x40 SWAP3 DUP4 SWAP1 KECCAK256 DUP4 MLOAD PUSH2 0x160 DUP2 ADD DUP6 MSTORE DUP2 SLOAD PUSH1 0x1 PUSH1 0x1 PUSH1 0xA0 SHL SUB SWAP1 DUP2 AND DUP3 MSTORE PUSH1 0x1 DUP4 ADD SLOAD AND SWAP3 DUP2 ADD SWAP3 SWAP1 SWAP3 MSTORE PUSH1 0x2 DUP2 ADD SLOAD SWAP4 DUP3 ADD SWAP4 SWAP1 SWAP4 MSTORE PUSH1 0x3 DUP4 ADD SLOAD PUSH1 0x60 DUP3 ADD MSTORE SWAP1 DUP3 ADD SLOAD SWAP1 SWAP2 SWAP1 PUSH1 0x80 DUP4 ADD SWAP1 PUSH1 0xFF AND PUSH1 0x6 DUP2 GT ISZERO PUSH2 0xAD5 JUMPI PUSH2 0xAD5 PUSH2 0x2727 JUMP JUMPDEST PUSH1 0x6 DUP2 GT ISZERO PUSH2 0xAE6 JUMPI PUSH2 0xAE6 PUSH2 0x2727 JUMP JUMPDEST DUP2 MSTORE PUSH1 0x5 DUP3 ADD SLOAD PUSH1 0x20 DUP3 ADD MSTORE PUSH1 0x6 DUP3 ADD SLOAD PUSH1 0x40 DUP3 ADD MSTORE PUSH1 0x7 DUP3 ADD SLOAD PUSH1 0x60 DUP3 ADD MSTORE PUSH1 0x8 DUP3 ADD SLOAD PUSH1 0x80 DUP3 ADD MSTORE PUSH1 0x9 DUP3 ADD SLOAD PUSH1 0xA0 DUP3 ADD MSTORE PUSH1 0xA SWAP1 SWAP2 ADD SLOAD PUSH1 0xC0 SWAP1 SWAP2 ADD MSTORE SWAP3 SWAP2 POP POP JUMP JUMPDEST PUSH2 0xB34 PUSH2 0x2129 JUMP JUMPDEST PUSH2 0x2710 DUP2 GT ISZERO PUSH2 0xB57 JUMPI PUSH1 0x40 MLOAD PUSH4 0xBCD55B0F PUSH1 0xE0 SHL DUP2 MSTORE PUSH1 0x4 ADD PUSH1 0x40 MLOAD DUP1 SWAP2 SUB SWAP1 REVERT JUMPDEST PUSH1 0x13 SSTORE JUMP JUMPDEST PUSH2 0xB64 PUSH2 0x2129 JUMP JUMPDEST PUSH1 0x11 SSTORE JUMP JUMPDEST PUSH2 0xB71 PUSH2 0x2129 JUMP JUMPDEST PUSH2 0xB79 PUSH2 0x2156 JUMP JUMPDEST JUMP JUMPDEST PUSH1 0x60 DUP1 PUSH1 0x6 PUSH0 DUP5 DUP2 MSTORE PUSH1 0x20 ADD SWAP1 DUP2 MSTORE PUSH1 0x20 ADD PUSH0 KECCAK256 DUP1 SLOAD DUP1 PUSH1 0x20 MUL PUSH1 0x20 ADD PUSH1 0x40 MLOAD SWAP1 DUP2 ADD PUSH1 0x40 MSTORE DUP1 SWAP3 SWAP2 SWAP1 DUP2 DUP2 MSTORE PUSH1 0x20 ADD DUP3 DUP1 SLOAD DUP1 ISZERO PUSH2 0xBE1 JUMPI PUSH1 0x20 MUL DUP3 ADD SWAP2 SWAP1 PUSH0 MSTORE PUSH1 0x20 PUSH0 KECCAK256 SWAP1 JUMPDEST DUP2 SLOAD PUSH1 0x1 PUSH1 0x1 PUSH1 0xA0 SHL SUB AND DUP2 MSTORE PUSH1 0x1 SWAP1 SWAP2 ADD SWAP1 PUSH1 0x20 ADD DUP1 DUP4 GT PUSH2 0xBC3 JUMPI JUMPDEST POP POP POP POP POP SWAP2 POP DUP2 MLOAD PUSH8 0xFFFFFFFFFFFFFFFF DUP2 GT ISZERO PUSH2 0xC02 JUMPI PUSH2 0xC02 PUSH2 0x29CF JUMP JUMPDEST PUSH1 0x40 MLOAD SWAP1 DUP1 DUP3 MSTORE DUP1 PUSH1 0x20 MUL PUSH1 0x20 ADD DUP3 ADD PUSH1 0x40 MSTORE DUP1 ISZERO PUSH2 0xC3B JUMPI DUP2 PUSH1 0x20 ADD JUMPDEST PUSH2 0xC28 PUSH2 0x265D JUMP JUMPDEST DUP2 MSTORE PUSH1 0x20 ADD SWAP1 PUSH1 0x1 SWAP1 SUB SWAP1 DUP2 PUSH2 0xC20 JUMPI SWAP1 POP JUMPDEST POP SWAP1 POP PUSH0 JUMPDEST DUP3 MLOAD DUP2 LT ISZERO PUSH2 0xD05 JUMPI PUSH1 0x5 PUSH0 DUP6 DUP2 MSTORE PUSH1 0x20 ADD SWAP1 DUP2 MSTORE PUSH1 0x20 ADD PUSH0 KECCAK256 PUSH0 DUP5 DUP4 DUP2 MLOAD DUP2 LT PUSH2 0xC6D JUMPI PUSH2 0xC6D PUSH2 0x29E3 JUMP JUMPDEST PUSH1 0x20 SWAP1 DUP2 MUL SWAP2 SWAP1 SWAP2 ADD DUP2 ADD MLOAD PUSH1 0x1 PUSH1 0x1 PUSH1 0xA0 SHL SUB SWAP1 DUP2 AND DUP4 MSTORE DUP3 DUP3 ADD SWAP4 SWAP1 SWAP4 MSTORE PUSH1 0x40 SWAP2 DUP3 ADD PUSH0 KECCAK256 DUP3 MLOAD PUSH1 0xA0 DUP2 ADD DUP5 MSTORE DUP2 SLOAD SWAP1 SWAP5 AND DUP5 MSTORE PUSH1 0x1 DUP2 ADD SLOAD SWAP2 DUP5 ADD SWAP2 SWAP1 SWAP2 MSTORE PUSH1 0x2 DUP2 ADD SLOAD SWAP2 DUP4 ADD SWAP2 SWAP1 SWAP2 MSTORE PUSH1 0x3 DUP2 ADD SLOAD PUSH1 0x60 DUP4 ADD MSTORE PUSH1 0x4 ADD SLOAD PUSH1 0xFF AND ISZERO ISZERO PUSH1 0x80 DUP3 ADD MSTORE DUP3 MLOAD DUP4 SWAP1 DUP4 SWAP1 DUP2 LT PUSH2 0xCE7 JUMPI PUSH2 0xCE7 PUSH2 0x29E3 JUMP JUMPDEST PUSH1 0x20 MUL PUSH1 0x20 ADD ADD DUP2 SWAP1 MSTORE POP DUP1 DUP1 PUSH2 0xCFD SWAP1 PUSH2 0x2A0B JUMP JUMPDEST SWAP2 POP POP PUSH2 0xC40 JUMP JUMPDEST POP SWAP2 POP SWAP2 JUMP JUMPDEST PUSH1 0x1 PUSH1 0x1 PUSH1 0xA0 SHL SUB DUP2 AND PUSH0 SWAP1 DUP2 MSTORE PUSH1 0x9 PUSH1 0x20 SWAP1 DUP2 MSTORE PUSH1 0x40 SWAP2 DUP3 SWAP1 KECCAK256 DUP1 SLOAD DUP4 MLOAD DUP2 DUP5 MUL DUP2 ADD DUP5 ADD SWAP1 SWAP5 MSTORE DUP1 DUP5 MSTORE PUSH1 0x60 SWAP4 SWAP3 DUP4 ADD DUP3 DUP3 DUP1 ISZERO PUSH2 0x96E JUMPI PUSH1 0x20 MUL DUP3 ADD SWAP2 SWAP1 PUSH0 MSTORE PUSH1 0x20 PUSH0 KECCAK256 SWAP1 DUP2 SLOAD DUP2 MSTORE PUSH1 0x20 ADD SWAP1 PUSH1 0x1 ADD SWAP1 DUP1 DUP4 GT PUSH2 0x95A JUMPI POP POP POP POP POP SWAP1 POP SWAP2 SWAP1 POP JUMP JUMPDEST PUSH2 0xD7A PUSH2 0x2129 JUMP JUMPDEST PUSH2 0x3E8 DUP2 GT ISZERO PUSH2 0xD9D JUMPI PUSH1 0x40 MLOAD PUSH4 0xCD4E6167 PUSH1 0xE0 SHL DUP2 MSTORE PUSH1 0x4 ADD PUSH1 0x40 MLOAD DUP1 SWAP2 SUB SWAP1 REVERT JUMPDEST PUSH1 0x2 DUP1 SLOAD SWAP1 DUP3 SWAP1 SSTORE PUSH1 0x40 DUP1 MLOAD DUP3 DUP2 MSTORE PUSH1 0x20 DUP2 ADD DUP5 SWAP1 MSTORE PUSH32 0x528D9479E9F9889A87A3C30C7F7BA537E5E59C4C85A37733B16E57C62DF61302 SWAP2 ADD JUMPDEST PUSH1 0x40 MLOAD DUP1 SWAP2 SUB SWAP1 LOG1 POP POP JUMP JUMPDEST PUSH0 DUP2 DUP2 MSTORE PUSH1 0x7 PUSH1 0x20 SWAP1 DUP2 MSTORE PUSH1 0x40 SWAP2 DUP3 SWAP1 KECCAK256 DUP1 SLOAD DUP4 MLOAD DUP2 DUP5 MUL DUP2 ADD DUP5 ADD SWAP1 SWAP5 MSTORE DUP1 DUP5 MSTORE PUSH1 0x60 SWAP4 SWAP3 DUP4 ADD DUP3 DUP3 DUP1 ISZERO PUSH2 0x96E JUMPI PUSH1 0x20 MUL DUP3 ADD SWAP2 SWAP1 PUSH0 MSTORE PUSH1 0x20 PUSH0 KECCAK256 SWAP1 DUP2 SLOAD DUP2 MSTORE PUSH1 0x20 ADD SWAP1 PUSH1 0x1 ADD SWAP1 DUP1 DUP4 GT PUSH2 0x95A JUMPI POP POP POP POP POP SWAP1 POP SWAP2 SWAP1 POP JUMP JUMPDEST PUSH2 0xE48 PUSH2 0x1EEE JUMP JUMPDEST PUSH2 0xE50 PUSH2 0x1F16 JUMP JUMPDEST PUSH2 0xE5B DUP3 DUP3 PUSH0 PUSH2 0x21AB JUMP JUMPDEST PUSH2 0xE64 PUSH1 0x1 PUSH0 SSTORE JUMP JUMPDEST POP POP JUMP JUMPDEST PUSH2 0xE70 PUSH2 0x1EEE JUMP JUMPDEST PUSH2 0xE78 PUSH2 0x1F16 JUMP JUMPDEST PUSH0 DUP2 DUP2 MSTORE PUSH1 0x4 PUSH1 0x20 MSTORE PUSH1 0x40 SWAP1 KECCAK256 DUP1 SLOAD PUSH1 0x1 PUSH1 0x1 PUSH1 0xA0 SHL SUB AND PUSH2 0xEAD JUMPI PUSH1 0x40 MLOAD PUSH4 0xDA319DFF PUSH1 0xE0 SHL DUP2 MSTORE PUSH1 0x4 ADD PUSH1 0x40 MLOAD DUP1 SWAP2 SUB SWAP1 REVERT JUMPDEST PUSH0 PUSH1 0x4 DUP3 ADD SLOAD PUSH1 0xFF AND PUSH1 0x6 DUP2 GT ISZERO PUSH2 0xEC7 JUMPI PUSH2 0xEC7 PUSH2 0x2727 JUMP JUMPDEST EQ PUSH2 0xEE5 JUMPI PUSH1 0x40 MLOAD PUSH4 0xFE894217 PUSH1 0xE0 SHL DUP2 MSTORE PUSH1 0x4 ADD PUSH1 0x40 MLOAD DUP1 SWAP2 SUB SWAP1 REVERT JUMPDEST DUP1 SLOAD PUSH1 0x1 PUSH1 0x1 PUSH1 0xA0 SHL SUB AND CALLER SUB PUSH2 0xF0F JUMPI PUSH1 0x40 MLOAD PUSH4 0x2FC366D5 PUSH1 0xE2 SHL DUP2 MSTORE PUSH1 0x4 ADD PUSH1 0x40 MLOAD DUP1 SWAP2 SUB SWAP1 REVERT JUMPDEST PUSH2 0xF18 CALLER PUSH2 0x240D JUMP JUMPDEST PUSH1 0x1 DUP1 DUP3 ADD DUP1 SLOAD PUSH1 0x1 PUSH1 0x1 PUSH1 0xA0 SHL SUB NOT AND CALLER OR SWAP1 SSTORE PUSH1 0x2 DUP3 ADD SLOAD PUSH1 0x3 DUP4 ADD SSTORE PUSH1 0x4 DUP3 ADD DUP1 SLOAD PUSH1 0xFF NOT AND DUP3 DUP1 MUL OR SWAP1 SSTORE POP TIMESTAMP PUSH1 0x7 DUP3 ADD SSTORE PUSH1 0x40 MLOAD CALLER SWAP1 DUP4 SWAP1 PUSH32 0xE1F58463DA369C5BF09630219FAD2558DD2B2EAD275C5DC36269B384DC138FE SWAP1 PUSH0 SWAP1 LOG3 POP PUSH2 0xA0E PUSH1 0x1 PUSH0 SSTORE JUMP JUMPDEST PUSH2 0xF8C PUSH2 0x2129 JUMP JUMPDEST PUSH2 0xB79 PUSH0 PUSH2 0x2495 JUMP JUMPDEST PUSH2 0xF9D PUSH2 0x1EEE JUMP JUMPDEST PUSH0 DUP2 DUP2 MSTORE PUSH1 0x4 PUSH1 0x20 MSTORE PUSH1 0x40 SWAP1 KECCAK256 DUP1 SLOAD PUSH1 0x1 PUSH1 0x1 PUSH1 0xA0 SHL SUB AND CALLER EQ PUSH2 0xFD4 JUMPI PUSH1 0x40 MLOAD PUSH4 0x5085C6A7 PUSH1 0xE0 SHL DUP2 MSTORE PUSH1 0x4 ADD PUSH1 0x40 MLOAD DUP1 SWAP2 SUB SWAP1 REVERT JUMPDEST PUSH0 PUSH1 0x4 DUP3 ADD SLOAD PUSH1 0xFF AND PUSH1 0x6 DUP2 GT ISZERO PUSH2 0xFEE JUMPI PUSH2 0xFEE PUSH2 0x2727 JUMP JUMPDEST EQ PUSH2 0x100C JUMPI PUSH1 0x40 MLOAD PUSH4 0x781DA3AF PUSH1 0xE1 SHL DUP2 MSTORE PUSH1 0x4 ADD PUSH1 0x40 MLOAD DUP1 SWAP2 SUB SWAP1 REVERT JUMPDEST PUSH1 0x10 SLOAD DUP2 PUSH1 0x6 ADD SLOAD PUSH2 0x101E SWAP2 SWAP1 PUSH2 0x2A23 JUMP JUMPDEST TIMESTAMP GT PUSH2 0x103D JUMPI PUSH1 0x40 MLOAD PUSH4 0x781DA3AF PUSH1 0xE1 SHL DUP2 MSTORE PUSH1 0x4 ADD PUSH1 0x40 MLOAD DUP1 SWAP2 SUB SWAP1 REVERT JUMPDEST PUSH1 0x4 DUP2 ADD DUP1 SLOAD PUSH1 0xFF NOT AND PUSH1 0x5 OR SWAP1 SSTORE DUP1 SLOAD PUSH1 0x2 DUP3 ADD SLOAD PUSH2 0x108C SWAP2 PUSH32 0x0 PUSH1 0x1 PUSH1 0x1 PUSH1 0xA0 SHL SUB SWAP1 DUP2 AND SWAP3 SWAP2 AND SWAP1 PUSH2 0x24E6 JUMP JUMPDEST DUP1 SLOAD PUSH1 0x2 DUP3 ADD SLOAD PUSH1 0x40 MLOAD SWAP1 DUP2 MSTORE PUSH1 0x1 PUSH1 0x1 PUSH1 0xA0 SHL SUB SWAP1 SWAP2 AND SWAP1 DUP4 SWAP1 PUSH32 0xF3A7AB0CCBAD7F367B7892962016C155D1CE76A3E6FDD0420B5E749763ACBDA7 SWAP1 PUSH1 0x20 ADD PUSH1 0x40 MLOAD DUP1 SWAP2 SUB SWAP1 LOG3 POP PUSH2 0xA0E PUSH1 0x1 PUSH0 SSTORE JUMP JUMPDEST PUSH2 0x10E6 PUSH2 0x2129 JUMP JUMPDEST PUSH2 0xB79 PUSH2 0x2545 JUMP JUMPDEST PUSH2 0x10F6 PUSH2 0x1EEE JUMP JUMPDEST PUSH2 0x10FE PUSH2 0x1F16 JUMP JUMPDEST PUSH0 DUP3 DUP2 MSTORE PUSH1 0x4 PUSH1 0x20 MSTORE PUSH1 0x40 SWAP1 KECCAK256 DUP1 SLOAD PUSH1 0x1 PUSH1 0x1 PUSH1 0xA0 SHL SUB AND PUSH2 0x1133 JUMPI PUSH1 0x40 MLOAD PUSH4 0xDA319DFF PUSH1 0xE0 SHL DUP2 MSTORE PUSH1 0x4 ADD PUSH1 0x40 MLOAD DUP1 SWAP2 SUB SWAP1 REVERT JUMPDEST PUSH0 PUSH1 0x4 DUP3 ADD SLOAD PUSH1 0xFF AND PUSH1 0x6 DUP2 GT ISZERO PUSH2 0x114D JUMPI PUSH2 0x114D PUSH2 0x2727 JUMP JUMPDEST EQ PUSH2 0x116B JUMPI PUSH1 0x40 MLOAD PUSH4 0xFE894217 PUSH1 0xE0 SHL DUP2 MSTORE PUSH1 0x4 ADD PUSH1 0x40 MLOAD DUP1 SWAP2 SUB SWAP1 REVERT JUMPDEST DUP1 SLOAD PUSH1 0x1 PUSH1 0x1 PUSH1 0xA0 SHL SUB AND CALLER EQ PUSH2 0x1195 JUMPI PUSH1 0x40 MLOAD PUSH4 0x5085C6A7 PUSH1 0xE0 SHL DUP2 MSTORE PUSH1 0x4 ADD PUSH1 0x40 MLOAD DUP1 SWAP2 SUB SWAP1 REVERT JUMPDEST PUSH0 DUP4 DUP2 MSTORE PUSH1 0x5 PUSH1 0x20 SWAP1 DUP2 MSTORE PUSH1 0x40 DUP1 DUP4 KECCAK256 PUSH1 0x1 PUSH1 0x1 PUSH1 0xA0 SHL SUB DUP1 DUP8 AND DUP6 MSTORE SWAP3 MSTORE SWAP1 SWAP2 KECCAK256 DUP1 SLOAD SWAP1 SWAP2 AND PUSH2 0x11D9 JUMPI PUSH1 0x40 MLOAD PUSH4 0x7E0EEC9 PUSH1 0xE3 SHL DUP2 MSTORE PUSH1 0x4 ADD PUSH1 0x40 MLOAD DUP1 SWAP2 SUB SWAP1 REVERT JUMPDEST PUSH1 0x4 DUP2 DUP2 ADD DUP1 SLOAD PUSH1 0x1 PUSH1 0xFF NOT SWAP2 DUP3 AND DUP2 OR SWAP1 SWAP3 SSTORE DUP5 DUP3 ADD DUP1 SLOAD PUSH1 0x1 PUSH1 0x1 PUSH1 0xA0 SHL SUB NOT AND PUSH1 0x1 PUSH1 0x1 PUSH1 0xA0 SHL SUB DUP9 AND OR SWAP1 SSTORE DUP2 DUP5 ADD DUP1 SLOAD PUSH1 0x3 DUP8 ADD SSTORE SWAP3 DUP6 ADD DUP1 SLOAD SWAP1 SWAP2 AND SWAP1 SWAP2 OR SWAP1 SSTORE TIMESTAMP PUSH1 0x7 DUP5 ADD SSTORE PUSH1 0x2 DUP4 ADD SLOAD SWAP1 SLOAD LT ISZERO PUSH2 0x1286 JUMPI PUSH0 DUP2 PUSH1 0x1 ADD SLOAD DUP4 PUSH1 0x2 ADD SLOAD PUSH2 0x1248 SWAP2 SWAP1 PUSH2 0x2A36 JUMP JUMPDEST DUP4 SLOAD SWAP1 SWAP2 POP PUSH2 0x1284 SWAP1 PUSH1 0x1 PUSH1 0x1 PUSH1 0xA0 SHL SUB PUSH32 0x0 DUP2 AND SWAP2 AND DUP4 PUSH2 0x24E6 JUMP JUMPDEST POP JUMPDEST DUP3 PUSH1 0x1 PUSH1 0x1 PUSH1 0xA0 SHL SUB AND DUP5 PUSH32 0x11584506704F1759083D660085355522A050C85B08441C428ACCD0CE05F96928 DUP4 PUSH1 0x1 ADD SLOAD PUSH1 0x40 MLOAD PUSH2 0x12C6 SWAP2 DUP2 MSTORE PUSH1 0x20 ADD SWAP1 JUMP JUMPDEST PUSH1 0x40 MLOAD DUP1 SWAP2 SUB SWAP1 LOG3 PUSH1 0x40 MLOAD PUSH1 0x1 PUSH1 0x1 PUSH1 0xA0 SHL SUB DUP5 AND SWAP1 DUP6 SWAP1 PUSH32 0xE1F58463DA369C5BF09630219FAD2558DD2B2EAD275C5DC36269B384DC138FE SWAP1 PUSH0 SWAP1 LOG3 POP POP PUSH2 0xE64 PUSH1 0x1 PUSH0 SSTORE JUMP JUMPDEST PUSH1 0x9 PUSH1 0x20 MSTORE DUP2 PUSH0 MSTORE PUSH1 0x40 PUSH0 KECCAK256 DUP2 DUP2 SLOAD DUP2 LT PUSH2 0x1327 JUMPI PUSH0 DUP1 REVERT JUMPDEST SWAP1 PUSH0 MSTORE PUSH1 0x20 PUSH0 KECCAK256 ADD PUSH0 SWAP2 POP SWAP2 POP POP SLOAD DUP2 JUMP JUMPDEST PUSH2 0x1372 PUSH1 0x40 MLOAD DUP1 PUSH1 0xE0 ADD PUSH1 0x40 MSTORE DUP1 PUSH0 DUP2 MSTORE PUSH1 0x20 ADD PUSH0 DUP2 MSTORE PUSH1 0x20 ADD PUSH0 DUP2 MSTORE PUSH1 0x20 ADD PUSH0 DUP2 MSTORE PUSH1 0x20 ADD PUSH0 DUP2 MSTORE PUSH1 0x20 ADD PUSH0 DUP2 MSTORE PUSH1 0x20 ADD PUSH0 DUP2 MSTORE POP SWAP1 JUMP JUMPDEST POP PUSH1 0x1 PUSH1 0x1 PUSH1 0xA0 SHL SUB AND PUSH0 SWAP1 DUP2 MSTORE PUSH1 0x8 PUSH1 0x20 SWAP1 DUP2 MSTORE PUSH1 0x40 SWAP2 DUP3 SWAP1 KECCAK256 DUP3 MLOAD PUSH1 0xE0 DUP2 ADD DUP5 MSTORE DUP2 SLOAD DUP2 MSTORE PUSH1 0x1 DUP3 ADD SLOAD SWAP3 DUP2 ADD SWAP3 SWAP1 SWAP3 MSTORE PUSH1 0x2 DUP2 ADD SLOAD SWAP3 DUP3 ADD SWAP3 SWAP1 SWAP3 MSTORE PUSH1 0x3 DUP3 ADD SLOAD PUSH1 0x60 DUP3 ADD MSTORE PUSH1 0x4 DUP3 ADD SLOAD PUSH1 0x80 DUP3 ADD MSTORE PUSH1 0x5 DUP3 ADD SLOAD PUSH1 0xA0 DUP3 ADD MSTORE PUSH1 0x6 SWAP1 SWAP2 ADD SLOAD PUSH1 0xC0 DUP3 ADD MSTORE SWAP1 JUMP JUMPDEST PUSH1 0x6 PUSH1 0x20 MSTORE DUP2 PUSH0 MSTORE PUSH1 0x40 PUSH0 KECCAK256 DUP2 DUP2 SLOAD DUP2 LT PUSH2 0x13F6 JUMPI PUSH0 DUP1 REVERT JUMPDEST PUSH0 SWAP2 DUP3 MSTORE PUSH1 0x20 SWAP1 SWAP2 KECCAK256 ADD SLOAD PUSH1 0x1 PUSH1 0x1 PUSH1 0xA0 SHL SUB AND SWAP2 POP DUP3 SWAP1 POP JUMP JUMPDEST PUSH2 0x1419 PUSH2 0x2129 JUMP JUMPDEST PUSH1 0x12 SSTORE JUMP JUMPDEST PUSH1 0xA PUSH1 0x20 MSTORE DUP2 PUSH0 MSTORE PUSH1 0x40 PUSH0 KECCAK256 DUP2 DUP2 SLOAD DUP2 LT PUSH2 0x1327 JUMPI PUSH0 DUP1 REVERT JUMPDEST PUSH1 0x1 PUSH1 0x1 PUSH1 0xA0 SHL SUB DUP2 AND PUSH0 SWAP1 DUP2 MSTORE PUSH1 0x8 PUSH1 0x20 MSTORE PUSH1 0x40 DUP2 KECCAK256 SLOAD PUSH1 0x32 DUP2 LT PUSH2 0x1460 JUMPI POP PUSH1 0x4 SWAP3 SWAP2 POP POP JUMP JUMPDEST PUSH1 0x1E DUP2 LT PUSH2 0x1471 JUMPI POP PUSH1 0x3 SWAP3 SWAP2 POP POP JUMP JUMPDEST PUSH1 0xF DUP2 LT PUSH2 0x1482 JUMPI POP PUSH1 0x2 SWAP3 SWAP2 POP POP JUMP JUMPDEST PUSH1 0x5 DUP2 LT PUSH2 0x1493 JUMPI POP PUSH1 0x1 SWAP3 SWAP2 POP POP JUMP JUMPDEST POP PUSH0 SWAP3 SWAP2 POP POP JUMP JUMPDEST PUSH2 0x14A3 PUSH2 0x1EEE JUMP JUMPDEST PUSH2 0x14AB PUSH2 0x1F16 JUMP JUMPDEST PUSH0 DUP2 DUP2 MSTORE PUSH1 0x4 PUSH1 0x20 MSTORE PUSH1 0x40 SWAP1 KECCAK256 PUSH1 0x2 PUSH1 0x4 DUP3 ADD SLOAD PUSH1 0xFF AND PUSH1 0x6 DUP2 GT ISZERO PUSH2 0x14D3 JUMPI PUSH2 0x14D3 PUSH2 0x2727 JUMP JUMPDEST EQ PUSH2 0x14F1 JUMPI PUSH1 0x40 MLOAD PUSH4 0x15FCFCA7 PUSH1 0xE2 SHL DUP2 MSTORE PUSH1 0x4 ADD PUSH1 0x40 MLOAD DUP1 SWAP2 SUB SWAP1 REVERT JUMPDEST DUP1 SLOAD PUSH1 0x1 PUSH1 0x1 PUSH1 0xA0 SHL SUB AND CALLER EQ PUSH2 0x151B JUMPI PUSH1 0x40 MLOAD PUSH4 0x5085C6A7 PUSH1 0xE0 SHL DUP2 MSTORE PUSH1 0x4 ADD PUSH1 0x40 MLOAD DUP1 SWAP2 SUB SWAP1 REVERT JUMPDEST PUSH1 0x11 SLOAD DUP2 PUSH1 0x8 ADD SLOAD PUSH2 0x152D SWAP2 SWAP1 PUSH2 0x2A23 JUMP JUMPDEST TIMESTAMP GT ISZERO PUSH2 0x154D JUMPI PUSH1 0x40 MLOAD PUSH4 0x234C0FFD PUSH1 0xE2 SHL DUP2 MSTORE PUSH1 0x4 ADD PUSH1 0x40 MLOAD DUP1 SWAP2 SUB SWAP1 REVERT JUMPDEST PUSH1 0x4 DUP2 DUP2 ADD DUP1 SLOAD PUSH1 0xFF NOT AND SWAP1 SWAP2 OR SWAP1 SSTORE DUP1 SLOAD PUSH1 0x1 PUSH1 0x1 PUSH1 0xA0 SHL SUB AND PUSH0 SWAP1 DUP2 MSTORE PUSH1 0x8 PUSH1 0x20 MSTORE PUSH1 0x40 DUP2 KECCAK256 PUSH1 0x5 ADD DUP1 SLOAD SWAP2 PUSH2 0x1584 DUP4 PUSH2 0x2A0B JUMP JUMPDEST SWAP1 SWAP2 SSTORE POP POP PUSH1 0x1 DUP2 ADD SLOAD PUSH1 0x1 PUSH1 0x1 PUSH1 0xA0 SHL SUB AND PUSH0 SWAP1 DUP2 MSTORE PUSH1 0x8 PUSH1 0x20 MSTORE PUSH1 0x40 DUP2 KECCAK256 PUSH1 0x4 ADD DUP1 SLOAD SWAP2 PUSH2 0x15B3 DUP4 PUSH2 0x2A0B JUMP JUMPDEST SWAP1 SWAP2 SSTORE POP POP PUSH1 0x40 MLOAD DUP3 SWAP1 PUSH32 0x765B57EF8D3683C90CB2AF2CC30B2D34CED9FBBF1E02759C3EF780AFED1E8CF4 SWAP1 PUSH0 SWAP1 LOG2 POP PUSH2 0xA0E PUSH1 0x1 PUSH0 SSTORE JUMP JUMPDEST PUSH1 0x7 PUSH1 0x20 MSTORE DUP2 PUSH0 MSTORE PUSH1 0x40 PUSH0 KECCAK256 DUP2 DUP2 SLOAD DUP2 LT PUSH2 0x1327 JUMPI PUSH0 DUP1 REVERT JUMPDEST PUSH2 0x160D PUSH2 0x1EEE JUMP JUMPDEST PUSH2 0x1615 PUSH2 0x2129 JUMP JUMPDEST PUSH0 DUP2 DUP2 MSTORE PUSH1 0x4 PUSH1 0x20 DUP2 SWAP1 MSTORE PUSH1 0x40 SWAP1 SWAP2 KECCAK256 SWAP1 PUSH1 0x4 DUP3 ADD SLOAD PUSH1 0xFF AND PUSH1 0x6 DUP2 GT ISZERO PUSH2 0x163F JUMPI PUSH2 0x163F PUSH2 0x2727 JUMP JUMPDEST EQ PUSH2 0x165D JUMPI PUSH1 0x40 MLOAD PUSH4 0x335C253 PUSH1 0xE2 SHL DUP2 MSTORE PUSH1 0x4 ADD PUSH1 0x40 MLOAD DUP1 SWAP2 SUB SWAP1 REVERT JUMPDEST PUSH1 0x4 DUP2 ADD DUP1 SLOAD PUSH1 0xFF NOT AND PUSH1 0x5 OR SWAP1 SSTORE PUSH1 0x13 SLOAD PUSH1 0x3 DUP3 ADD SLOAD PUSH0 SWAP2 PUSH2 0x2710 SWAP2 PUSH2 0x1684 SWAP2 SWAP1 PUSH2 0x2A49 JUMP JUMPDEST PUSH2 0x168E SWAP2 SWAP1 PUSH2 0x2A60 JUMP JUMPDEST SWAP1 POP PUSH0 DUP2 DUP4 PUSH1 0x3 ADD SLOAD PUSH2 0x16A1 SWAP2 SWAP1 PUSH2 0x2A36 JUMP JUMPDEST DUP4 SLOAD SWAP1 SWAP2 POP PUSH2 0x16DD SWAP1 PUSH1 0x1 PUSH1 0x1 PUSH1 0xA0 SHL SUB PUSH32 0x0 DUP2 AND SWAP2 AND DUP5 PUSH2 0x24E6 JUMP JUMPDEST DUP1 ISZERO PUSH2 0x171F JUMPI PUSH1 0x1 DUP4 ADD SLOAD PUSH2 0x171F SWAP1 PUSH1 0x1 PUSH1 0x1 PUSH1 0xA0 SHL SUB PUSH32 0x0 DUP2 AND SWAP2 AND DUP4 PUSH2 0x24E6 JUMP JUMPDEST PUSH1 0x40 DUP1 MLOAD DUP4 DUP2 MSTORE PUSH1 0x20 DUP2 ADD DUP4 SWAP1 MSTORE DUP6 SWAP2 PUSH32 0x58A2558343C2558557B34020FDD42DA40F54056195B7744918F27E2E19ADCC12 SWAP2 ADD PUSH1 0x40 MLOAD DUP1 SWAP2 SUB SWAP1 LOG2 POP POP POP PUSH2 0xA0E PUSH1 0x1 PUSH0 SSTORE JUMP JUMPDEST PUSH2 0x176E PUSH2 0x265D JUMP JUMPDEST POP PUSH0 DUP3 DUP2 MSTORE PUSH1 0x5 PUSH1 0x20 SWAP1 DUP2 MSTORE PUSH1 0x40 DUP1 DUP4 KECCAK256 PUSH1 0x1 PUSH1 0x1 PUSH1 0xA0 SHL SUB DUP1 DUP7 AND DUP6 MSTORE SWAP1 DUP4 MSTORE SWAP3 DUP2 SWAP1 KECCAK256 DUP2 MLOAD PUSH1 0xA0 DUP2 ADD DUP4 MSTORE DUP2 SLOAD SWAP1 SWAP5 AND DUP5 MSTORE PUSH1 0x1 DUP2 ADD SLOAD SWAP3 DUP5 ADD SWAP3 SWAP1 SWAP3 MSTORE PUSH1 0x2 DUP3 ADD SLOAD SWAP1 DUP4 ADD MSTORE PUSH1 0x3 DUP2 ADD SLOAD PUSH1 0x60 DUP4 ADD MSTORE PUSH1 0x4 ADD SLOAD PUSH1 0xFF AND ISZERO ISZERO PUSH1 0x80 DUP3 ADD MSTORE JUMPDEST SWAP3 SWAP2 POP POP JUMP JUMPDEST PUSH2 0x17DE PUSH2 0x1EEE JUMP JUMPDEST PUSH2 0x17E6 PUSH2 0x1F16 JUMP JUMPDEST PUSH0 DUP3 DUP2 MSTORE PUSH1 0x4 PUSH1 0x20 MSTORE PUSH1 0x40 SWAP1 KECCAK256 PUSH1 0x1 PUSH1 0x4 DUP3 ADD SLOAD PUSH1 0xFF AND PUSH1 0x6 DUP2 GT ISZERO PUSH2 0x180E JUMPI PUSH2 0x180E PUSH2 0x2727 JUMP JUMPDEST EQ PUSH2 0x182C JUMPI PUSH1 0x40 MLOAD PUSH4 0xABBFAC0D PUSH1 0xE0 SHL DUP2 MSTORE PUSH1 0x4 ADD PUSH1 0x40 MLOAD DUP1 SWAP2 SUB SWAP1 REVERT JUMPDEST PUSH1 0x1 DUP2 ADD SLOAD PUSH1 0x1 PUSH1 0x1 PUSH1 0xA0 SHL SUB AND CALLER EQ PUSH2 0x1859 JUMPI PUSH1 0x40 MLOAD PUSH4 0xE1B1BE19 PUSH1 0xE0 SHL DUP2 MSTORE PUSH1 0x4 ADD PUSH1 0x40 MLOAD DUP1 SWAP2 SUB SWAP1 REVERT JUMPDEST DUP2 PUSH2 0x18AB JUMPI PUSH1 0x40 MLOAD PUSH3 0x461BCD PUSH1 0xE5 SHL DUP2 MSTORE PUSH1 0x20 PUSH1 0x4 DUP3 ADD MSTORE PUSH1 0x18 PUSH1 0x24 DUP3 ADD MSTORE PUSH32 0x496E76616C69642064656C6976657261626C6520686173680000000000000000 PUSH1 0x44 DUP3 ADD MSTORE PUSH1 0x64 ADD JUMPDEST PUSH1 0x40 MLOAD DUP1 SWAP2 SUB SWAP1 REVERT JUMPDEST PUSH1 0x5 DUP2 ADD DUP3 SWAP1 SSTORE PUSH1 0x4 DUP2 ADD DUP1 SLOAD PUSH1 0xFF NOT AND PUSH1 0x2 OR SWAP1 SSTORE TIMESTAMP PUSH1 0x8 DUP3 ADD SSTORE PUSH1 0x40 MLOAD DUP3 DUP2 MSTORE DUP4 SWAP1 PUSH32 0x480DA4CCF65F8315CBA8BA88EC1E6CDC983D8CFF56CCC4C99AF625A3C74CE4DA SWAP1 PUSH1 0x20 ADD PUSH1 0x40 MLOAD DUP1 SWAP2 SUB SWAP1 LOG2 POP PUSH2 0xE64 PUSH1 0x1 PUSH0 SSTORE JUMP JUMPDEST PUSH2 0x190E PUSH2 0x1EEE JUMP JUMPDEST PUSH2 0x1916 PUSH2 0x1F16 JUMP JUMPDEST PUSH0 DUP4 DUP2 MSTORE PUSH1 0x4 PUSH1 0x20 MSTORE PUSH1 0x40 SWAP1 KECCAK256 DUP1 SLOAD PUSH1 0x1 PUSH1 0x1 PUSH1 0xA0 SHL SUB AND PUSH2 0x194B JUMPI PUSH1 0x40 MLOAD PUSH4 0xDA319DFF PUSH1 0xE0 SHL DUP2 MSTORE PUSH1 0x4 ADD PUSH1 0x40 MLOAD DUP1 SWAP2 SUB SWAP1 REVERT JUMPDEST PUSH0 PUSH1 0x4 DUP3 ADD SLOAD PUSH1 0xFF AND PUSH1 0x6 DUP2 GT ISZERO PUSH2 0x1965 JUMPI PUSH2 0x1965 PUSH2 0x2727 JUMP JUMPDEST EQ PUSH2 0x1983 JUMPI PUSH1 0x40 MLOAD PUSH4 0xFE894217 PUSH1 0xE0 SHL DUP2 MSTORE PUSH1 0x4 ADD PUSH1 0x40 MLOAD DUP1 SWAP2 SUB SWAP1 REVERT JUMPDEST DUP1 SLOAD PUSH1 0x1 PUSH1 0x1 PUSH1 0xA0 SHL SUB AND CALLER SUB PUSH2 0x19AD JUMPI PUSH1 0x40 MLOAD PUSH4 0x2FC366D5 PUSH1 0xE2 SHL DUP2 MSTORE PUSH1 0x4 ADD PUSH1 0x40 MLOAD DUP1 SWAP2 SUB SWAP1 REVERT JUMPDEST DUP3 PUSH0 SUB PUSH2 0x19CD JUMPI PUSH1 0x40 MLOAD PUSH4 0xAA04EEAD PUSH1 0xE0 SHL DUP2 MSTORE PUSH1 0x4 ADD PUSH1 0x40 MLOAD DUP1 SWAP2 SUB SWAP1 REVERT JUMPDEST DUP1 PUSH1 0x2 ADD SLOAD DUP4 GT ISZERO PUSH2 0x19F2 JUMPI PUSH1 0x40 MLOAD PUSH4 0x9F44ED7 PUSH1 0xE2 SHL DUP2 MSTORE PUSH1 0x4 ADD PUSH1 0x40 MLOAD DUP1 SWAP2 SUB SWAP1 REVERT JUMPDEST PUSH0 DUP5 DUP2 MSTORE PUSH1 0x5 PUSH1 0x20 SWAP1 DUP2 MSTORE PUSH1 0x40 DUP1 DUP4 KECCAK256 CALLER DUP5 MSTORE SWAP1 SWAP2 MSTORE SWAP1 KECCAK256 SLOAD PUSH1 0x1 PUSH1 0x1 PUSH1 0xA0 SHL SUB AND ISZERO PUSH2 0x1A32 JUMPI PUSH1 0x40 MLOAD PUSH4 0xB8CEE9F PUSH1 0xE4 SHL DUP2 MSTORE PUSH1 0x4 ADD PUSH1 0x40 MLOAD DUP1 SWAP2 SUB SWAP1 REVERT JUMPDEST PUSH2 0x1A3B CALLER PUSH2 0x240D JUMP JUMPDEST PUSH1 0x40 DUP1 MLOAD PUSH1 0xA0 DUP2 ADD DUP3 MSTORE CALLER DUP1 DUP3 MSTORE PUSH1 0x20 DUP1 DUP4 ADD DUP8 DUP2 MSTORE DUP4 DUP6 ADD DUP8 DUP2 MSTORE TIMESTAMP PUSH1 0x60 DUP7 ADD SWAP1 DUP2 MSTORE PUSH0 PUSH1 0x80 DUP8 ADD DUP2 DUP2 MSTORE DUP13 DUP3 MSTORE PUSH1 0x5 DUP7 MSTORE DUP9 DUP3 KECCAK256 DUP8 DUP4 MSTORE DUP7 MSTORE DUP9 DUP3 KECCAK256 SWAP8 MLOAD DUP9 SLOAD PUSH1 0x1 PUSH1 0x1 PUSH1 0xA0 SHL SUB SWAP2 SWAP1 SWAP2 AND PUSH1 0x1 PUSH1 0x1 PUSH1 0xA0 SHL SUB NOT SWAP2 DUP3 AND OR DUP10 SSTORE SWAP5 MLOAD PUSH1 0x1 DUP10 DUP2 ADD SWAP2 SWAP1 SWAP2 SSTORE SWAP4 MLOAD PUSH1 0x2 DUP10 ADD SSTORE SWAP2 MLOAD PUSH1 0x3 DUP9 ADD SSTORE SWAP1 MLOAD PUSH1 0x4 SWAP1 SWAP7 ADD DUP1 SLOAD SWAP7 ISZERO ISZERO PUSH1 0xFF NOT SWAP1 SWAP8 AND SWAP7 SWAP1 SWAP7 OR SWAP1 SWAP6 SSTORE DUP10 DUP6 MSTORE PUSH1 0x6 DUP4 MSTORE SWAP5 DUP5 KECCAK256 DUP1 SLOAD SWAP6 DUP7 ADD DUP2 SSTORE DUP5 MSTORE SWAP1 DUP4 KECCAK256 SWAP1 SWAP4 ADD DUP1 SLOAD SWAP1 SWAP4 AND OR SWAP1 SWAP2 SSTORE PUSH1 0xA DUP3 ADD DUP1 SLOAD SWAP2 PUSH2 0x1AFC DUP4 PUSH2 0x2A0B JUMP JUMPDEST SWAP1 SWAP2 SSTORE POP POP PUSH1 0x40 DUP1 MLOAD DUP5 DUP2 MSTORE PUSH1 0x20 DUP2 ADD DUP5 SWAP1 MSTORE CALLER SWAP2 DUP7 SWAP2 PUSH32 0xEF6D2C268E6C826F1B828EB961B739407D952AA5104E66B5EA600F36F7F0F21A SWAP2 ADD PUSH1 0x40 MLOAD DUP1 SWAP2 SUB SWAP1 LOG3 POP PUSH2 0x1B48 PUSH1 0x1 PUSH0 SSTORE JUMP JUMPDEST POP POP POP JUMP JUMPDEST PUSH2 0x1B55 PUSH2 0x2129 JUMP JUMPDEST PUSH1 0x1 PUSH1 0x1 PUSH1 0xA0 SHL SUB DUP2 AND PUSH2 0x1B7C JUMPI PUSH1 0x40 MLOAD PUSH4 0xED1B8B3 PUSH1 0xE3 SHL DUP2 MSTORE PUSH1 0x4 ADD PUSH1 0x40 MLOAD DUP1 SWAP2 SUB SWAP1 REVERT JUMPDEST PUSH1 0x3 DUP1 SLOAD PUSH1 0x1 PUSH1 0x1 PUSH1 0xA0 SHL SUB DUP4 DUP2 AND PUSH1 0x1 PUSH1 0x1 PUSH1 0xA0 SHL SUB NOT DUP4 AND DUP2 OR SWAP1 SWAP4 SSTORE PUSH1 0x40 DUP1 MLOAD SWAP2 SWAP1 SWAP3 AND DUP1 DUP3 MSTORE PUSH1 0x20 DUP3 ADD SWAP4 SWAP1 SWAP4 MSTORE PUSH32 0xAAEBCF1BFA00580E41D966056B48521FA9F202645C86D4DDF28113E617C1B1D3 SWAP2 ADD PUSH2 0xDD7 JUMP JUMPDEST PUSH2 0x1BDE PUSH2 0x2129 JUMP JUMPDEST PUSH1 0x10 SSTORE JUMP JUMPDEST PUSH2 0x1BEB PUSH2 0x1EEE JUMP JUMPDEST PUSH0 DUP2 DUP2 MSTORE PUSH1 0x4 PUSH1 0x20 MSTORE PUSH1 0x40 SWAP1 KECCAK256 DUP1 SLOAD PUSH1 0x1 PUSH1 0x1 PUSH1 0xA0 SHL SUB AND PUSH2 0x1C20 JUMPI PUSH1 0x40 MLOAD PUSH4 0xDA319DFF PUSH1 0xE0 SHL DUP2 MSTORE PUSH1 0x4 ADD PUSH1 0x40 MLOAD DUP1 SWAP2 SUB SWAP1 REVERT JUMPDEST PUSH0 PUSH1 0x4 DUP3 ADD SLOAD PUSH1 0xFF AND PUSH1 0x6 DUP2 GT ISZERO PUSH2 0x1C3A JUMPI PUSH2 0x1C3A PUSH2 0x2727 JUMP JUMPDEST EQ PUSH2 0x1C58 JUMPI PUSH1 0x40 MLOAD PUSH4 0xFE894217 PUSH1 0xE0 SHL DUP2 MSTORE PUSH1 0x4 ADD PUSH1 0x40 MLOAD DUP1 SWAP2 SUB SWAP1 REVERT JUMPDEST DUP1 SLOAD PUSH1 0x1 PUSH1 0x1 PUSH1 0xA0 SHL SUB AND CALLER EQ PUSH2 0x1C82 JUMPI PUSH1 0x40 MLOAD PUSH4 0x5085C6A7 PUSH1 0xE0 SHL DUP2 MSTORE PUSH1 0x4 ADD PUSH1 0x40 MLOAD DUP1 SWAP2 SUB SWAP1 REVERT JUMPDEST PUSH1 0x4 DUP2 ADD DUP1 SLOAD PUSH1 0xFF NOT AND PUSH1 0x6 OR SWAP1 SSTORE DUP1 SLOAD PUSH1 0x2 DUP3 ADD SLOAD PUSH2 0x1CD1 SWAP2 PUSH32 0x0 PUSH1 0x1 PUSH1 0x1 PUSH1 0xA0 SHL SUB SWAP1 DUP2 AND SWAP3 SWAP2 AND SWAP1 PUSH2 0x24E6 JUMP JUMPDEST DUP1 SLOAD PUSH1 0x40 MLOAD PUSH1 0x1 PUSH1 0x1 PUSH1 0xA0 SHL SUB SWAP1 SWAP2 AND SWAP1 DUP4 SWAP1 PUSH32 0x44D83729A43F9C6046446DF014D073DD242E0AD672071E9B292F31B669C25B09 SWAP1 PUSH0 SWAP1 LOG3 POP PUSH2 0xA0E PUSH1 0x1 PUSH0 SSTORE JUMP JUMPDEST PUSH2 0x1D1B PUSH2 0x1EEE JUMP JUMPDEST PUSH0 DUP2 DUP2 MSTORE PUSH1 0x4 PUSH1 0x20 MSTORE PUSH1 0x40 SWAP1 KECCAK256 PUSH1 0x2 PUSH1 0x4 DUP3 ADD SLOAD PUSH1 0xFF AND PUSH1 0x6 DUP2 GT ISZERO PUSH2 0x1D43 JUMPI PUSH2 0x1D43 PUSH2 0x2727 JUMP JUMPDEST EQ PUSH2 0x1D61 JUMPI PUSH1 0x40 MLOAD PUSH4 0x15FCFCA7 PUSH1 0xE2 SHL DUP2 MSTORE PUSH1 0x4 ADD PUSH1 0x40 MLOAD DUP1 SWAP2 SUB SWAP1 REVERT JUMPDEST PUSH1 0x12 SLOAD DUP2 PUSH1 0x8 ADD SLOAD PUSH2 0x1D73 SWAP2 SWAP1 PUSH2 0x2A23 JUMP JUMPDEST TIMESTAMP LT ISZERO PUSH2 0x9FA JUMPI PUSH1 0x40 MLOAD PUSH4 0xE05D403 PUSH1 0xE4 SHL DUP2 MSTORE PUSH1 0x4 ADD PUSH1 0x40 MLOAD DUP1 SWAP2 SUB SWAP1 REVERT JUMPDEST PUSH2 0x1D9B PUSH2 0x1EEE JUMP JUMPDEST PUSH2 0x1DA3 PUSH2 0x1F16 JUMP JUMPDEST PUSH0 DUP4 DUP2 MSTORE PUSH1 0x4 PUSH1 0x20 MSTORE PUSH1 0x40 SWAP1 KECCAK256 DUP1 SLOAD PUSH1 0x1 PUSH1 0x1 PUSH1 0xA0 SHL SUB AND PUSH2 0x1DD8 JUMPI PUSH1 0x40 MLOAD PUSH4 0xDA319DFF PUSH1 0xE0 SHL DUP2 MSTORE PUSH1 0x4 ADD PUSH1 0x40 MLOAD DUP1 SWAP2 SUB SWAP1 REVERT JUMPDEST PUSH1 0x1 DUP2 ADD SLOAD PUSH1 0x1 PUSH1 0x1 PUSH1 0xA0 SHL SUB AND CALLER EQ PUSH2 0x1E05 JUMPI PUSH1 0x40 MLOAD PUSH4 0xD6B2F97F PUSH1 0xE0 SHL DUP2 MSTORE PUSH1 0x4 ADD PUSH1 0x40 MLOAD DUP1 SWAP2 SUB SWAP1 REVERT JUMPDEST PUSH1 0x1 PUSH1 0x4 DUP3 ADD SLOAD PUSH1 0xFF AND PUSH1 0x6 DUP2 GT ISZERO PUSH2 0x1E20 JUMPI PUSH2 0x1E20 PUSH2 0x2727 JUMP JUMPDEST EQ PUSH2 0x1E3E JUMPI PUSH1 0x40 MLOAD PUSH4 0xABBFAC0D PUSH1 0xE0 SHL DUP2 MSTORE PUSH1 0x4 ADD PUSH1 0x40 MLOAD DUP1 SWAP2 SUB SWAP1 REVERT JUMPDEST PUSH2 0x1E49 DUP4 DUP4 DUP7 PUSH2 0x21AB JUMP JUMPDEST PUSH0 DUP5 DUP2 MSTORE PUSH1 0x7 PUSH1 0x20 SWAP1 DUP2 MSTORE PUSH1 0x40 DUP1 DUP4 KECCAK256 DUP1 SLOAD PUSH1 0x1 DUP2 ADD DUP3 SSTORE SWAP1 DUP5 MSTORE SWAP2 SWAP1 SWAP3 KECCAK256 ADD DUP5 SWAP1 SSTORE MLOAD CALLER SWAP1 DUP5 SWAP1 DUP7 SWAP1 PUSH32 0xA8FBC1664833C0000EC4104C2D4E046AFDEF3F29BD44B36BE042A0110EB45482 SWAP1 PUSH2 0x1EA2 SWAP1 DUP8 DUP2 MSTORE PUSH1 0x20 ADD SWAP1 JUMP JUMPDEST PUSH1 0x40 MLOAD DUP1 SWAP2 SUB SWAP1 LOG4 POP PUSH2 0x1B48 PUSH1 0x1 PUSH0 SSTORE JUMP JUMPDEST PUSH2 0x1EBC PUSH2 0x2129 JUMP JUMPDEST PUSH1 0x1 PUSH1 0x1 PUSH1 0xA0 SHL SUB DUP2 AND PUSH2 0x1EE5 JUMPI PUSH1 0x40 MLOAD PUSH4 0x1E4FBDF7 PUSH1 0xE0 SHL DUP2 MSTORE PUSH0 PUSH1 0x4 DUP3 ADD MSTORE PUSH1 0x24 ADD PUSH2 0x18A2 JUMP JUMPDEST PUSH2 0xA0E DUP2 PUSH2 0x2495 JUMP JUMPDEST PUSH1 0x2 PUSH0 SLOAD SUB PUSH2 0x1F10 JUMPI PUSH1 0x40 MLOAD PUSH4 0x3EE5AEB5 PUSH1 0xE0 SHL DUP2 MSTORE PUSH1 0x4 ADD PUSH1 0x40 MLOAD DUP1 SWAP2 SUB SWAP1 REVERT JUMPDEST PUSH1 0x2 PUSH0 SSTORE JUMP JUMPDEST PUSH1 0x1 SLOAD PUSH1 0x1 PUSH1 0xA0 SHL SWAP1 DIV PUSH1 0xFF AND ISZERO PUSH2 0xB79 JUMPI PUSH1 0x40 MLOAD PUSH4 0xD93C0665 PUSH1 0xE0 SHL DUP2 MSTORE PUSH1 0x4 ADD PUSH1 0x40 MLOAD DUP1 SWAP2 SUB SWAP1 REVERT JUMPDEST PUSH1 0x4 DUP2 ADD DUP1 SLOAD PUSH1 0xFF NOT AND PUSH1 0x3 SWAP1 DUP2 OR SWAP1 SWAP2 SSTORE PUSH1 0x2 SLOAD SWAP1 DUP3 ADD SLOAD PUSH0 SWAP2 PUSH2 0x2710 SWAP2 PUSH2 0x1F6A SWAP2 SWAP1 PUSH2 0x2A49 JUMP JUMPDEST PUSH2 0x1F74 SWAP2 SWAP1 PUSH2 0x2A60 JUMP JUMPDEST SWAP1 POP PUSH0 DUP2 DUP4 PUSH1 0x3 ADD SLOAD PUSH2 0x1F87 SWAP2 SWAP1 PUSH2 0x2A36 JUMP JUMPDEST SWAP1 POP DUP2 ISZERO PUSH2 0x1FE0 JUMPI PUSH1 0x3 SLOAD PUSH2 0x1FC9 SWAP1 PUSH1 0x1 PUSH1 0x1 PUSH1 0xA0 SHL SUB PUSH32 0x0 DUP2 AND SWAP2 AND DUP5 PUSH2 0x24E6 JUMP JUMPDEST DUP2 PUSH1 0xE PUSH0 DUP3 DUP3 SLOAD PUSH2 0x1FDA SWAP2 SWAP1 PUSH2 0x2A23 JUMP JUMPDEST SWAP1 SWAP2 SSTORE POP POP JUMPDEST PUSH1 0x1 DUP4 ADD SLOAD PUSH2 0x201C SWAP1 PUSH1 0x1 PUSH1 0x1 PUSH1 0xA0 SHL SUB PUSH32 0x0 DUP2 AND SWAP2 AND DUP4 PUSH2 0x24E6 JUMP JUMPDEST PUSH1 0x1 DUP4 ADD SLOAD PUSH1 0x1 PUSH1 0x1 PUSH1 0xA0 SHL SUB AND PUSH0 SWAP1 DUP2 MSTORE PUSH1 0x8 PUSH1 0x20 MSTORE PUSH1 0x40 DUP2 KECCAK256 DUP1 SLOAD SWAP2 PUSH2 0x2043 DUP4 PUSH2 0x2A0B JUMP JUMPDEST SWAP1 SWAP2 SSTORE POP POP PUSH1 0x1 DUP4 ADD SLOAD PUSH1 0x1 PUSH1 0x1 PUSH1 0xA0 SHL SUB AND PUSH0 SWAP1 DUP2 MSTORE PUSH1 0x8 PUSH1 0x20 MSTORE PUSH1 0x40 DUP2 KECCAK256 PUSH1 0x2 ADD DUP1 SLOAD DUP4 SWAP3 SWAP1 PUSH2 0x2076 SWAP1 DUP5 SWAP1 PUSH2 0x2A23 JUMP JUMPDEST SWAP1 SWAP2 SSTORE POP POP PUSH1 0x1 DUP1 DUP5 ADD SLOAD PUSH1 0x1 PUSH1 0x1 PUSH1 0xA0 SHL SUB AND PUSH0 SWAP1 DUP2 MSTORE PUSH1 0x9 PUSH1 0x20 SWAP1 DUP2 MSTORE PUSH1 0x40 DUP3 KECCAK256 DUP1 SLOAD SWAP4 DUP5 ADD DUP2 SSTORE DUP3 MSTORE DUP2 KECCAK256 SWAP1 SWAP2 ADD DUP6 SWAP1 SSTORE PUSH1 0xC DUP1 SLOAD SWAP2 PUSH2 0x20B8 DUP4 PUSH2 0x2A0B JUMP JUMPDEST SWAP2 SWAP1 POP SSTORE POP DUP3 PUSH1 0x3 ADD SLOAD PUSH1 0xD PUSH0 DUP3 DUP3 SLOAD PUSH2 0x20D2 SWAP2 SWAP1 PUSH2 0x2A23 JUMP JUMPDEST SWAP1 SWAP2 SSTORE POP POP PUSH1 0x1 DUP4 ADD SLOAD PUSH1 0x40 DUP1 MLOAD DUP4 DUP2 MSTORE PUSH1 0x20 DUP2 ADD DUP6 SWAP1 MSTORE PUSH1 0x1 PUSH1 0x1 PUSH1 0xA0 SHL SUB SWAP1 SWAP3 AND SWAP2 DUP7 SWAP2 PUSH32 0xE5E356644794526FE6EF15B4A65CCBC570EEA7F640EA5D636D2B74776C501FA7 SWAP2 ADD PUSH1 0x40 MLOAD DUP1 SWAP2 SUB SWAP1 LOG3 POP POP POP POP JUMP JUMPDEST PUSH1 0x1 SLOAD PUSH1 0x1 PUSH1 0x1 PUSH1 0xA0 SHL SUB AND CALLER EQ PUSH2 0xB79 JUMPI PUSH1 0x40 MLOAD PUSH4 0x118CDAA7 PUSH1 0xE0 SHL DUP2 MSTORE CALLER PUSH1 0x4 DUP3 ADD MSTORE PUSH1 0x24 ADD PUSH2 0x18A2 JUMP JUMPDEST PUSH2 0x215E PUSH2 0x2588 JUMP JUMPDEST PUSH1 0x1 DUP1 SLOAD PUSH1 0xFF PUSH1 0xA0 SHL NOT AND SWAP1 SSTORE PUSH32 0x5DB9EE0A495BF2E6FF9C91A7834C1BA4FDD244A5E8AA4E537BD38AEAE4B073AA CALLER JUMPDEST PUSH1 0x40 MLOAD PUSH1 0x1 PUSH1 0x1 PUSH1 0xA0 SHL SUB SWAP1 SWAP2 AND DUP2 MSTORE PUSH1 0x20 ADD PUSH1 0x40 MLOAD DUP1 SWAP2 SUB SWAP1 LOG1 JUMP JUMPDEST PUSH0 DUP4 DUP2 MSTORE PUSH1 0x4 PUSH1 0x20 MSTORE PUSH1 0x40 SWAP1 KECCAK256 SLOAD PUSH1 0x1 PUSH1 0x1 PUSH1 0xA0 SHL SUB AND ISZERO PUSH2 0x21E0 JUMPI PUSH1 0x40 MLOAD PUSH4 0xF2E16B03 PUSH1 0xE0 SHL DUP2 MSTORE PUSH1 0x4 ADD PUSH1 0x40 MLOAD DUP1 SWAP2 SUB SWAP1 REVERT JUMPDEST DUP2 PUSH0 SUB PUSH2 0x2200 JUMPI PUSH1 0x40 MLOAD PUSH4 0xCE8338ED PUSH1 0xE0 SHL DUP2 MSTORE PUSH1 0x4 ADD PUSH1 0x40 MLOAD DUP1 SWAP2 SUB SWAP1 REVERT JUMPDEST PUSH2 0x2235 PUSH1 0x1 PUSH1 0x1 PUSH1 0xA0 SHL SUB PUSH32 0x0 AND CALLER ADDRESS DUP6 PUSH2 0x25B2 JUMP JUMPDEST PUSH1 0x40 DUP1 MLOAD PUSH2 0x160 DUP2 ADD DUP3 MSTORE CALLER DUP2 MSTORE PUSH0 PUSH1 0x20 DUP1 DUP4 ADD DUP3 DUP2 MSTORE DUP4 DUP6 ADD DUP8 DUP2 MSTORE PUSH1 0x60 DUP6 ADD DUP9 DUP2 MSTORE PUSH1 0x80 DUP7 ADD DUP6 DUP2 MSTORE PUSH1 0xA0 DUP8 ADD DUP7 SWAP1 MSTORE TIMESTAMP PUSH1 0xC0 DUP9 ADD MSTORE PUSH1 0xE0 DUP8 ADD DUP7 SWAP1 MSTORE PUSH2 0x100 DUP8 ADD DUP7 SWAP1 MSTORE PUSH2 0x120 DUP8 ADD DUP10 SWAP1 MSTORE PUSH2 0x140 DUP8 ADD DUP7 SWAP1 MSTORE DUP11 DUP7 MSTORE PUSH1 0x4 SWAP5 DUP6 SWAP1 MSTORE SWAP7 SWAP1 SWAP5 KECCAK256 DUP6 MLOAD DUP2 SLOAD PUSH1 0x1 PUSH1 0x1 PUSH1 0xA0 SHL SUB NOT SWAP1 DUP2 AND PUSH1 0x1 PUSH1 0x1 PUSH1 0xA0 SHL SUB SWAP3 DUP4 AND OR DUP4 SSTORE SWAP4 MLOAD PUSH1 0x1 DUP1 DUP5 ADD DUP1 SLOAD SWAP1 SWAP7 AND SWAP2 SWAP1 SWAP3 AND OR SWAP1 SWAP4 SSTORE SWAP1 MLOAD PUSH1 0x2 DUP3 ADD SSTORE SWAP3 MLOAD PUSH1 0x3 DUP5 ADD SSTORE SWAP4 MLOAD SWAP1 DUP3 ADD DUP1 SLOAD SWAP4 SWAP5 SWAP3 SWAP4 SWAP2 SWAP3 SWAP1 SWAP2 PUSH1 0xFF NOT AND SWAP1 DUP4 PUSH1 0x6 DUP2 GT ISZERO PUSH2 0x22FF JUMPI PUSH2 0x22FF PUSH2 0x2727 JUMP JUMPDEST MUL OR SWAP1 SSTORE POP PUSH1 0xA0 DUP3 ADD MLOAD PUSH1 0x5 DUP3 ADD SSTORE PUSH1 0xC0 DUP3 ADD MLOAD PUSH1 0x6 DUP3 ADD SSTORE PUSH1 0xE0 DUP3 ADD MLOAD PUSH1 0x7 DUP3 ADD SSTORE PUSH2 0x100 DUP3 ADD MLOAD PUSH1 0x8 DUP3 ADD SSTORE PUSH2 0x120 DUP3 ADD MLOAD PUSH1 0x9 DUP3 ADD SSTORE PUSH2 0x140 SWAP1 SWAP2 ADD MLOAD PUSH1 0xA SWAP1 SWAP2 ADD SSTORE PUSH2 0x234E CALLER PUSH2 0x240D JUMP JUMPDEST CALLER PUSH0 SWAP1 DUP2 MSTORE PUSH1 0x8 PUSH1 0x20 MSTORE PUSH1 0x40 DUP2 KECCAK256 PUSH1 0x1 ADD DUP1 SLOAD SWAP2 PUSH2 0x236B DUP4 PUSH2 0x2A0B JUMP JUMPDEST SWAP1 SWAP2 SSTORE POP POP CALLER PUSH0 SWAP1 DUP2 MSTORE PUSH1 0x8 PUSH1 0x20 MSTORE PUSH1 0x40 DUP2 KECCAK256 PUSH1 0x3 ADD DUP1 SLOAD DUP5 SWAP3 SWAP1 PUSH2 0x2391 SWAP1 DUP5 SWAP1 PUSH2 0x2A23 JUMP JUMPDEST SWAP1 SWAP2 SSTORE POP POP CALLER PUSH0 SWAP1 DUP2 MSTORE PUSH1 0xA PUSH1 0x20 SWAP1 DUP2 MSTORE PUSH1 0x40 DUP3 KECCAK256 DUP1 SLOAD PUSH1 0x1 DUP2 ADD DUP3 SSTORE SWAP1 DUP4 MSTORE SWAP1 DUP3 KECCAK256 ADD DUP5 SWAP1 SSTORE PUSH1 0xB DUP1 SLOAD SWAP2 PUSH2 0x23C6 DUP4 PUSH2 0x2A0B JUMP JUMPDEST SWAP1 SWAP2 SSTORE POP POP PUSH1 0x40 DUP1 MLOAD DUP4 DUP2 MSTORE PUSH1 0x20 DUP2 ADD DUP4 SWAP1 MSTORE CALLER SWAP2 DUP6 SWAP2 PUSH32 0x2B6D0A485834BBF18C00F1C929F83B527C3D517653AD7206E356AF51190E9B36 SWAP2 ADD PUSH1 0x40 MLOAD DUP1 SWAP2 SUB SWAP1 LOG3 POP POP POP JUMP JUMPDEST PUSH1 0x1 PUSH1 0x1 PUSH1 0xA0 SHL SUB DUP2 AND PUSH0 SWAP1 DUP2 MSTORE PUSH1 0x8 PUSH1 0x20 MSTORE PUSH1 0x40 DUP2 KECCAK256 PUSH1 0x6 ADD SLOAD SWAP1 SUB PUSH2 0xA0E JUMPI PUSH1 0x1 PUSH1 0x1 PUSH1 0xA0 SHL SUB DUP2 AND PUSH0 SWAP1 DUP2 MSTORE PUSH1 0x8 PUSH1 0x20 MSTORE PUSH1 0x40 DUP2 KECCAK256 TIMESTAMP PUSH1 0x6 SWAP1 SWAP2 ADD SSTORE PUSH1 0xF DUP1 SLOAD SWAP2 PUSH2 0x245A DUP4 PUSH2 0x2A0B JUMP JUMPDEST SWAP1 SWAP2 SSTORE POP POP PUSH1 0x40 MLOAD PUSH1 0x1 PUSH1 0x1 PUSH1 0xA0 SHL SUB DUP3 AND SWAP1 PUSH32 0x82D0829D9D481E4CB9913897F9B9C903271C4DB68C7B3324071D2A7E3B2C5FF0 SWAP1 PUSH0 SWAP1 LOG2 POP JUMP JUMPDEST PUSH1 0x1 DUP1 SLOAD PUSH1 0x1 PUSH1 0x1 PUSH1 0xA0 SHL SUB DUP4 DUP2 AND PUSH1 0x1 PUSH1 0x1 PUSH1 0xA0 SHL SUB NOT DUP4 AND DUP2 OR SWAP1 SWAP4 SSTORE PUSH1 0x40 MLOAD SWAP2 AND SWAP2 SWAP1 DUP3 SWAP1 PUSH32 0x8BE0079C531659141344CD1FD0A4F28419497F9722A3DAAFE3B4186F6B6457E0 SWAP1 PUSH0 SWAP1 LOG3 POP POP JUMP JUMPDEST PUSH1 0x40 MLOAD PUSH1 0x1 PUSH1 0x1 PUSH1 0xA0 SHL SUB DUP4 DUP2 AND PUSH1 0x24 DUP4 ADD MSTORE PUSH1 0x44 DUP3 ADD DUP4 SWAP1 MSTORE PUSH2 0x1B48 SWAP2 DUP6 SWAP2 DUP3 AND SWAP1 PUSH4 0xA9059CBB SWAP1 PUSH1 0x64 ADD JUMPDEST PUSH1 0x40 MLOAD PUSH1 0x20 DUP2 DUP4 SUB SUB DUP2 MSTORE SWAP1 PUSH1 0x40 MSTORE SWAP2 POP PUSH1 0xE0 SHL PUSH1 0x20 DUP3 ADD DUP1 MLOAD PUSH1 0x1 PUSH1 0x1 PUSH1 0xE0 SHL SUB DUP4 DUP2 DUP4 AND OR DUP4 MSTORE POP POP POP POP PUSH2 0x25F1 JUMP JUMPDEST PUSH2 0x254D PUSH2 0x1F16 JUMP JUMPDEST PUSH1 0x1 DUP1 SLOAD PUSH1 0xFF PUSH1 0xA0 SHL NOT AND PUSH1 0x1 PUSH1 0xA0 SHL OR SWAP1 SSTORE PUSH32 0x62E78CEA01BEE320CD4E420270B5EA74000D11B0C9F74754EBDBFC544B05A258 PUSH2 0x218E CALLER SWAP1 JUMP JUMPDEST PUSH1 0x1 SLOAD PUSH1 0x1 PUSH1 0xA0 SHL SWAP1 DIV PUSH1 0xFF AND PUSH2 0xB79 JUMPI PUSH1 0x40 MLOAD PUSH4 0x8DFC202B PUSH1 0xE0 SHL DUP2 MSTORE PUSH1 0x4 ADD PUSH1 0x40 MLOAD DUP1 SWAP2 SUB SWAP1 REVERT JUMPDEST PUSH1 0x40 MLOAD PUSH1 0x1 PUSH1 0x1 PUSH1 0xA0 SHL SUB DUP5 DUP2 AND PUSH1 0x24 DUP4 ADD MSTORE DUP4 DUP2 AND PUSH1 0x44 DUP4 ADD MSTORE PUSH1 0x64 DUP3 ADD DUP4 SWAP1 MSTORE PUSH2 0x25EB SWAP2 DUP7 SWAP2 DUP3 AND SWAP1 PUSH4 0x23B872DD SWAP1 PUSH1 0x84 ADD PUSH2 0x2513 JUMP JUMPDEST POP POP POP POP JUMP JUMPDEST PUSH0 DUP1 PUSH1 0x20 PUSH0 DUP5 MLOAD PUSH1 0x20 DUP7 ADD PUSH0 DUP9 GAS CALL DUP1 PUSH2 0x2610 JUMPI PUSH1 0x40 MLOAD RETURNDATASIZE PUSH0 DUP3 RETURNDATACOPY RETURNDATASIZE DUP2 REVERT JUMPDEST POP POP PUSH0 MLOAD RETURNDATASIZE SWAP2 POP DUP2 ISZERO PUSH2 0x2627 JUMPI DUP1 PUSH1 0x1 EQ ISZERO PUSH2 0x2634 JUMP JUMPDEST PUSH1 0x1 PUSH1 0x1 PUSH1 0xA0 SHL SUB DUP5 AND EXTCODESIZE ISZERO JUMPDEST ISZERO PUSH2 0x25EB JUMPI PUSH1 0x40 MLOAD PUSH4 0x5274AFE7 PUSH1 0xE0 SHL DUP2 MSTORE PUSH1 0x1 PUSH1 0x1 PUSH1 0xA0 SHL SUB DUP6 AND PUSH1 0x4 DUP3 ADD MSTORE PUSH1 0x24 ADD PUSH2 0x18A2 JUMP JUMPDEST PUSH1 0x40 MLOAD DUP1 PUSH1 0xA0 ADD PUSH1 0x40 MSTORE DUP1 PUSH0 PUSH1 0x1 PUSH1 0x1 PUSH1 0xA0 SHL SUB AND DUP2 MSTORE PUSH1 0x20 ADD PUSH0 DUP2 MSTORE PUSH1 0x20 ADD PUSH0 DUP2 MSTORE PUSH1 0x20 ADD PUSH0 DUP2 MSTORE PUSH1 0x20 ADD PUSH0 ISZERO ISZERO DUP2 MSTORE POP SWAP1 JUMP JUMPDEST DUP1 CALLDATALOAD PUSH1 0x1 PUSH1 0x1 PUSH1 0xA0 SHL SUB DUP2 AND DUP2 EQ PUSH2 0x26A8 JUMPI PUSH0 DUP1 REVERT JUMPDEST SWAP2 SWAP1 POP JUMP JUMPDEST PUSH0 PUSH1 0x20 DUP3 DUP5 SUB SLT ISZERO PUSH2 0x26BD JUMPI PUSH0 DUP1 REVERT JUMPDEST PUSH2 0x26C6 DUP3 PUSH2 0x2692 JUMP JUMPDEST SWAP4 SWAP3 POP POP POP JUMP JUMPDEST PUSH1 0x20 DUP1 DUP3 MSTORE DUP3 MLOAD DUP3 DUP3 ADD DUP2 SWAP1 MSTORE PUSH0 SWAP2 SWAP1 DUP5 DUP3 ADD SWAP1 PUSH1 0x40 DUP6 ADD SWAP1 DUP5 JUMPDEST DUP2 DUP2 LT ISZERO PUSH2 0x2704 JUMPI DUP4 MLOAD DUP4 MSTORE SWAP3 DUP5 ADD SWAP3 SWAP2 DUP5 ADD SWAP2 PUSH1 0x1 ADD PUSH2 0x26E8 JUMP JUMPDEST POP SWAP1 SWAP7 SWAP6 POP POP POP POP POP POP JUMP JUMPDEST PUSH0 PUSH1 0x20 DUP3 DUP5 SUB SLT ISZERO PUSH2 0x2720 JUMPI PUSH0 DUP1 REVERT JUMPDEST POP CALLDATALOAD SWAP2 SWAP1 POP JUMP JUMPDEST PUSH4 0x4E487B71 PUSH1 0xE0 SHL PUSH0 MSTORE PUSH1 0x21 PUSH1 0x4 MSTORE PUSH1 0x24 PUSH0 REVERT JUMPDEST PUSH1 0x7 DUP2 LT PUSH2 0x2757 JUMPI PUSH4 0x4E487B71 PUSH1 0xE0 SHL PUSH0 MSTORE PUSH1 0x21 PUSH1 0x4 MSTORE PUSH1 0x24 PUSH0 REVERT JUMPDEST SWAP1 MSTORE JUMP JUMPDEST DUP2 MLOAD PUSH1 0x1 PUSH1 0x1 PUSH1 0xA0 SHL SUB AND DUP2 MSTORE PUSH2 0x160 DUP2 ADD PUSH1 0x20 DUP4 ADD MLOAD PUSH2 0x2787 PUSH1 0x20 DUP5 ADD DUP3 PUSH1 0x1 PUSH1 0x1 PUSH1 0xA0 SHL SUB AND SWAP1 MSTORE JUMP JUMPDEST POP PUSH1 0x40 DUP4 ADD MLOAD PUSH1 0x40 DUP4 ADD MSTORE PUSH1 0x60 DUP4 ADD MLOAD PUSH1 0x60 DUP4 ADD MSTORE PUSH1 0x80 DUP4 ADD MLOAD PUSH2 0x27AE PUSH1 0x80 DUP5 ADD DUP3 PUSH2 0x273B JUMP JUMPDEST POP PUSH1 0xA0 DUP4 ADD MLOAD PUSH1 0xA0 DUP4 ADD MSTORE PUSH1 0xC0 DUP4 ADD MLOAD PUSH1 0xC0 DUP4 ADD MSTORE PUSH1 0xE0 DUP4 ADD MLOAD PUSH1 0xE0 DUP4 ADD MSTORE PUSH2 0x100 DUP1 DUP5 ADD MLOAD DUP2 DUP5 ADD MSTORE POP PUSH2 0x120 DUP1 DUP5 ADD MLOAD DUP2 DUP5 ADD MSTORE POP PUSH2 0x140 DUP1 DUP5 ADD MLOAD DUP2 DUP5 ADD MSTORE POP SWAP3 SWAP2 POP POP JUMP JUMPDEST DUP1 MLOAD PUSH1 0x1 PUSH1 0x1 PUSH1 0xA0 SHL SUB AND DUP3 MSTORE PUSH1 0x20 DUP1 DUP3 ADD MLOAD SWAP1 DUP4 ADD MSTORE PUSH1 0x40 DUP1 DUP3 ADD MLOAD SWAP1 DUP4 ADD MSTORE PUSH1 0x60 DUP1 DUP3 ADD MLOAD SWAP1 DUP4 ADD MSTORE PUSH1 0x80 SWAP1 DUP2 ADD MLOAD ISZERO ISZERO SWAP2 ADD MSTORE JUMP JUMPDEST PUSH1 0x40 DUP1 DUP3 MSTORE DUP4 MLOAD SWAP1 DUP3 ADD DUP2 SWAP1 MSTORE PUSH0 SWAP1 PUSH1 0x20 SWAP1 PUSH1 0x60 DUP5 ADD SWAP1 DUP3 DUP8 ADD DUP5 JUMPDEST DUP3 DUP2 LT ISZERO PUSH2 0x2870 JUMPI DUP2 MLOAD PUSH1 0x1 PUSH1 0x1 PUSH1 0xA0 SHL SUB AND DUP5 MSTORE SWAP3 DUP5 ADD SWAP3 SWAP1 DUP5 ADD SWAP1 PUSH1 0x1 ADD PUSH2 0x284B JUMP JUMPDEST POP POP POP DUP4 DUP2 SUB DUP3 DUP6 ADD MSTORE DUP5 MLOAD DUP1 DUP3 MSTORE DUP6 DUP4 ADD SWAP2 DUP4 ADD SWAP1 PUSH0 JUMPDEST DUP2 DUP2 LT ISZERO PUSH2 0x28AE JUMPI PUSH2 0x289B DUP4 DUP6 MLOAD PUSH2 0x27F7 JUMP JUMPDEST SWAP3 DUP5 ADD SWAP3 PUSH1 0xA0 SWAP3 SWAP1 SWAP3 ADD SWAP2 PUSH1 0x1 ADD PUSH2 0x2888 JUMP JUMPDEST POP SWAP1 SWAP8 SWAP7 POP POP POP POP POP POP POP JUMP JUMPDEST PUSH0 DUP1 PUSH1 0x40 DUP4 DUP6 SUB SLT ISZERO PUSH2 0x28CC JUMPI PUSH0 DUP1 REVERT JUMPDEST POP POP DUP1 CALLDATALOAD SWAP3 PUSH1 0x20 SWAP1 SWAP2 ADD CALLDATALOAD SWAP2 POP JUMP JUMPDEST PUSH0 DUP1 PUSH1 0x40 DUP4 DUP6 SUB SLT ISZERO PUSH2 0x28EC JUMPI PUSH0 DUP1 REVERT JUMPDEST DUP3 CALLDATALOAD SWAP2 POP PUSH2 0x28FC PUSH1 0x20 DUP5 ADD PUSH2 0x2692 JUMP JUMPDEST SWAP1 POP SWAP3 POP SWAP3 SWAP1 POP JUMP JUMPDEST PUSH0 DUP1 PUSH1 0x40 DUP4 DUP6 SUB SLT ISZERO PUSH2 0x2916 JUMPI PUSH0 DUP1 REVERT JUMPDEST PUSH2 0x291F DUP4 PUSH2 0x2692 JUMP JUMPDEST SWAP5 PUSH1 0x20 SWAP4 SWAP1 SWAP4 ADD CALLDATALOAD SWAP4 POP POP POP JUMP JUMPDEST PUSH1 0xA0 DUP2 ADD PUSH2 0x17D0 DUP3 DUP5 PUSH2 0x27F7 JUMP JUMPDEST PUSH0 DUP1 PUSH0 PUSH1 0x60 DUP5 DUP7 SUB SLT ISZERO PUSH2 0x294D JUMPI PUSH0 DUP1 REVERT JUMPDEST POP POP DUP2 CALLDATALOAD SWAP4 PUSH1 0x20 DUP4 ADD CALLDATALOAD SWAP4 POP PUSH1 0x40 SWAP1 SWAP3 ADD CALLDATALOAD SWAP2 SWAP1 POP JUMP JUMPDEST PUSH1 0x1 PUSH1 0x1 PUSH1 0xA0 SHL SUB DUP13 DUP2 AND DUP3 MSTORE DUP12 AND PUSH1 0x20 DUP3 ADD MSTORE PUSH1 0x40 DUP2 ADD DUP11 SWAP1 MSTORE PUSH1 0x60 DUP2 ADD DUP10 SWAP1 MSTORE PUSH2 0x160 DUP2 ADD PUSH2 0x2998 PUSH1 0x80 DUP4 ADD DUP11 PUSH2 0x273B JUMP JUMPDEST DUP8 PUSH1 0xA0 DUP4 ADD MSTORE DUP7 PUSH1 0xC0 DUP4 ADD MSTORE DUP6 PUSH1 0xE0 DUP4 ADD MSTORE DUP5 PUSH2 0x100 DUP4 ADD MSTORE DUP4 PUSH2 0x120 DUP4 ADD MSTORE DUP3 PUSH2 0x140 DUP4 ADD MSTORE SWAP13 SWAP12 POP POP POP POP POP POP POP POP POP POP POP POP JUMP JUMPDEST PUSH4 0x4E487B71 PUSH1 0xE0 SHL PUSH0 MSTORE PUSH1 0x41 PUSH1 0x4 MSTORE PUSH1 0x24 PUSH0 REVERT JUMPDEST PUSH4 0x4E487B71 PUSH1 0xE0 SHL PUSH0 MSTORE PUSH1 0x32 PUSH1 0x4 MSTORE PUSH1 0x24 PUSH0 REVERT JUMPDEST PUSH4 0x4E487B71 PUSH1 0xE0 SHL PUSH0 MSTORE PUSH1 0x11 PUSH1 0x4 MSTORE PUSH1 0x24 PUSH0 REVERT JUMPDEST PUSH0 PUSH1 0x1 DUP3 ADD PUSH2 0x2A1C JUMPI PUSH2 0x2A1C PUSH2 0x29F7 JUMP JUMPDEST POP PUSH1 0x1 ADD SWAP1 JUMP JUMPDEST DUP1 DUP3 ADD DUP1 DUP3 GT ISZERO PUSH2 0x17D0 JUMPI PUSH2 0x17D0 PUSH2 0x29F7 JUMP JUMPDEST DUP2 DUP2 SUB DUP2 DUP2 GT ISZERO PUSH2 0x17D0 JUMPI PUSH2 0x17D0 PUSH2 0x29F7 JUMP JUMPDEST DUP1 DUP3 MUL DUP2 ISZERO DUP3 DUP3 DIV DUP5 EQ OR PUSH2 0x17D0 JUMPI PUSH2 0x17D0 PUSH2 0x29F7 JUMP JUMPDEST PUSH0 DUP3 PUSH2 0x2A7A JUMPI PUSH4 0x4E487B71 PUSH1 0xE0 SHL PUSH0 MSTORE PUSH1 0x12 PUSH1 0x4 MSTORE PUSH1 0x24 PUSH0 REVERT JUMPDEST POP DIV SWAP1 JUMP INVALID LOG2 PUSH5 0x6970667358 0x22 SLT KECCAK256 GASPRICE PREVRANDAO DUP15 0xCA 0xC3 SWAP13 BYTE DUP13 SWAP15 NUMBER 0x5E PUSH25 0xB202E8A549171D42EA0BF7DEE601DDC5A65B569564736F6C63 NUMBER STOP ADDMOD EQ STOP CALLER "},"methodIdentifiers":{"BPS_DENOMINATOR()":"e1a45218","MAX_FEE_BPS()":"d55be8c6","acceptBid(bytes32,address)":"888a7934","agentTasksCompleted(address,uint256)":"8deff864","agentTasksPosted(address,uint256)":"a5aed1ad","approveTask(bytes32)":"0ccce304","autoApprove(bytes32)":"f08f6ea0","autoApproveWindow()":"9bbeabda","bidOnTask(bytes32,uint256,uint256)":"d4fa5d61","cancelTask(bytes32)":"ee8ca3b5","claimTask(bytes32)":"70f8c6f9","claimTimeout()":"0e1da6c3","createSubtask(bytes32,bytes32,uint256)":"f2444b0d","createTask(bytes32,uint256)":"6fbb5f62","disputePosterShareBps()":"13578c37","disputeTask(bytes32)":"bbacc591","disputeWindow()":"117f5f92","feeRecipient()":"46904840","getAgentCompletedTasks(address)":"67e2fe9c","getAgentPostedTasks(address)":"08abfe9f","getAgentTier(address)":"ba4852b6","getBid(bytes32,address)":"d0ba5264","getReputation(address)":"9c89a0e2","getStats()":"c59d4847","getSubtasks(bytes32)":"6c51c0f1","getTask(bytes32)":"15a29035","getTaskBids(bytes32)":"64a0c3f5","owner()":"8da5cb5b","pause()":"8456cb59","paused()":"5c975abb","platformFeeBps()":"22dcd13e","refund(bytes32)":"7249fbb6","renounceOwnership()":"715018a6","reputation(address)":"b9f79451","resolveDispute(bytes32)":"c8218e3e","setAutoApproveWindow(uint256)":"9eac6099","setClaimTimeout(uint256)":"e7a5b4ea","setDisputeSplit(uint256)":"2b0cd42a","setDisputeWindow(uint256)":"332226d0","setFee(uint256)":"69fe0e2d","setFeeRecipient(address)":"e74b981b","submitDeliverable(bytes32,bytes32)":"d46600aa","subtasks(bytes32,uint256)":"be909bb9","taskBidders(bytes32,uint256)":"9eabd40c","taskBids(bytes32,address)":"bb5b93b5","tasks(bytes32)":"e579f500","totalAgents()":"c5053712","totalFeesCollected()":"60c6d8ae","totalTasksCompleted()":"108ab45e","totalTasksCreated()":"fd4df69b","totalVolumeUsdc()":"24dd2893","transferOwnership(address)":"f2fde38b","unpause()":"3f4ba83a","usdc()":"3e413bee"}}}}}