{"project/contracts/TaskEscrow.sol":{"TaskEscrow":{"abi":[{"inputs":[{"internalType":"address","name":"_usdc","type":"address"},{"internalType":"address","name":"_feeRecipient","type":"address"}],"stateMutability":"nonpayable","type":"constructor"},{"inputs":[],"name":"AutoApproveNotReady","type":"error"},{"inputs":[],"name":"BidAlreadyPlaced","type":"error"},{"inputs":[],"name":"BidExceedsBounty","type":"error"},{"inputs":[],"name":"BidNotFound","type":"error"},{"inputs":[],"name":"CannotRefundAtThisTime","type":"error"},{"inputs":[],"name":"DisputeWindowExpired","type":"error"},{"inputs":[],"name":"FeeTooHigh","type":"error"},{"inputs":[],"name":"InsufficientBalance","type":"error"},{"inputs":[],"name":"InvalidBidPrice","type":"error"},{"inputs":[],"name":"InvalidBounty","type":"error"},{"inputs":[],"name":"InvalidFeeRecipient","type":"error"},{"inputs":[],"name":"NoBidsOnTask","type":"error"},{"inputs":[],"name":"NotParentTaskWorker","type":"error"},{"inputs":[],"name":"OnlyPosterCanPerform","type":"error"},{"inputs":[],"name":"OnlyWorkerCanPerform","type":"error"},{"inputs":[{"internalType":"address","name":"owner","type":"address"}],"name":"OwnableInvalidOwner","type":"error"},{"inputs":[{"internalType":"address","name":"account","type":"address"}],"name":"OwnableUnauthorizedAccount","type":"error"},{"inputs":[],"name":"PosterCannotClaimOwnTask","type":"error"},{"inputs":[],"name":"ReentrancyGuardReentrantCall","type":"error"},{"inputs":[{"internalType":"address","name":"token","type":"address"}],"name":"SafeERC20FailedOperation","type":"error"},{"inputs":[],"name":"TaskAlreadyExists","type":"error"},{"inputs":[],"name":"TaskDoesNotExist","type":"error"},{"inputs":[],"name":"TaskNotClaimed","type":"error"},{"inputs":[],"name":"TaskNotOpen","type":"error"},{"inputs":[],"name":"TaskNotSubmitted","type":"error"},{"inputs":[],"name":"TaskNotSubmittedOrClaimed","type":"error"},{"anonymous":false,"inputs":[{"indexed":true,"internalType":"bytes32","name":"taskId","type":"bytes32"},{"indexed":true,"internalType":"address","name":"bidder","type":"address"},{"indexed":false,"internalType":"uint256","name":"price","type":"uint256"}],"name":"BidAccepted","type":"event"},{"anonymous":false,"inputs":[{"indexed":true,"internalType":"bytes32","name":"taskId","type":"bytes32"},{"indexed":false,"internalType":"bytes32","name":"deliverableHash","type":"bytes32"}],"name":"DeliverableSubmitted","type":"event"},{"anonymous":false,"inputs":[{"indexed":false,"internalType":"address","name":"oldRecipient","type":"address"},{"indexed":false,"internalType":"address","name":"newRecipient","type":"address"}],"name":"FeeRecipientUpdated","type":"event"},{"anonymous":false,"inputs":[{"indexed":false,"internalType":"uint256","name":"oldFeeBps","type":"uint256"},{"indexed":false,"internalType":"uint256","name":"newFeeBps","type":"uint256"}],"name":"FeeUpdated","type":"event"},{"anonymous":false,"inputs":[{"indexed":true,"internalType":"address","name":"previousOwner","type":"address"},{"indexed":true,"internalType":"address","name":"newOwner","type":"address"}],"name":"OwnershipTransferred","type":"event"},{"anonymous":false,"inputs":[{"indexed":true,"internalType":"bytes32","name":"parentTaskId","type":"bytes32"},{"indexed":true,"internalType":"bytes32","name":"subtaskId","type":"bytes32"},{"indexed":true,"internalType":"address","name":"creator","type":"address"},{"indexed":false,"internalType":"uint256","name":"bounty","type":"uint256"}],"name":"SubtaskCreated","type":"event"},{"anonymous":false,"inputs":[{"indexed":true,"internalType":"bytes32","name":"taskId","type":"bytes32"},{"indexed":true,"internalType":"address","name":"worker","type":"address"},{"indexed":false,"internalType":"uint256","name":"workerPayout","type":"uint256"},{"indexed":false,"internalType":"uint256","name":"platformFee","type":"uint256"}],"name":"TaskApproved","type":"event"},{"anonymous":false,"inputs":[{"indexed":true,"internalType":"bytes32","name":"taskId","type":"bytes32"},{"indexed":true,"internalType":"address","name":"bidder","type":"address"},{"indexed":false,"internalType":"uint256","name":"price","type":"uint256"},{"indexed":false,"internalType":"uint256","name":"estimatedTime","type":"uint256"}],"name":"TaskBid","type":"event"},{"anonymous":false,"inputs":[{"indexed":true,"internalType":"bytes32","name":"taskId","type":"bytes32"},{"indexed":true,"internalType":"address","name":"poster","type":"address"}],"name":"TaskCancelled","type":"event"},{"anonymous":false,"inputs":[{"indexed":true,"internalType":"bytes32","name":"taskId","type":"bytes32"},{"indexed":true,"internalType":"address","name":"worker","type":"address"}],"name":"TaskClaimed","type":"event"},{"anonymous":false,"inputs":[{"indexed":true,"internalType":"bytes32","name":"taskId","type":"bytes32"},{"indexed":true,"internalType":"address","name":"poster","type":"address"},{"indexed":false,"internalType":"uint256","name":"bounty","type":"uint256"},{"indexed":false,"internalType":"bytes32","name":"parentTaskId","type":"bytes32"}],"name":"TaskCreated","type":"event"},{"anonymous":false,"inputs":[{"indexed":true,"internalType":"bytes32","name":"taskId","type":"bytes32"}],"name":"TaskDisputed","type":"event"},{"anonymous":false,"inputs":[{"indexed":true,"internalType":"bytes32","name":"taskId","type":"bytes32"},{"indexed":true,"internalType":"address","name":"poster","type":"address"},{"indexed":false,"internalType":"uint256","name":"amount","type":"uint256"}],"name":"TaskRefunded","type":"event"},{"inputs":[],"name":"BPS_DENOMINATOR","outputs":[{"internalType":"uint256","name":"","type":"uint256"}],"stateMutability":"view","type":"function"},{"inputs":[],"name":"MAX_FEE_BPS","outputs":[{"internalType":"uint256","name":"","type":"uint256"}],"stateMutability":"view","type":"function"},{"inputs":[{"internalType":"bytes32","name":"taskId","type":"bytes32"},{"internalType":"address","name":"bidder","type":"address"}],"name":"acceptBid","outputs":[],"stateMutability":"nonpayable","type":"function"},{"inputs":[{"internalType":"bytes32","name":"taskId","type":"bytes32"}],"name":"approveTask","outputs":[],"stateMutability":"nonpayable","type":"function"},{"inputs":[{"internalType":"bytes32","name":"taskId","type":"bytes32"}],"name":"autoApprove","outputs":[],"stateMutability":"nonpayable","type":"function"},{"inputs":[],"name":"autoApproveWindow","outputs":[{"internalType":"uint256","name":"","type":"uint256"}],"stateMutability":"view","type":"function"},{"inputs":[{"internalType":"bytes32","name":"taskId","type":"bytes32"},{"internalType":"uint256","name":"price","type":"uint256"},{"internalType":"uint256","name":"estimatedTime","type":"uint256"}],"name":"bidOnTask","outputs":[],"stateMutability":"nonpayable","type":"function"},{"inputs":[{"internalType":"bytes32","name":"taskId","type":"bytes32"}],"name":"cancelTask","outputs":[],"stateMutability":"nonpayable","type":"function"},{"inputs":[{"internalType":"bytes32","name":"taskId","type":"bytes32"}],"name":"claimTask","outputs":[],"stateMutability":"nonpayable","type":"function"},{"inputs":[],"name":"claimTimeout","outputs":[{"internalType":"uint256","name":"","type":"uint256"}],"stateMutability":"view","type":"function"},{"inputs":[{"internalType":"bytes32","name":"parentTaskId","type":"bytes32"},{"internalType":"bytes32","name":"subtaskId","type":"bytes32"},{"internalType":"uint256","name":"bountyAmount","type":"uint256"}],"name":"createSubtask","outputs":[],"stateMutability":"nonpayable","type":"function"},{"inputs":[{"internalType":"bytes32","name":"taskId","type":"bytes32"},{"internalType":"uint256","name":"bountyAmount","type":"uint256"}],"name":"createTask","outputs":[],"stateMutability":"nonpayable","type":"function"},{"inputs":[{"internalType":"bytes32","name":"taskId","type":"bytes32"}],"name":"disputeTask","outputs":[],"stateMutability":"nonpayable","type":"function"},{"inputs":[],"name":"disputeWindow","outputs":[{"internalType":"uint256","name":"","type":"uint256"}],"stateMutability":"view","type":"function"},{"inputs":[],"name":"feeRecipient","outputs":[{"internalType":"address","name":"","type":"address"}],"stateMutability":"view","type":"function"},{"inputs":[{"internalType":"bytes32","name":"taskId","type":"bytes32"},{"internalType":"address","name":"bidder","type":"address"}],"name":"getBid","outputs":[{"components":[{"internalType":"address","name":"bidder","type":"address"},{"internalType":"uint256","name":"price","type":"uint256"},{"internalType":"uint256","name":"estimatedTime","type":"uint256"},{"internalType":"uint256","name":"timestamp","type":"uint256"},{"internalType":"bool","name":"accepted","type":"bool"}],"internalType":"struct TaskEscrow.Bid","name":"","type":"tuple"}],"stateMutability":"view","type":"function"},{"inputs":[],"name":"getStats","outputs":[{"internalType":"uint256","name":"tasksCreated","type":"uint256"},{"internalType":"uint256","name":"tasksCompleted","type":"uint256"},{"internalType":"uint256","name":"volumeUsdc","type":"uint256"},{"internalType":"uint256","name":"feesCollected","type":"uint256"},{"internalType":"uint256","name":"currentFeeBps","type":"uint256"}],"stateMutability":"view","type":"function"},{"inputs":[{"internalType":"bytes32","name":"parentTaskId","type":"bytes32"}],"name":"getSubtasks","outputs":[{"internalType":"bytes32[]","name":"","type":"bytes32[]"}],"stateMutability":"view","type":"function"},{"inputs":[{"internalType":"bytes32","name":"taskId","type":"bytes32"}],"name":"getTask","outputs":[{"components":[{"internalType":"address","name":"poster","type":"address"},{"internalType":"address","name":"worker","type":"address"},{"internalType":"uint256","name":"bounty","type":"uint256"},{"internalType":"uint256","name":"agreedPrice","type":"uint256"},{"internalType":"enum TaskEscrow.Status","name":"status","type":"uint8"},{"internalType":"bytes32","name":"deliverableHash","type":"bytes32"},{"internalType":"uint256","name":"createdAt","type":"uint256"},{"internalType":"uint256","name":"claimedAt","type":"uint256"},{"internalType":"uint256","name":"submittedAt","type":"uint256"},{"internalType":"bytes32","name":"parentTaskId","type":"bytes32"},{"internalType":"uint256","name":"bidCount","type":"uint256"}],"internalType":"struct TaskEscrow.Task","name":"","type":"tuple"}],"stateMutability":"view","type":"function"},{"inputs":[{"internalType":"bytes32","name":"taskId","type":"bytes32"}],"name":"getTaskBids","outputs":[{"internalType":"address[]","name":"bidders","type":"address[]"},{"components":[{"internalType":"address","name":"bidder","type":"address"},{"internalType":"uint256","name":"price","type":"uint256"},{"internalType":"uint256","name":"estimatedTime","type":"uint256"},{"internalType":"uint256","name":"timestamp","type":"uint256"},{"internalType":"bool","name":"accepted","type":"bool"}],"internalType":"struct TaskEscrow.Bid[]","name":"bids","type":"tuple[]"}],"stateMutability":"view","type":"function"},{"inputs":[],"name":"owner","outputs":[{"internalType":"address","name":"","type":"address"}],"stateMutability":"view","type":"function"},{"inputs":[],"name":"platformFeeBps","outputs":[{"internalType":"uint256","name":"","type":"uint256"}],"stateMutability":"view","type":"function"},{"inputs":[{"internalType":"bytes32","name":"taskId","type":"bytes32"}],"name":"refund","outputs":[],"stateMutability":"nonpayable","type":"function"},{"inputs":[],"name":"renounceOwnership","outputs":[],"stateMutability":"nonpayable","type":"function"},{"inputs":[{"internalType":"bytes32","name":"taskId","type":"bytes32"}],"name":"resolveDispute","outputs":[],"stateMutability":"nonpayable","type":"function"},{"inputs":[{"internalType":"uint256","name":"newWindow","type":"uint256"}],"name":"setAutoApproveWindow","outputs":[],"stateMutability":"nonpayable","type":"function"},{"inputs":[{"internalType":"uint256","name":"newTimeout","type":"uint256"}],"name":"setClaimTimeout","outputs":[],"stateMutability":"nonpayable","type":"function"},{"inputs":[{"internalType":"uint256","name":"newWindow","type":"uint256"}],"name":"setDisputeWindow","outputs":[],"stateMutability":"nonpayable","type":"function"},{"inputs":[{"internalType":"uint256","name":"newFeeBps","type":"uint256"}],"name":"setFee","outputs":[],"stateMutability":"nonpayable","type":"function"},{"inputs":[{"internalType":"address","name":"newRecipient","type":"address"}],"name":"setFeeRecipient","outputs":[],"stateMutability":"nonpayable","type":"function"},{"inputs":[{"internalType":"bytes32","name":"taskId","type":"bytes32"},{"internalType":"bytes32","name":"deliverableHash","type":"bytes32"}],"name":"submitDeliverable","outputs":[],"stateMutability":"nonpayable","type":"function"},{"inputs":[{"internalType":"bytes32","name":"","type":"bytes32"},{"internalType":"uint256","name":"","type":"uint256"}],"name":"subtasks","outputs":[{"internalType":"bytes32","name":"","type":"bytes32"}],"stateMutability":"view","type":"function"},{"inputs":[{"internalType":"bytes32","name":"","type":"bytes32"},{"internalType":"uint256","name":"","type":"uint256"}],"name":"taskBidders","outputs":[{"internalType":"address","name":"","type":"address"}],"stateMutability":"view","type":"function"},{"inputs":[{"internalType":"bytes32","name":"","type":"bytes32"},{"internalType":"address","name":"","type":"address"}],"name":"taskBids","outputs":[{"internalType":"address","name":"bidder","type":"address"},{"internalType":"uint256","name":"price","type":"uint256"},{"internalType":"uint256","name":"estimatedTime","type":"uint256"},{"internalType":"uint256","name":"timestamp","type":"uint256"},{"internalType":"bool","name":"accepted","type":"bool"}],"stateMutability":"view","type":"function"},{"inputs":[{"internalType":"bytes32","name":"","type":"bytes32"}],"name":"tasks","outputs":[{"internalType":"address","name":"poster","type":"address"},{"internalType":"address","name":"worker","type":"address"},{"internalType":"uint256","name":"bounty","type":"uint256"},{"internalType":"uint256","name":"agreedPrice","type":"uint256"},{"internalType":"enum TaskEscrow.Status","name":"status","type":"uint8"},{"internalType":"bytes32","name":"deliverableHash","type":"bytes32"},{"internalType":"uint256","name":"createdAt","type":"uint256"},{"internalType":"uint256","name":"claimedAt","type":"uint256"},{"internalType":"uint256","name":"submittedAt","type":"uint256"},{"internalType":"bytes32","name":"parentTaskId","type":"bytes32"},{"internalType":"uint256","name":"bidCount","type":"uint256"}],"stateMutability":"view","type":"function"},{"inputs":[],"name":"totalFeesCollected","outputs":[{"internalType":"uint256","name":"","type":"uint256"}],"stateMutability":"view","type":"function"},{"inputs":[],"name":"totalTasksCompleted","outputs":[{"internalType":"uint256","name":"","type":"uint256"}],"stateMutability":"view","type":"function"},{"inputs":[],"name":"totalTasksCreated","outputs":[{"internalType":"uint256","name":"","type":"uint256"}],"stateMutability":"view","type":"function"},{"inputs":[],"name":"totalVolumeUsdc","outputs":[{"internalType":"uint256","name":"","type":"uint256"}],"stateMutability":"view","type":"function"},{"inputs":[{"internalType":"address","name":"newOwner","type":"address"}],"name":"transferOwnership","outputs":[],"stateMutability":"nonpayable","type":"function"},{"inputs":[],"name":"usdc","outputs":[{"internalType":"contract IERC20","name":"","type":"address"}],"stateMutability":"view","type":"function"}],"evm":{"bytecode":{"linkReferences":{},"object":"60a060405260fa60025562093a80600c556203f480600d5562127500600e553480156200002a575f80fd5b506040516200247e3803806200247e8339810160408190526200004d91620001ca565b60015f5533806200007857604051631e4fbdf760e01b81525f60048201526024015b60405180910390fd5b62000083816200015d565b506001600160a01b038216620000dc5760405162461bcd60e51b815260206004820152601460248201527f496e76616c69642055534443206164647265737300000000000000000000000060448201526064016200006f565b6001600160a01b038116620001345760405162461bcd60e51b815260206004820152601560248201527f496e76616c69642066656520726563697069656e74000000000000000000000060448201526064016200006f565b6001600160a01b03918216608052600380546001600160a01b0319169190921617905562000200565b600180546001600160a01b038381166001600160a01b0319831681179093556040519116919082907f8be0079c531659141344cd1fd0a4f28419497f9722a3daafe3b4186f6b6457e0905f90a35050565b80516001600160a01b0381168114620001c5575f80fd5b919050565b5f8060408385031215620001dc575f80fd5b620001e783620001ae565b9150620001f760208401620001ae565b90509250929050565b60805161222d620002515f395f81816102db015281816107490152818161079c01528181610dcb01528181610fb501528181611262015281816112a40152818161180e0152611b71015261222d5ff3fe608060405234801561000f575f80fd5b506004361061024a575f3560e01c80639bbeabda11610140578063d4fa5d61116100bf578063e7a5b4ea11610084578063e7a5b4ea1461060a578063ee8ca3b51461061d578063f08f6ea014610630578063f2444b0d14610643578063f2fde38b14610656578063fd4df69b14610669575f80fd5b8063d4fa5d6114610544578063d55be8c614610557578063e1a4521814610560578063e579f50014610569578063e74b981b146105f7575f80fd5b8063be909bb911610105578063be909bb9146104b4578063c59d4847146104c7578063c8218e3e146104fe578063d0ba526414610511578063d46600aa14610531575f80fd5b80639bbeabda146103ea5780639eabd40c146103f35780639eac609914610406578063bb5b93b514610419578063bbacc591146104a1575f80fd5b806360c6d8ae116101cc57806370f8c6f91161019157806370f8c6f914610398578063715018a6146103ab5780637249fbb6146103b3578063888a7934146103c65780638da5cb5b146103d9575f80fd5b806360c6d8ae1461032857806364a0c3f51461033157806369fe0e2d146103525780636c51c0f1146103655780636fbb5f6214610385575f80fd5b806322dcd13e1161021257806322dcd13e146102b157806324dd2893146102ba578063332226d0146102c35780633e413bee146102d65780634690484014610315575f80fd5b80630ccce3041461024e5780630e1da6c314610263578063108ab45e1461027f578063117f5f921461028857806315a2903514610291575b5f80fd5b61026161025c366004611e32565b610672565b005b61026c600c5481565b6040519081526020015b60405180910390f35b61026c60095481565b61026c600d5481565b6102a461029f366004611e32565b61084f565b6040516102769190611e7d565b61026c60025481565b61026c600a5481565b6102616102d1366004611e32565b61096a565b6102fd7f000000000000000000000000000000000000000000000000000000000000000081565b6040516001600160a01b039091168152602001610276565b6003546102fd906001600160a01b031681565b61026c600b5481565b61034461033f366004611e32565b610977565b604051610276929190611f51565b610261610360366004611e32565b610b07565b610378610373366004611e32565b610b78565b6040516102769190611fdd565b610261610393366004612020565b610bd7565b6102616103a6366004611e32565b610bf7565b610261610cf4565b6102616103c1366004611e32565b610d07565b6102616103d436600461205b565b610e50565b6001546001600160a01b03166102fd565b61026c600e5481565b6102fd610401366004612020565b611068565b610261610414366004611e32565b61109c565b61046d61042736600461205b565b600560209081525f9283526040808420909152908252902080546001820154600283015460038401546004909401546001600160a01b0390931693919290919060ff1685565b604080516001600160a01b03909616865260208601949094529284019190915260608301521515608082015260a001610276565b6102616104af366004611e32565b6110a9565b61026c6104c2366004612020565b611189565b600854600954600a54600b54600254604080519586526020860194909452928401919091526060830152608082015260a001610276565b61026161050c366004611e32565b6111b4565b61052461051f36600461205b565b61130d565b6040516102769190612085565b61026161053f366004612020565b61137d565b610261610552366004612093565b611498565b61026c6103e881565b61026c61271081565b6105e0610577366004611e32565b600460208190525f918252604090912080546001820154600283015460038401549484015460058501546006860154600787015460088801546009890154600a909901546001600160a01b039889169a9790981698959760ff909516959394929391929091908b565b6040516102769b9a999897969594939291906120bc565b610261610605366004612127565b6116bd565b610261610618366004611e32565b611746565b61026161062b366004611e32565b611753565b61026161063e366004611e32565b611883565b610261610651366004612093565b611903565b610261610664366004612127565b611a21565b61026c60085481565b61067a611a5b565b5f8181526004602052604090206002600482015460ff1660068111156106a2576106a2611e49565b146106c0576040516315fcfca760e21b815260040160405180910390fd5b80546001600160a01b031633146106ea57604051635085c6a760e01b815260040160405180910390fd5b60048101805460ff19166003908117909155600254908201545f9161271091610713919061215b565b61071d9190612172565b90505f8183600301546107309190612191565b9050811561078957600354610772906001600160a01b037f00000000000000000000000000000000000000000000000000000000000000008116911684611a83565b81600b5f82825461078391906121a4565b90915550505b60018301546107c5906001600160a01b037f00000000000000000000000000000000000000000000000000000000000000008116911683611a83565b60098054905f6107d4836121b7565b91905055508260030154600a5f8282546107ee91906121a4565b9091555050600183015460408051838152602081018590526001600160a01b039092169186917fe5e356644794526fe6ef15b4a65ccbc570eea7f640ea5d636d2b74776c501fa791015b60405180910390a350505061084c60015f55565b50565b60408051610160810182525f80825260208201819052918101829052606081018290526080810182905260a0810182905260c0810182905260e08101829052610100810182905261012081018290526101408101919091525f8281526004602081815260409283902083516101608101855281546001600160a01b039081168252600183015416928101929092526002810154938201939093526003830154606082015290820154909190608083019060ff16600681111561091357610913611e49565b600681111561092457610924611e49565b815260058201546020820152600682015460408201526007820154606082015260088201546080820152600982015460a0820152600a9091015460c09091015292915050565b610972611ae2565b600d55565b60608060065f8481526020019081526020015f208054806020026020016040519081016040528092919081815260200182805480156109dd57602002820191905f5260205f20905b81546001600160a01b031681526001909101906020018083116109bf575b50505050509150815167ffffffffffffffff8111156109fe576109fe6121cf565b604051908082528060200260200182016040528015610a3757816020015b610a24611dfd565b815260200190600190039081610a1c5790505b5090505f5b8251811015610b015760055f8581526020019081526020015f205f848381518110610a6957610a696121e3565b6020908102919091018101516001600160a01b0390811683528282019390935260409182015f20825160a08101845281549094168452600181015491840191909152600281015491830191909152600381015460608301526004015460ff16151560808201528251839083908110610ae357610ae36121e3565b60200260200101819052508080610af9906121b7565b915050610a3c565b50915091565b610b0f611ae2565b6103e8811115610b325760405163cd4e616760e01b815260040160405180910390fd5b600280549082905560408051828152602081018490527f528d9479e9f9889a87a3c30c7f7ba537e5e59c4c85a37733b16e57c62df6130291015b60405180910390a15050565b5f81815260076020908152604091829020805483518184028101840190945280845260609392830182828015610bcb57602002820191905f5260205f20905b815481526020019060010190808311610bb7575b50505050509050919050565b610bdf611a5b565b610bea82825f611b0f565b610bf360015f55565b5050565b5f81815260046020526040902080546001600160a01b0316610c2c5760405163da319dff60e01b815260040160405180910390fd5b5f600482015460ff166006811115610c4657610c46611e49565b14610c645760405163fe89421760e01b815260040160405180910390fd5b80546001600160a01b03163303610c8e57604051630fce47e560e01b815260040160405180910390fd5b600180820180546001600160a01b031916331790556002820154600383015560048201805460ff191682800217905550426007820155604051339083907f0e1f58463da369c5bf09630219fad2558dd2b2ead275c5dc36269b384dc138fe905f90a35050565b610cfc611ae2565b610d055f611d01565b565b610d0f611a5b565b5f81815260046020526040902080546001600160a01b03163314610d4657604051635085c6a760e01b815260040160405180910390fd5b5f600482015460ff166006811115610d6057610d60611e49565b14610d7e5760405163e5c81dcb60e01b815260040160405180910390fd5b600c548160060154610d9091906121a4565b4211610daf5760405163e5c81dcb60e01b815260040160405180910390fd5b60048101805460ff1916600517905580546002820154610dfe917f00000000000000000000000000000000000000000000000000000000000000006001600160a01b0390811692911690611a83565b805460028201546040519081526001600160a01b039091169083907ff3a7ab0ccbad7f367b7892962016c155d1ce76a3e6fdd0420b5e749763acbda79060200160405180910390a35061084c60015f55565b610e58611a5b565b5f82815260046020526040902080546001600160a01b0316610e8d5760405163da319dff60e01b815260040160405180910390fd5b5f600482015460ff166006811115610ea757610ea7611e49565b14610ec55760405163fe89421760e01b815260040160405180910390fd5b80546001600160a01b03163314610eef57604051635085c6a760e01b815260040160405180910390fd5b5f8381526005602090815260408083206001600160a01b03808716855292529091208054909116610f33576040516307e0eec960e31b815260040160405180910390fd5b60048181018054600160ff19918216811790925584820180546001600160a01b0319166001600160a01b0388161790558184018054600387015592850180549091169091179055426007840155600283015490541015610fe0575f81600101548360020154610fa29190612191565b8354909150610fde906001600160a01b037f00000000000000000000000000000000000000000000000000000000000000008116911683611a83565b505b826001600160a01b0316847f11584506704f1759083d660085355522a050c85b08441c428accd0ce05f96928836001015460405161102091815260200190565b60405180910390a36040516001600160a01b0384169085907f0e1f58463da369c5bf09630219fad2558dd2b2ead275c5dc36269b384dc138fe905f90a35050610bf360015f55565b6006602052815f5260405f208181548110611081575f80fd5b5f918252602090912001546001600160a01b03169150829050565b6110a4611ae2565b600e55565b5f8181526004602052604090206002600482015460ff1660068111156110d1576110d1611e49565b146110ef576040516315fcfca760e21b815260040160405180910390fd5b80546001600160a01b0316331461111957604051635085c6a760e01b815260040160405180910390fd5b600d54816008015461112b91906121a4565b42111561114b5760405163234c0ffd60e21b815260040160405180910390fd5b6004818101805460ff1916909117905560405182907f765b57ef8d3683c90cb2af2cc30b2d34ced9fbbf1e02759c3ef780afed1e8cf4905f90a25050565b6007602052815f5260405f2081815481106111a2575f80fd5b905f5260205f20015f91509150505481565b6111bc611a5b565b6111c4611ae2565b5f81815260046020819052604090912090600482015460ff1660068111156111ee576111ee611e49565b1461120c5760405163e5c81dcb60e01b815260040160405180910390fd5b60048101805460ff1916600517905560038101545f906127109061123290611b5861215b565b61123c9190612172565b90505f81836003015461124f9190612191565b835490915061128b906001600160a01b037f00000000000000000000000000000000000000000000000000000000000000008116911684611a83565b80156112cd5760018301546112cd906001600160a01b037f00000000000000000000000000000000000000000000000000000000000000008116911683611a83565b82546040518381526001600160a01b039091169085907ff3a7ab0ccbad7f367b7892962016c155d1ce76a3e6fdd0420b5e749763acbda790602001610838565b611315611dfd565b505f8281526005602090815260408083206001600160a01b03808616855290835292819020815160a08101835281549094168452600181015492840192909252600282015490830152600381015460608301526004015460ff16151560808201525b92915050565b5f8281526004602052604090206001600482015460ff1660068111156113a5576113a5611e49565b146113c35760405163abbfac0d60e01b815260040160405180910390fd5b60018101546001600160a01b031633146113f05760405163e1b1be1960e01b815260040160405180910390fd5b816114425760405162461bcd60e51b815260206004820152601860248201527f496e76616c69642064656c6976657261626c652068617368000000000000000060448201526064015b60405180910390fd5b6005810182905560048101805460ff1916600217905542600882015560405182815283907f480da4ccf65f8315cba8ba88ec1e6cdc983d8cff56ccc4c99af625a3c74ce4da9060200160405180910390a2505050565b5f83815260046020526040902080546001600160a01b03166114cd5760405163da319dff60e01b815260040160405180910390fd5b5f600482015460ff1660068111156114e7576114e7611e49565b146115055760405163fe89421760e01b815260040160405180910390fd5b80546001600160a01b0316330361152f57604051630fce47e560e01b815260040160405180910390fd5b825f0361154f5760405163aa04eead60e01b815260040160405180910390fd5b8060020154831115611574576040516309f44ed760e21b815260040160405180910390fd5b5f8481526005602090815260408083203384529091529020546001600160a01b0316156115b457604051630b8cee9f60e41b815260040160405180910390fd5b6040805160a08101825233808252602080830187815283850187815242606086019081525f608087018181528c8252600586528882208783528652888220975188546001600160a01b03919091166001600160a01b03199182161789559451600189810191909155935160028901559151600388015590516004909601805496151560ff199097169690961790955589855260068352948420805495860181558452908320909301805490931617909155600a8201805491611675836121b7565b90915550506040805184815260208101849052339186917fef6d2c268e6c826f1b828eb961b739407d952aa5104e66b5ea600f36f7f0f21a910160405180910390a350505050565b6116c5611ae2565b6001600160a01b0381166116ec57604051630ed1b8b360e31b815260040160405180910390fd5b600380546001600160a01b038381166001600160a01b031983168117909355604080519190921680825260208201939093527faaebcf1bfa00580e41d966056b48521fa9f202645c86d4ddf28113e617c1b1d39101610b6c565b61174e611ae2565b600c55565b61175b611a5b565b5f81815260046020526040902080546001600160a01b03166117905760405163da319dff60e01b815260040160405180910390fd5b5f600482015460ff1660068111156117aa576117aa611e49565b146117c85760405163fe89421760e01b815260040160405180910390fd5b80546001600160a01b031633146117f257604051635085c6a760e01b815260040160405180910390fd5b60048101805460ff1916600617905580546002820154611841917f00000000000000000000000000000000000000000000000000000000000000006001600160a01b0390811692911690611a83565b80546040516001600160a01b039091169083907f44d83729a43f9c6046446df014d073dd242e0ad672071e9b292f31b669c25b09905f90a35061084c60015f55565b61188b611a5b565b5f8181526004602052604090206002600482015460ff1660068111156118b3576118b3611e49565b146118d1576040516315fcfca760e21b815260040160405180910390fd5b600e5481600801546118e391906121a4565b4210156106ea57604051630e05d40360e41b815260040160405180910390fd5b61190b611a5b565b5f83815260046020526040902080546001600160a01b03166119405760405163da319dff60e01b815260040160405180910390fd5b60018101546001600160a01b0316331461196d5760405163d6b2f97f60e01b815260040160405180910390fd5b6001600482015460ff16600681111561198857611988611e49565b146119a65760405163abbfac0d60e01b815260040160405180910390fd5b6119b1838386611b0f565b5f84815260076020908152604080832080546001810182559084529190922001849055513390849086907fa8fbc1664833c0000ec4104c2d4e046afdef3f29bd44b36be042a0110eb4548290611a0a9087815260200190565b60405180910390a450611a1c60015f55565b505050565b611a29611ae2565b6001600160a01b038116611a5257604051631e4fbdf760e01b81525f6004820152602401611439565b61084c81611d01565b60025f5403611a7d57604051633ee5aeb560e01b815260040160405180910390fd5b60025f55565b6040516001600160a01b03838116602483015260448201839052611a1c91859182169063a9059cbb906064015b604051602081830303815290604052915060e01b6020820180516001600160e01b038381831617835250505050611d52565b6001546001600160a01b03163314610d055760405163118cdaa760e01b8152336004820152602401611439565b5f838152600460205260409020546001600160a01b031615611b445760405163f2e16b0360e01b815260040160405180910390fd5b815f03611b645760405163ce8338ed60e01b815260040160405180910390fd5b611b996001600160a01b037f000000000000000000000000000000000000000000000000000000000000000016333085611dc4565b60408051610160810182523381525f6020808301828152838501878152606085018881526080860185815260a087018690524260c088015260e087018690526101008701869052610120870189905261014087018690528a865260049485905296909420855181546001600160a01b03199081166001600160a01b039283161783559351600180840180549096169190921617909355905160028201559251600384015593519082018054939492939192909160ff191690836006811115611c6357611c63611e49565b021790555060a0820151600582015560c0820151600682015560e08201516007820155610100820151600880830191909155610120830151600983015561014090920151600a909101558054905f611cba836121b7565b90915550506040805183815260208101839052339185917f2b6d0a485834bbf18c00f1c929f83b527c3d517653ad7206e356af51190e9b36910160405180910390a3505050565b600180546001600160a01b038381166001600160a01b0319831681179093556040519116919082907f8be0079c531659141344cd1fd0a4f28419497f9722a3daafe3b4186f6b6457e0905f90a35050565b5f8060205f8451602086015f885af180611d71576040513d5f823e3d81fd5b50505f513d91508115611d88578060011415611d95565b6001600160a01b0384163b155b15611dbe57604051635274afe760e01b81526001600160a01b0385166004820152602401611439565b50505050565b6040516001600160a01b038481166024830152838116604483015260648201839052611dbe9186918216906323b872dd90608401611ab0565b6040518060a001604052805f6001600160a01b031681526020015f81526020015f81526020015f81526020015f151581525090565b5f60208284031215611e42575f80fd5b5035919050565b634e487b7160e01b5f52602160045260245ffd5b60078110611e7957634e487b7160e01b5f52602160045260245ffd5b9052565b81516001600160a01b0316815261016081016020830151611ea960208401826001600160a01b03169052565b5060408301516040830152606083015160608301526080830151611ed06080840182611e5d565b5060a083015160a083015260c083015160c083015260e083015160e083015261010080840151818401525061012080840151818401525061014080840151818401525092915050565b80516001600160a01b031682526020808201519083015260408082015190830152606080820151908301526080908101511515910152565b604080825283519082018190525f906020906060840190828701845b82811015611f925781516001600160a01b031684529284019290840190600101611f6d565b505050838103828501528451808252858301918301905f5b81811015611fd057611fbd838551611f19565b9284019260a09290920191600101611faa565b5090979650505050505050565b602080825282518282018190525f9190848201906040850190845b8181101561201457835183529284019291840191600101611ff8565b50909695505050505050565b5f8060408385031215612031575f80fd5b50508035926020909101359150565b80356001600160a01b0381168114612056575f80fd5b919050565b5f806040838503121561206c575f80fd5b8235915061207c60208401612040565b90509250929050565b60a081016113778284611f19565b5f805f606084860312156120a5575f80fd5b505081359360208301359350604090920135919050565b6001600160a01b038c811682528b166020820152604081018a90526060810189905261016081016120f0608083018a611e5d565b8760a08301528660c08301528560e08301528461010083015283610120830152826101408301529c9b505050505050505050505050565b5f60208284031215612137575f80fd5b61214082612040565b9392505050565b634e487b7160e01b5f52601160045260245ffd5b808202811582820484141761137757611377612147565b5f8261218c57634e487b7160e01b5f52601260045260245ffd5b500490565b8181038181111561137757611377612147565b8082018082111561137757611377612147565b5f600182016121c8576121c8612147565b5060010190565b634e487b7160e01b5f52604160045260245ffd5b634e487b7160e01b5f52603260045260245ffdfea2646970667358221220aa1cf6d3bb611a0492842fd413d4cfa298e3a1a8b1766ce919eda7f5b5be08ee64736f6c63430008140033","opcodes":"PUSH1 0xA0 PUSH1 0x40 MSTORE PUSH1 0xFA PUSH1 0x2 SSTORE PUSH3 0x93A80 PUSH1 0xC SSTORE PUSH3 0x3F480 PUSH1 0xD SSTORE PUSH3 0x127500 PUSH1 0xE SSTORE CALLVALUE DUP1 ISZERO PUSH3 0x2A JUMPI PUSH0 DUP1 REVERT JUMPDEST POP PUSH1 0x40 MLOAD PUSH3 0x247E CODESIZE SUB DUP1 PUSH3 0x247E DUP4 CODECOPY DUP2 ADD PUSH1 0x40 DUP2 SWAP1 MSTORE PUSH3 0x4D SWAP2 PUSH3 0x1CA JUMP JUMPDEST PUSH1 0x1 PUSH0 SSTORE CALLER DUP1 PUSH3 0x78 JUMPI PUSH1 0x40 MLOAD PUSH4 0x1E4FBDF7 PUSH1 0xE0 SHL DUP2 MSTORE PUSH0 PUSH1 0x4 DUP3 ADD MSTORE PUSH1 0x24 ADD JUMPDEST PUSH1 0x40 MLOAD DUP1 SWAP2 SUB SWAP1 REVERT JUMPDEST PUSH3 0x83 DUP2 PUSH3 0x15D JUMP JUMPDEST POP PUSH1 0x1 PUSH1 0x1 PUSH1 0xA0 SHL SUB DUP3 AND PUSH3 0xDC JUMPI PUSH1 0x40 MLOAD PUSH3 0x461BCD PUSH1 0xE5 SHL DUP2 MSTORE PUSH1 0x20 PUSH1 0x4 DUP3 ADD MSTORE PUSH1 0x14 PUSH1 0x24 DUP3 ADD MSTORE PUSH32 0x496E76616C696420555344432061646472657373000000000000000000000000 PUSH1 0x44 DUP3 ADD MSTORE PUSH1 0x64 ADD PUSH3 0x6F JUMP JUMPDEST PUSH1 0x1 PUSH1 0x1 PUSH1 0xA0 SHL SUB DUP2 AND PUSH3 0x134 JUMPI PUSH1 0x40 MLOAD PUSH3 0x461BCD PUSH1 0xE5 SHL DUP2 MSTORE PUSH1 0x20 PUSH1 0x4 DUP3 ADD MSTORE PUSH1 0x15 PUSH1 0x24 DUP3 ADD MSTORE PUSH32 0x496E76616C69642066656520726563697069656E740000000000000000000000 PUSH1 0x44 DUP3 ADD MSTORE PUSH1 0x64 ADD PUSH3 0x6F JUMP JUMPDEST PUSH1 0x1 PUSH1 0x1 PUSH1 0xA0 SHL SUB SWAP2 DUP3 AND PUSH1 0x80 MSTORE PUSH1 0x3 DUP1 SLOAD PUSH1 0x1 PUSH1 0x1 PUSH1 0xA0 SHL SUB NOT AND SWAP2 SWAP1 SWAP3 AND OR SWAP1 SSTORE PUSH3 0x200 JUMP JUMPDEST PUSH1 0x1 DUP1 SLOAD PUSH1 0x1 PUSH1 0x1 PUSH1 0xA0 SHL SUB DUP4 DUP2 AND PUSH1 0x1 PUSH1 0x1 PUSH1 0xA0 SHL SUB NOT DUP4 AND DUP2 OR SWAP1 SWAP4 SSTORE PUSH1 0x40 MLOAD SWAP2 AND SWAP2 SWAP1 DUP3 SWAP1 PUSH32 0x8BE0079C531659141344CD1FD0A4F28419497F9722A3DAAFE3B4186F6B6457E0 SWAP1 PUSH0 SWAP1 LOG3 POP POP JUMP JUMPDEST DUP1 MLOAD PUSH1 0x1 PUSH1 0x1 PUSH1 0xA0 SHL SUB DUP2 AND DUP2 EQ PUSH3 0x1C5 JUMPI PUSH0 DUP1 REVERT JUMPDEST SWAP2 SWAP1 POP JUMP JUMPDEST PUSH0 DUP1 PUSH1 0x40 DUP4 DUP6 SUB SLT ISZERO PUSH3 0x1DC JUMPI PUSH0 DUP1 REVERT JUMPDEST PUSH3 0x1E7 DUP4 PUSH3 0x1AE JUMP JUMPDEST SWAP2 POP PUSH3 0x1F7 PUSH1 0x20 DUP5 ADD PUSH3 0x1AE JUMP JUMPDEST SWAP1 POP SWAP3 POP SWAP3 SWAP1 POP JUMP JUMPDEST PUSH1 0x80 MLOAD PUSH2 0x222D PUSH3 0x251 PUSH0 CODECOPY PUSH0 DUP2 DUP2 PUSH2 0x2DB ADD MSTORE DUP2 DUP2 PUSH2 0x749 ADD MSTORE DUP2 DUP2 PUSH2 0x79C ADD MSTORE DUP2 DUP2 PUSH2 0xDCB ADD MSTORE DUP2 DUP2 PUSH2 0xFB5 ADD MSTORE DUP2 DUP2 PUSH2 0x1262 ADD MSTORE DUP2 DUP2 PUSH2 0x12A4 ADD MSTORE DUP2 DUP2 PUSH2 0x180E ADD MSTORE PUSH2 0x1B71 ADD MSTORE PUSH2 0x222D PUSH0 RETURN INVALID PUSH1 0x80 PUSH1 0x40 MSTORE CALLVALUE DUP1 ISZERO PUSH2 0xF JUMPI PUSH0 DUP1 REVERT JUMPDEST POP PUSH1 0x4 CALLDATASIZE LT PUSH2 0x24A JUMPI PUSH0 CALLDATALOAD PUSH1 0xE0 SHR DUP1 PUSH4 0x9BBEABDA GT PUSH2 0x140 JUMPI DUP1 PUSH4 0xD4FA5D61 GT PUSH2 0xBF JUMPI DUP1 PUSH4 0xE7A5B4EA GT PUSH2 0x84 JUMPI DUP1 PUSH4 0xE7A5B4EA EQ PUSH2 0x60A JUMPI DUP1 PUSH4 0xEE8CA3B5 EQ PUSH2 0x61D JUMPI DUP1 PUSH4 0xF08F6EA0 EQ PUSH2 0x630 JUMPI DUP1 PUSH4 0xF2444B0D EQ PUSH2 0x643 JUMPI DUP1 PUSH4 0xF2FDE38B EQ PUSH2 0x656 JUMPI DUP1 PUSH4 0xFD4DF69B EQ PUSH2 0x669 JUMPI PUSH0 DUP1 REVERT JUMPDEST DUP1 PUSH4 0xD4FA5D61 EQ PUSH2 0x544 JUMPI DUP1 PUSH4 0xD55BE8C6 EQ PUSH2 0x557 JUMPI DUP1 PUSH4 0xE1A45218 EQ PUSH2 0x560 JUMPI DUP1 PUSH4 0xE579F500 EQ PUSH2 0x569 JUMPI DUP1 PUSH4 0xE74B981B EQ PUSH2 0x5F7 JUMPI PUSH0 DUP1 REVERT JUMPDEST DUP1 PUSH4 0xBE909BB9 GT PUSH2 0x105 JUMPI DUP1 PUSH4 0xBE909BB9 EQ PUSH2 0x4B4 JUMPI DUP1 PUSH4 0xC59D4847 EQ PUSH2 0x4C7 JUMPI DUP1 PUSH4 0xC8218E3E EQ PUSH2 0x4FE JUMPI DUP1 PUSH4 0xD0BA5264 EQ PUSH2 0x511 JUMPI DUP1 PUSH4 0xD46600AA EQ PUSH2 0x531 JUMPI PUSH0 DUP1 REVERT JUMPDEST DUP1 PUSH4 0x9BBEABDA EQ PUSH2 0x3EA JUMPI DUP1 PUSH4 0x9EABD40C EQ PUSH2 0x3F3 JUMPI DUP1 PUSH4 0x9EAC6099 EQ PUSH2 0x406 JUMPI DUP1 PUSH4 0xBB5B93B5 EQ PUSH2 0x419 JUMPI DUP1 PUSH4 0xBBACC591 EQ PUSH2 0x4A1 JUMPI PUSH0 DUP1 REVERT JUMPDEST DUP1 PUSH4 0x60C6D8AE GT PUSH2 0x1CC JUMPI DUP1 PUSH4 0x70F8C6F9 GT PUSH2 0x191 JUMPI DUP1 PUSH4 0x70F8C6F9 EQ PUSH2 0x398 JUMPI DUP1 PUSH4 0x715018A6 EQ PUSH2 0x3AB JUMPI DUP1 PUSH4 0x7249FBB6 EQ PUSH2 0x3B3 JUMPI DUP1 PUSH4 0x888A7934 EQ PUSH2 0x3C6 JUMPI DUP1 PUSH4 0x8DA5CB5B EQ PUSH2 0x3D9 JUMPI PUSH0 DUP1 REVERT JUMPDEST DUP1 PUSH4 0x60C6D8AE EQ PUSH2 0x328 JUMPI DUP1 PUSH4 0x64A0C3F5 EQ PUSH2 0x331 JUMPI DUP1 PUSH4 0x69FE0E2D EQ PUSH2 0x352 JUMPI DUP1 PUSH4 0x6C51C0F1 EQ PUSH2 0x365 JUMPI DUP1 PUSH4 0x6FBB5F62 EQ PUSH2 0x385 JUMPI PUSH0 DUP1 REVERT JUMPDEST DUP1 PUSH4 0x22DCD13E GT PUSH2 0x212 JUMPI DUP1 PUSH4 0x22DCD13E EQ PUSH2 0x2B1 JUMPI DUP1 PUSH4 0x24DD2893 EQ PUSH2 0x2BA JUMPI DUP1 PUSH4 0x332226D0 EQ PUSH2 0x2C3 JUMPI DUP1 PUSH4 0x3E413BEE EQ PUSH2 0x2D6 JUMPI DUP1 PUSH4 0x46904840 EQ PUSH2 0x315 JUMPI PUSH0 DUP1 REVERT JUMPDEST DUP1 PUSH4 0xCCCE304 EQ PUSH2 0x24E JUMPI DUP1 PUSH4 0xE1DA6C3 EQ PUSH2 0x263 JUMPI DUP1 PUSH4 0x108AB45E EQ PUSH2 0x27F JUMPI DUP1 PUSH4 0x117F5F92 EQ PUSH2 0x288 JUMPI DUP1 PUSH4 0x15A29035 EQ PUSH2 0x291 JUMPI JUMPDEST PUSH0 DUP1 REVERT JUMPDEST PUSH2 0x261 PUSH2 0x25C CALLDATASIZE PUSH1 0x4 PUSH2 0x1E32 JUMP JUMPDEST PUSH2 0x672 JUMP JUMPDEST STOP JUMPDEST PUSH2 0x26C PUSH1 0xC SLOAD DUP2 JUMP JUMPDEST PUSH1 0x40 MLOAD SWAP1 DUP2 MSTORE PUSH1 0x20 ADD JUMPDEST PUSH1 0x40 MLOAD DUP1 SWAP2 SUB SWAP1 RETURN JUMPDEST PUSH2 0x26C PUSH1 0x9 SLOAD DUP2 JUMP JUMPDEST PUSH2 0x26C PUSH1 0xD SLOAD DUP2 JUMP JUMPDEST PUSH2 0x2A4 PUSH2 0x29F CALLDATASIZE PUSH1 0x4 PUSH2 0x1E32 JUMP JUMPDEST PUSH2 0x84F JUMP JUMPDEST PUSH1 0x40 MLOAD PUSH2 0x276 SWAP2 SWAP1 PUSH2 0x1E7D JUMP JUMPDEST PUSH2 0x26C PUSH1 0x2 SLOAD DUP2 JUMP JUMPDEST PUSH2 0x26C PUSH1 0xA SLOAD DUP2 JUMP JUMPDEST PUSH2 0x261 PUSH2 0x2D1 CALLDATASIZE PUSH1 0x4 PUSH2 0x1E32 JUMP JUMPDEST PUSH2 0x96A JUMP JUMPDEST PUSH2 0x2FD PUSH32 0x0 DUP2 JUMP JUMPDEST PUSH1 0x40 MLOAD PUSH1 0x1 PUSH1 0x1 PUSH1 0xA0 SHL SUB SWAP1 SWAP2 AND DUP2 MSTORE PUSH1 0x20 ADD PUSH2 0x276 JUMP JUMPDEST PUSH1 0x3 SLOAD PUSH2 0x2FD SWAP1 PUSH1 0x1 PUSH1 0x1 PUSH1 0xA0 SHL SUB AND DUP2 JUMP JUMPDEST PUSH2 0x26C PUSH1 0xB SLOAD DUP2 JUMP JUMPDEST PUSH2 0x344 PUSH2 0x33F CALLDATASIZE PUSH1 0x4 PUSH2 0x1E32 JUMP JUMPDEST PUSH2 0x977 JUMP JUMPDEST PUSH1 0x40 MLOAD PUSH2 0x276 SWAP3 SWAP2 SWAP1 PUSH2 0x1F51 JUMP JUMPDEST PUSH2 0x261 PUSH2 0x360 CALLDATASIZE PUSH1 0x4 PUSH2 0x1E32 JUMP JUMPDEST PUSH2 0xB07 JUMP JUMPDEST PUSH2 0x378 PUSH2 0x373 CALLDATASIZE PUSH1 0x4 PUSH2 0x1E32 JUMP JUMPDEST PUSH2 0xB78 JUMP JUMPDEST PUSH1 0x40 MLOAD PUSH2 0x276 SWAP2 SWAP1 PUSH2 0x1FDD JUMP JUMPDEST PUSH2 0x261 PUSH2 0x393 CALLDATASIZE PUSH1 0x4 PUSH2 0x2020 JUMP JUMPDEST PUSH2 0xBD7 JUMP JUMPDEST PUSH2 0x261 PUSH2 0x3A6 CALLDATASIZE PUSH1 0x4 PUSH2 0x1E32 JUMP JUMPDEST PUSH2 0xBF7 JUMP JUMPDEST PUSH2 0x261 PUSH2 0xCF4 JUMP JUMPDEST PUSH2 0x261 PUSH2 0x3C1 CALLDATASIZE PUSH1 0x4 PUSH2 0x1E32 JUMP JUMPDEST PUSH2 0xD07 JUMP JUMPDEST PUSH2 0x261 PUSH2 0x3D4 CALLDATASIZE PUSH1 0x4 PUSH2 0x205B JUMP JUMPDEST PUSH2 0xE50 JUMP JUMPDEST PUSH1 0x1 SLOAD PUSH1 0x1 PUSH1 0x1 PUSH1 0xA0 SHL SUB AND PUSH2 0x2FD JUMP JUMPDEST PUSH2 0x26C PUSH1 0xE SLOAD DUP2 JUMP JUMPDEST PUSH2 0x2FD PUSH2 0x401 CALLDATASIZE PUSH1 0x4 PUSH2 0x2020 JUMP JUMPDEST PUSH2 0x1068 JUMP JUMPDEST PUSH2 0x261 PUSH2 0x414 CALLDATASIZE PUSH1 0x4 PUSH2 0x1E32 JUMP JUMPDEST PUSH2 0x109C JUMP JUMPDEST PUSH2 0x46D PUSH2 0x427 CALLDATASIZE PUSH1 0x4 PUSH2 0x205B JUMP JUMPDEST PUSH1 0x5 PUSH1 0x20 SWAP1 DUP2 MSTORE PUSH0 SWAP3 DUP4 MSTORE PUSH1 0x40 DUP1 DUP5 KECCAK256 SWAP1 SWAP2 MSTORE SWAP1 DUP3 MSTORE SWAP1 KECCAK256 DUP1 SLOAD PUSH1 0x1 DUP3 ADD SLOAD PUSH1 0x2 DUP4 ADD SLOAD PUSH1 0x3 DUP5 ADD SLOAD PUSH1 0x4 SWAP1 SWAP5 ADD SLOAD PUSH1 0x1 PUSH1 0x1 PUSH1 0xA0 SHL SUB SWAP1 SWAP4 AND SWAP4 SWAP2 SWAP3 SWAP1 SWAP2 SWAP1 PUSH1 0xFF AND DUP6 JUMP JUMPDEST PUSH1 0x40 DUP1 MLOAD PUSH1 0x1 PUSH1 0x1 PUSH1 0xA0 SHL SUB SWAP1 SWAP7 AND DUP7 MSTORE PUSH1 0x20 DUP7 ADD SWAP5 SWAP1 SWAP5 MSTORE SWAP3 DUP5 ADD SWAP2 SWAP1 SWAP2 MSTORE PUSH1 0x60 DUP4 ADD MSTORE ISZERO ISZERO PUSH1 0x80 DUP3 ADD MSTORE PUSH1 0xA0 ADD PUSH2 0x276 JUMP JUMPDEST PUSH2 0x261 PUSH2 0x4AF CALLDATASIZE PUSH1 0x4 PUSH2 0x1E32 JUMP JUMPDEST PUSH2 0x10A9 JUMP JUMPDEST PUSH2 0x26C PUSH2 0x4C2 CALLDATASIZE PUSH1 0x4 PUSH2 0x2020 JUMP JUMPDEST PUSH2 0x1189 JUMP JUMPDEST PUSH1 0x8 SLOAD PUSH1 0x9 SLOAD PUSH1 0xA SLOAD PUSH1 0xB SLOAD PUSH1 0x2 SLOAD PUSH1 0x40 DUP1 MLOAD SWAP6 DUP7 MSTORE PUSH1 0x20 DUP7 ADD SWAP5 SWAP1 SWAP5 MSTORE SWAP3 DUP5 ADD SWAP2 SWAP1 SWAP2 MSTORE PUSH1 0x60 DUP4 ADD MSTORE PUSH1 0x80 DUP3 ADD MSTORE PUSH1 0xA0 ADD PUSH2 0x276 JUMP JUMPDEST PUSH2 0x261 PUSH2 0x50C CALLDATASIZE PUSH1 0x4 PUSH2 0x1E32 JUMP JUMPDEST PUSH2 0x11B4 JUMP JUMPDEST PUSH2 0x524 PUSH2 0x51F CALLDATASIZE PUSH1 0x4 PUSH2 0x205B JUMP JUMPDEST PUSH2 0x130D JUMP JUMPDEST PUSH1 0x40 MLOAD PUSH2 0x276 SWAP2 SWAP1 PUSH2 0x2085 JUMP JUMPDEST PUSH2 0x261 PUSH2 0x53F CALLDATASIZE PUSH1 0x4 PUSH2 0x2020 JUMP JUMPDEST PUSH2 0x137D JUMP JUMPDEST PUSH2 0x261 PUSH2 0x552 CALLDATASIZE PUSH1 0x4 PUSH2 0x2093 JUMP JUMPDEST PUSH2 0x1498 JUMP JUMPDEST PUSH2 0x26C PUSH2 0x3E8 DUP2 JUMP JUMPDEST PUSH2 0x26C PUSH2 0x2710 DUP2 JUMP JUMPDEST PUSH2 0x5E0 PUSH2 0x577 CALLDATASIZE PUSH1 0x4 PUSH2 0x1E32 JUMP JUMPDEST PUSH1 0x4 PUSH1 0x20 DUP2 SWAP1 MSTORE PUSH0 SWAP2 DUP3 MSTORE PUSH1 0x40 SWAP1 SWAP2 KECCAK256 DUP1 SLOAD PUSH1 0x1 DUP3 ADD SLOAD PUSH1 0x2 DUP4 ADD SLOAD PUSH1 0x3 DUP5 ADD SLOAD SWAP5 DUP5 ADD SLOAD PUSH1 0x5 DUP6 ADD SLOAD PUSH1 0x6 DUP7 ADD SLOAD PUSH1 0x7 DUP8 ADD SLOAD PUSH1 0x8 DUP9 ADD SLOAD PUSH1 0x9 DUP10 ADD SLOAD PUSH1 0xA SWAP1 SWAP10 ADD SLOAD PUSH1 0x1 PUSH1 0x1 PUSH1 0xA0 SHL SUB SWAP9 DUP10 AND SWAP11 SWAP8 SWAP1 SWAP9 AND SWAP9 SWAP6 SWAP8 PUSH1 0xFF SWAP1 SWAP6 AND SWAP6 SWAP4 SWAP5 SWAP3 SWAP4 SWAP2 SWAP3 SWAP1 SWAP2 SWAP1 DUP12 JUMP JUMPDEST PUSH1 0x40 MLOAD PUSH2 0x276 SWAP12 SWAP11 SWAP10 SWAP9 SWAP8 SWAP7 SWAP6 SWAP5 SWAP4 SWAP3 SWAP2 SWAP1 PUSH2 0x20BC JUMP JUMPDEST PUSH2 0x261 PUSH2 0x605 CALLDATASIZE PUSH1 0x4 PUSH2 0x2127 JUMP JUMPDEST PUSH2 0x16BD JUMP JUMPDEST PUSH2 0x261 PUSH2 0x618 CALLDATASIZE PUSH1 0x4 PUSH2 0x1E32 JUMP JUMPDEST PUSH2 0x1746 JUMP JUMPDEST PUSH2 0x261 PUSH2 0x62B CALLDATASIZE PUSH1 0x4 PUSH2 0x1E32 JUMP JUMPDEST PUSH2 0x1753 JUMP JUMPDEST PUSH2 0x261 PUSH2 0x63E CALLDATASIZE PUSH1 0x4 PUSH2 0x1E32 JUMP JUMPDEST PUSH2 0x1883 JUMP JUMPDEST PUSH2 0x261 PUSH2 0x651 CALLDATASIZE PUSH1 0x4 PUSH2 0x2093 JUMP JUMPDEST PUSH2 0x1903 JUMP JUMPDEST PUSH2 0x261 PUSH2 0x664 CALLDATASIZE PUSH1 0x4 PUSH2 0x2127 JUMP JUMPDEST PUSH2 0x1A21 JUMP JUMPDEST PUSH2 0x26C PUSH1 0x8 SLOAD DUP2 JUMP JUMPDEST PUSH2 0x67A PUSH2 0x1A5B JUMP JUMPDEST PUSH0 DUP2 DUP2 MSTORE PUSH1 0x4 PUSH1 0x20 MSTORE PUSH1 0x40 SWAP1 KECCAK256 PUSH1 0x2 PUSH1 0x4 DUP3 ADD SLOAD PUSH1 0xFF AND PUSH1 0x6 DUP2 GT ISZERO PUSH2 0x6A2 JUMPI PUSH2 0x6A2 PUSH2 0x1E49 JUMP JUMPDEST EQ PUSH2 0x6C0 JUMPI PUSH1 0x40 MLOAD PUSH4 0x15FCFCA7 PUSH1 0xE2 SHL DUP2 MSTORE PUSH1 0x4 ADD PUSH1 0x40 MLOAD DUP1 SWAP2 SUB SWAP1 REVERT JUMPDEST DUP1 SLOAD PUSH1 0x1 PUSH1 0x1 PUSH1 0xA0 SHL SUB AND CALLER EQ PUSH2 0x6EA JUMPI PUSH1 0x40 MLOAD PUSH4 0x5085C6A7 PUSH1 0xE0 SHL DUP2 MSTORE PUSH1 0x4 ADD PUSH1 0x40 MLOAD DUP1 SWAP2 SUB SWAP1 REVERT JUMPDEST PUSH1 0x4 DUP2 ADD DUP1 SLOAD PUSH1 0xFF NOT AND PUSH1 0x3 SWAP1 DUP2 OR SWAP1 SWAP2 SSTORE PUSH1 0x2 SLOAD SWAP1 DUP3 ADD SLOAD PUSH0 SWAP2 PUSH2 0x2710 SWAP2 PUSH2 0x713 SWAP2 SWAP1 PUSH2 0x215B JUMP JUMPDEST PUSH2 0x71D SWAP2 SWAP1 PUSH2 0x2172 JUMP JUMPDEST SWAP1 POP PUSH0 DUP2 DUP4 PUSH1 0x3 ADD SLOAD PUSH2 0x730 SWAP2 SWAP1 PUSH2 0x2191 JUMP JUMPDEST SWAP1 POP DUP2 ISZERO PUSH2 0x789 JUMPI PUSH1 0x3 SLOAD PUSH2 0x772 SWAP1 PUSH1 0x1 PUSH1 0x1 PUSH1 0xA0 SHL SUB PUSH32 0x0 DUP2 AND SWAP2 AND DUP5 PUSH2 0x1A83 JUMP JUMPDEST DUP2 PUSH1 0xB PUSH0 DUP3 DUP3 SLOAD PUSH2 0x783 SWAP2 SWAP1 PUSH2 0x21A4 JUMP JUMPDEST SWAP1 SWAP2 SSTORE POP POP JUMPDEST PUSH1 0x1 DUP4 ADD SLOAD PUSH2 0x7C5 SWAP1 PUSH1 0x1 PUSH1 0x1 PUSH1 0xA0 SHL SUB PUSH32 0x0 DUP2 AND SWAP2 AND DUP4 PUSH2 0x1A83 JUMP JUMPDEST PUSH1 0x9 DUP1 SLOAD SWAP1 PUSH0 PUSH2 0x7D4 DUP4 PUSH2 0x21B7 JUMP JUMPDEST SWAP2 SWAP1 POP SSTORE POP DUP3 PUSH1 0x3 ADD SLOAD PUSH1 0xA PUSH0 DUP3 DUP3 SLOAD PUSH2 0x7EE SWAP2 SWAP1 PUSH2 0x21A4 JUMP JUMPDEST SWAP1 SWAP2 SSTORE POP POP PUSH1 0x1 DUP4 ADD SLOAD PUSH1 0x40 DUP1 MLOAD DUP4 DUP2 MSTORE PUSH1 0x20 DUP2 ADD DUP6 SWAP1 MSTORE PUSH1 0x1 PUSH1 0x1 PUSH1 0xA0 SHL SUB SWAP1 SWAP3 AND SWAP2 DUP7 SWAP2 PUSH32 0xE5E356644794526FE6EF15B4A65CCBC570EEA7F640EA5D636D2B74776C501FA7 SWAP2 ADD JUMPDEST PUSH1 0x40 MLOAD DUP1 SWAP2 SUB SWAP1 LOG3 POP POP POP PUSH2 0x84C PUSH1 0x1 PUSH0 SSTORE JUMP JUMPDEST POP JUMP JUMPDEST PUSH1 0x40 DUP1 MLOAD PUSH2 0x160 DUP2 ADD DUP3 MSTORE PUSH0 DUP1 DUP3 MSTORE PUSH1 0x20 DUP3 ADD DUP2 SWAP1 MSTORE SWAP2 DUP2 ADD DUP3 SWAP1 MSTORE PUSH1 0x60 DUP2 ADD DUP3 SWAP1 MSTORE PUSH1 0x80 DUP2 ADD DUP3 SWAP1 MSTORE PUSH1 0xA0 DUP2 ADD DUP3 SWAP1 MSTORE PUSH1 0xC0 DUP2 ADD DUP3 SWAP1 MSTORE PUSH1 0xE0 DUP2 ADD DUP3 SWAP1 MSTORE PUSH2 0x100 DUP2 ADD DUP3 SWAP1 MSTORE PUSH2 0x120 DUP2 ADD DUP3 SWAP1 MSTORE PUSH2 0x140 DUP2 ADD SWAP2 SWAP1 SWAP2 MSTORE PUSH0 DUP3 DUP2 MSTORE PUSH1 0x4 PUSH1 0x20 DUP2 DUP2 MSTORE PUSH1 0x40 SWAP3 DUP4 SWAP1 KECCAK256 DUP4 MLOAD PUSH2 0x160 DUP2 ADD DUP6 MSTORE DUP2 SLOAD PUSH1 0x1 PUSH1 0x1 PUSH1 0xA0 SHL SUB SWAP1 DUP2 AND DUP3 MSTORE PUSH1 0x1 DUP4 ADD SLOAD AND SWAP3 DUP2 ADD SWAP3 SWAP1 SWAP3 MSTORE PUSH1 0x2 DUP2 ADD SLOAD SWAP4 DUP3 ADD SWAP4 SWAP1 SWAP4 MSTORE PUSH1 0x3 DUP4 ADD SLOAD PUSH1 0x60 DUP3 ADD MSTORE SWAP1 DUP3 ADD SLOAD SWAP1 SWAP2 SWAP1 PUSH1 0x80 DUP4 ADD SWAP1 PUSH1 0xFF AND PUSH1 0x6 DUP2 GT ISZERO PUSH2 0x913 JUMPI PUSH2 0x913 PUSH2 0x1E49 JUMP JUMPDEST PUSH1 0x6 DUP2 GT ISZERO PUSH2 0x924 JUMPI PUSH2 0x924 PUSH2 0x1E49 JUMP JUMPDEST DUP2 MSTORE PUSH1 0x5 DUP3 ADD SLOAD PUSH1 0x20 DUP3 ADD MSTORE PUSH1 0x6 DUP3 ADD SLOAD PUSH1 0x40 DUP3 ADD MSTORE PUSH1 0x7 DUP3 ADD SLOAD PUSH1 0x60 DUP3 ADD MSTORE PUSH1 0x8 DUP3 ADD SLOAD PUSH1 0x80 DUP3 ADD MSTORE PUSH1 0x9 DUP3 ADD SLOAD PUSH1 0xA0 DUP3 ADD MSTORE PUSH1 0xA SWAP1 SWAP2 ADD SLOAD PUSH1 0xC0 SWAP1 SWAP2 ADD MSTORE SWAP3 SWAP2 POP POP JUMP JUMPDEST PUSH2 0x972 PUSH2 0x1AE2 JUMP JUMPDEST PUSH1 0xD SSTORE JUMP JUMPDEST PUSH1 0x60 DUP1 PUSH1 0x6 PUSH0 DUP5 DUP2 MSTORE PUSH1 0x20 ADD SWAP1 DUP2 MSTORE PUSH1 0x20 ADD PUSH0 KECCAK256 DUP1 SLOAD DUP1 PUSH1 0x20 MUL PUSH1 0x20 ADD PUSH1 0x40 MLOAD SWAP1 DUP2 ADD PUSH1 0x40 MSTORE DUP1 SWAP3 SWAP2 SWAP1 DUP2 DUP2 MSTORE PUSH1 0x20 ADD DUP3 DUP1 SLOAD DUP1 ISZERO PUSH2 0x9DD JUMPI PUSH1 0x20 MUL DUP3 ADD SWAP2 SWAP1 PUSH0 MSTORE PUSH1 0x20 PUSH0 KECCAK256 SWAP1 JUMPDEST DUP2 SLOAD PUSH1 0x1 PUSH1 0x1 PUSH1 0xA0 SHL SUB AND DUP2 MSTORE PUSH1 0x1 SWAP1 SWAP2 ADD SWAP1 PUSH1 0x20 ADD DUP1 DUP4 GT PUSH2 0x9BF JUMPI JUMPDEST POP POP POP POP POP SWAP2 POP DUP2 MLOAD PUSH8 0xFFFFFFFFFFFFFFFF DUP2 GT ISZERO PUSH2 0x9FE JUMPI PUSH2 0x9FE PUSH2 0x21CF JUMP JUMPDEST PUSH1 0x40 MLOAD SWAP1 DUP1 DUP3 MSTORE DUP1 PUSH1 0x20 MUL PUSH1 0x20 ADD DUP3 ADD PUSH1 0x40 MSTORE DUP1 ISZERO PUSH2 0xA37 JUMPI DUP2 PUSH1 0x20 ADD JUMPDEST PUSH2 0xA24 PUSH2 0x1DFD JUMP JUMPDEST DUP2 MSTORE PUSH1 0x20 ADD SWAP1 PUSH1 0x1 SWAP1 SUB SWAP1 DUP2 PUSH2 0xA1C JUMPI SWAP1 POP JUMPDEST POP SWAP1 POP PUSH0 JUMPDEST DUP3 MLOAD DUP2 LT ISZERO PUSH2 0xB01 JUMPI PUSH1 0x5 PUSH0 DUP6 DUP2 MSTORE PUSH1 0x20 ADD SWAP1 DUP2 MSTORE PUSH1 0x20 ADD PUSH0 KECCAK256 PUSH0 DUP5 DUP4 DUP2 MLOAD DUP2 LT PUSH2 0xA69 JUMPI PUSH2 0xA69 PUSH2 0x21E3 JUMP JUMPDEST PUSH1 0x20 SWAP1 DUP2 MUL SWAP2 SWAP1 SWAP2 ADD DUP2 ADD MLOAD PUSH1 0x1 PUSH1 0x1 PUSH1 0xA0 SHL SUB SWAP1 DUP2 AND DUP4 MSTORE DUP3 DUP3 ADD SWAP4 SWAP1 SWAP4 MSTORE PUSH1 0x40 SWAP2 DUP3 ADD PUSH0 KECCAK256 DUP3 MLOAD PUSH1 0xA0 DUP2 ADD DUP5 MSTORE DUP2 SLOAD SWAP1 SWAP5 AND DUP5 MSTORE PUSH1 0x1 DUP2 ADD SLOAD SWAP2 DUP5 ADD SWAP2 SWAP1 SWAP2 MSTORE PUSH1 0x2 DUP2 ADD SLOAD SWAP2 DUP4 ADD SWAP2 SWAP1 SWAP2 MSTORE PUSH1 0x3 DUP2 ADD SLOAD PUSH1 0x60 DUP4 ADD MSTORE PUSH1 0x4 ADD SLOAD PUSH1 0xFF AND ISZERO ISZERO PUSH1 0x80 DUP3 ADD MSTORE DUP3 MLOAD DUP4 SWAP1 DUP4 SWAP1 DUP2 LT PUSH2 0xAE3 JUMPI PUSH2 0xAE3 PUSH2 0x21E3 JUMP JUMPDEST PUSH1 0x20 MUL PUSH1 0x20 ADD ADD DUP2 SWAP1 MSTORE POP DUP1 DUP1 PUSH2 0xAF9 SWAP1 PUSH2 0x21B7 JUMP JUMPDEST SWAP2 POP POP PUSH2 0xA3C JUMP JUMPDEST POP SWAP2 POP SWAP2 JUMP JUMPDEST PUSH2 0xB0F PUSH2 0x1AE2 JUMP JUMPDEST PUSH2 0x3E8 DUP2 GT ISZERO PUSH2 0xB32 JUMPI PUSH1 0x40 MLOAD PUSH4 0xCD4E6167 PUSH1 0xE0 SHL DUP2 MSTORE PUSH1 0x4 ADD PUSH1 0x40 MLOAD DUP1 SWAP2 SUB SWAP1 REVERT JUMPDEST PUSH1 0x2 DUP1 SLOAD SWAP1 DUP3 SWAP1 SSTORE PUSH1 0x40 DUP1 MLOAD DUP3 DUP2 MSTORE PUSH1 0x20 DUP2 ADD DUP5 SWAP1 MSTORE PUSH32 0x528D9479E9F9889A87A3C30C7F7BA537E5E59C4C85A37733B16E57C62DF61302 SWAP2 ADD JUMPDEST PUSH1 0x40 MLOAD DUP1 SWAP2 SUB SWAP1 LOG1 POP POP JUMP JUMPDEST PUSH0 DUP2 DUP2 MSTORE PUSH1 0x7 PUSH1 0x20 SWAP1 DUP2 MSTORE PUSH1 0x40 SWAP2 DUP3 SWAP1 KECCAK256 DUP1 SLOAD DUP4 MLOAD DUP2 DUP5 MUL DUP2 ADD DUP5 ADD SWAP1 SWAP5 MSTORE DUP1 DUP5 MSTORE PUSH1 0x60 SWAP4 SWAP3 DUP4 ADD DUP3 DUP3 DUP1 ISZERO PUSH2 0xBCB JUMPI PUSH1 0x20 MUL DUP3 ADD SWAP2 SWAP1 PUSH0 MSTORE PUSH1 0x20 PUSH0 KECCAK256 SWAP1 JUMPDEST DUP2 SLOAD DUP2 MSTORE PUSH1 0x20 ADD SWAP1 PUSH1 0x1 ADD SWAP1 DUP1 DUP4 GT PUSH2 0xBB7 JUMPI JUMPDEST POP POP POP POP POP SWAP1 POP SWAP2 SWAP1 POP JUMP JUMPDEST PUSH2 0xBDF PUSH2 0x1A5B JUMP JUMPDEST PUSH2 0xBEA DUP3 DUP3 PUSH0 PUSH2 0x1B0F JUMP JUMPDEST PUSH2 0xBF3 PUSH1 0x1 PUSH0 SSTORE JUMP JUMPDEST POP POP JUMP JUMPDEST PUSH0 DUP2 DUP2 MSTORE PUSH1 0x4 PUSH1 0x20 MSTORE PUSH1 0x40 SWAP1 KECCAK256 DUP1 SLOAD PUSH1 0x1 PUSH1 0x1 PUSH1 0xA0 SHL SUB AND PUSH2 0xC2C JUMPI PUSH1 0x40 MLOAD PUSH4 0xDA319DFF PUSH1 0xE0 SHL DUP2 MSTORE PUSH1 0x4 ADD PUSH1 0x40 MLOAD DUP1 SWAP2 SUB SWAP1 REVERT JUMPDEST PUSH0 PUSH1 0x4 DUP3 ADD SLOAD PUSH1 0xFF AND PUSH1 0x6 DUP2 GT ISZERO PUSH2 0xC46 JUMPI PUSH2 0xC46 PUSH2 0x1E49 JUMP JUMPDEST EQ PUSH2 0xC64 JUMPI PUSH1 0x40 MLOAD PUSH4 0xFE894217 PUSH1 0xE0 SHL DUP2 MSTORE PUSH1 0x4 ADD PUSH1 0x40 MLOAD DUP1 SWAP2 SUB SWAP1 REVERT JUMPDEST DUP1 SLOAD PUSH1 0x1 PUSH1 0x1 PUSH1 0xA0 SHL SUB AND CALLER SUB PUSH2 0xC8E JUMPI PUSH1 0x40 MLOAD PUSH4 0xFCE47E5 PUSH1 0xE0 SHL DUP2 MSTORE PUSH1 0x4 ADD PUSH1 0x40 MLOAD DUP1 SWAP2 SUB SWAP1 REVERT JUMPDEST PUSH1 0x1 DUP1 DUP3 ADD DUP1 SLOAD PUSH1 0x1 PUSH1 0x1 PUSH1 0xA0 SHL SUB NOT AND CALLER OR SWAP1 SSTORE PUSH1 0x2 DUP3 ADD SLOAD PUSH1 0x3 DUP4 ADD SSTORE PUSH1 0x4 DUP3 ADD DUP1 SLOAD PUSH1 0xFF NOT AND DUP3 DUP1 MUL OR SWAP1 SSTORE POP TIMESTAMP PUSH1 0x7 DUP3 ADD SSTORE PUSH1 0x40 MLOAD CALLER SWAP1 DUP4 SWAP1 PUSH32 0xE1F58463DA369C5BF09630219FAD2558DD2B2EAD275C5DC36269B384DC138FE SWAP1 PUSH0 SWAP1 LOG3 POP POP JUMP JUMPDEST PUSH2 0xCFC PUSH2 0x1AE2 JUMP JUMPDEST PUSH2 0xD05 PUSH0 PUSH2 0x1D01 JUMP JUMPDEST JUMP JUMPDEST PUSH2 0xD0F PUSH2 0x1A5B JUMP JUMPDEST PUSH0 DUP2 DUP2 MSTORE PUSH1 0x4 PUSH1 0x20 MSTORE PUSH1 0x40 SWAP1 KECCAK256 DUP1 SLOAD PUSH1 0x1 PUSH1 0x1 PUSH1 0xA0 SHL SUB AND CALLER EQ PUSH2 0xD46 JUMPI PUSH1 0x40 MLOAD PUSH4 0x5085C6A7 PUSH1 0xE0 SHL DUP2 MSTORE PUSH1 0x4 ADD PUSH1 0x40 MLOAD DUP1 SWAP2 SUB SWAP1 REVERT JUMPDEST PUSH0 PUSH1 0x4 DUP3 ADD SLOAD PUSH1 0xFF AND PUSH1 0x6 DUP2 GT ISZERO PUSH2 0xD60 JUMPI PUSH2 0xD60 PUSH2 0x1E49 JUMP JUMPDEST EQ PUSH2 0xD7E JUMPI PUSH1 0x40 MLOAD PUSH4 0xE5C81DCB PUSH1 0xE0 SHL DUP2 MSTORE PUSH1 0x4 ADD PUSH1 0x40 MLOAD DUP1 SWAP2 SUB SWAP1 REVERT JUMPDEST PUSH1 0xC SLOAD DUP2 PUSH1 0x6 ADD SLOAD PUSH2 0xD90 SWAP2 SWAP1 PUSH2 0x21A4 JUMP JUMPDEST TIMESTAMP GT PUSH2 0xDAF JUMPI PUSH1 0x40 MLOAD PUSH4 0xE5C81DCB PUSH1 0xE0 SHL DUP2 MSTORE PUSH1 0x4 ADD PUSH1 0x40 MLOAD DUP1 SWAP2 SUB SWAP1 REVERT JUMPDEST PUSH1 0x4 DUP2 ADD DUP1 SLOAD PUSH1 0xFF NOT AND PUSH1 0x5 OR SWAP1 SSTORE DUP1 SLOAD PUSH1 0x2 DUP3 ADD SLOAD PUSH2 0xDFE SWAP2 PUSH32 0x0 PUSH1 0x1 PUSH1 0x1 PUSH1 0xA0 SHL SUB SWAP1 DUP2 AND SWAP3 SWAP2 AND SWAP1 PUSH2 0x1A83 JUMP JUMPDEST DUP1 SLOAD PUSH1 0x2 DUP3 ADD SLOAD PUSH1 0x40 MLOAD SWAP1 DUP2 MSTORE PUSH1 0x1 PUSH1 0x1 PUSH1 0xA0 SHL SUB SWAP1 SWAP2 AND SWAP1 DUP4 SWAP1 PUSH32 0xF3A7AB0CCBAD7F367B7892962016C155D1CE76A3E6FDD0420B5E749763ACBDA7 SWAP1 PUSH1 0x20 ADD PUSH1 0x40 MLOAD DUP1 SWAP2 SUB SWAP1 LOG3 POP PUSH2 0x84C PUSH1 0x1 PUSH0 SSTORE JUMP JUMPDEST PUSH2 0xE58 PUSH2 0x1A5B JUMP JUMPDEST PUSH0 DUP3 DUP2 MSTORE PUSH1 0x4 PUSH1 0x20 MSTORE PUSH1 0x40 SWAP1 KECCAK256 DUP1 SLOAD PUSH1 0x1 PUSH1 0x1 PUSH1 0xA0 SHL SUB AND PUSH2 0xE8D JUMPI PUSH1 0x40 MLOAD PUSH4 0xDA319DFF PUSH1 0xE0 SHL DUP2 MSTORE PUSH1 0x4 ADD PUSH1 0x40 MLOAD DUP1 SWAP2 SUB SWAP1 REVERT JUMPDEST PUSH0 PUSH1 0x4 DUP3 ADD SLOAD PUSH1 0xFF AND PUSH1 0x6 DUP2 GT ISZERO PUSH2 0xEA7 JUMPI PUSH2 0xEA7 PUSH2 0x1E49 JUMP JUMPDEST EQ PUSH2 0xEC5 JUMPI PUSH1 0x40 MLOAD PUSH4 0xFE894217 PUSH1 0xE0 SHL DUP2 MSTORE PUSH1 0x4 ADD PUSH1 0x40 MLOAD DUP1 SWAP2 SUB SWAP1 REVERT JUMPDEST DUP1 SLOAD PUSH1 0x1 PUSH1 0x1 PUSH1 0xA0 SHL SUB AND CALLER EQ PUSH2 0xEEF JUMPI PUSH1 0x40 MLOAD PUSH4 0x5085C6A7 PUSH1 0xE0 SHL DUP2 MSTORE PUSH1 0x4 ADD PUSH1 0x40 MLOAD DUP1 SWAP2 SUB SWAP1 REVERT JUMPDEST PUSH0 DUP4 DUP2 MSTORE PUSH1 0x5 PUSH1 0x20 SWAP1 DUP2 MSTORE PUSH1 0x40 DUP1 DUP4 KECCAK256 PUSH1 0x1 PUSH1 0x1 PUSH1 0xA0 SHL SUB DUP1 DUP8 AND DUP6 MSTORE SWAP3 MSTORE SWAP1 SWAP2 KECCAK256 DUP1 SLOAD SWAP1 SWAP2 AND PUSH2 0xF33 JUMPI PUSH1 0x40 MLOAD PUSH4 0x7E0EEC9 PUSH1 0xE3 SHL DUP2 MSTORE PUSH1 0x4 ADD PUSH1 0x40 MLOAD DUP1 SWAP2 SUB SWAP1 REVERT JUMPDEST PUSH1 0x4 DUP2 DUP2 ADD DUP1 SLOAD PUSH1 0x1 PUSH1 0xFF NOT SWAP2 DUP3 AND DUP2 OR SWAP1 SWAP3 SSTORE DUP5 DUP3 ADD DUP1 SLOAD PUSH1 0x1 PUSH1 0x1 PUSH1 0xA0 SHL SUB NOT AND PUSH1 0x1 PUSH1 0x1 PUSH1 0xA0 SHL SUB DUP9 AND OR SWAP1 SSTORE DUP2 DUP5 ADD DUP1 SLOAD PUSH1 0x3 DUP8 ADD SSTORE SWAP3 DUP6 ADD DUP1 SLOAD SWAP1 SWAP2 AND SWAP1 SWAP2 OR SWAP1 SSTORE TIMESTAMP PUSH1 0x7 DUP5 ADD SSTORE PUSH1 0x2 DUP4 ADD SLOAD SWAP1 SLOAD LT ISZERO PUSH2 0xFE0 JUMPI PUSH0 DUP2 PUSH1 0x1 ADD SLOAD DUP4 PUSH1 0x2 ADD SLOAD PUSH2 0xFA2 SWAP2 SWAP1 PUSH2 0x2191 JUMP JUMPDEST DUP4 SLOAD SWAP1 SWAP2 POP PUSH2 0xFDE SWAP1 PUSH1 0x1 PUSH1 0x1 PUSH1 0xA0 SHL SUB PUSH32 0x0 DUP2 AND SWAP2 AND DUP4 PUSH2 0x1A83 JUMP JUMPDEST POP JUMPDEST DUP3 PUSH1 0x1 PUSH1 0x1 PUSH1 0xA0 SHL SUB AND DUP5 PUSH32 0x11584506704F1759083D660085355522A050C85B08441C428ACCD0CE05F96928 DUP4 PUSH1 0x1 ADD SLOAD PUSH1 0x40 MLOAD PUSH2 0x1020 SWAP2 DUP2 MSTORE PUSH1 0x20 ADD SWAP1 JUMP JUMPDEST PUSH1 0x40 MLOAD DUP1 SWAP2 SUB SWAP1 LOG3 PUSH1 0x40 MLOAD PUSH1 0x1 PUSH1 0x1 PUSH1 0xA0 SHL SUB DUP5 AND SWAP1 DUP6 SWAP1 PUSH32 0xE1F58463DA369C5BF09630219FAD2558DD2B2EAD275C5DC36269B384DC138FE SWAP1 PUSH0 SWAP1 LOG3 POP POP PUSH2 0xBF3 PUSH1 0x1 PUSH0 SSTORE JUMP JUMPDEST PUSH1 0x6 PUSH1 0x20 MSTORE DUP2 PUSH0 MSTORE PUSH1 0x40 PUSH0 KECCAK256 DUP2 DUP2 SLOAD DUP2 LT PUSH2 0x1081 JUMPI PUSH0 DUP1 REVERT JUMPDEST PUSH0 SWAP2 DUP3 MSTORE PUSH1 0x20 SWAP1 SWAP2 KECCAK256 ADD SLOAD PUSH1 0x1 PUSH1 0x1 PUSH1 0xA0 SHL SUB AND SWAP2 POP DUP3 SWAP1 POP JUMP JUMPDEST PUSH2 0x10A4 PUSH2 0x1AE2 JUMP JUMPDEST PUSH1 0xE SSTORE JUMP JUMPDEST PUSH0 DUP2 DUP2 MSTORE PUSH1 0x4 PUSH1 0x20 MSTORE PUSH1 0x40 SWAP1 KECCAK256 PUSH1 0x2 PUSH1 0x4 DUP3 ADD SLOAD PUSH1 0xFF AND PUSH1 0x6 DUP2 GT ISZERO PUSH2 0x10D1 JUMPI PUSH2 0x10D1 PUSH2 0x1E49 JUMP JUMPDEST EQ PUSH2 0x10EF JUMPI PUSH1 0x40 MLOAD PUSH4 0x15FCFCA7 PUSH1 0xE2 SHL DUP2 MSTORE PUSH1 0x4 ADD PUSH1 0x40 MLOAD DUP1 SWAP2 SUB SWAP1 REVERT JUMPDEST DUP1 SLOAD PUSH1 0x1 PUSH1 0x1 PUSH1 0xA0 SHL SUB AND CALLER EQ PUSH2 0x1119 JUMPI PUSH1 0x40 MLOAD PUSH4 0x5085C6A7 PUSH1 0xE0 SHL DUP2 MSTORE PUSH1 0x4 ADD PUSH1 0x40 MLOAD DUP1 SWAP2 SUB SWAP1 REVERT JUMPDEST PUSH1 0xD SLOAD DUP2 PUSH1 0x8 ADD SLOAD PUSH2 0x112B SWAP2 SWAP1 PUSH2 0x21A4 JUMP JUMPDEST TIMESTAMP GT ISZERO PUSH2 0x114B JUMPI PUSH1 0x40 MLOAD PUSH4 0x234C0FFD PUSH1 0xE2 SHL DUP2 MSTORE PUSH1 0x4 ADD PUSH1 0x40 MLOAD DUP1 SWAP2 SUB SWAP1 REVERT JUMPDEST PUSH1 0x4 DUP2 DUP2 ADD DUP1 SLOAD PUSH1 0xFF NOT AND SWAP1 SWAP2 OR SWAP1 SSTORE PUSH1 0x40 MLOAD DUP3 SWAP1 PUSH32 0x765B57EF8D3683C90CB2AF2CC30B2D34CED9FBBF1E02759C3EF780AFED1E8CF4 SWAP1 PUSH0 SWAP1 LOG2 POP POP JUMP JUMPDEST PUSH1 0x7 PUSH1 0x20 MSTORE DUP2 PUSH0 MSTORE PUSH1 0x40 PUSH0 KECCAK256 DUP2 DUP2 SLOAD DUP2 LT PUSH2 0x11A2 JUMPI PUSH0 DUP1 REVERT JUMPDEST SWAP1 PUSH0 MSTORE PUSH1 0x20 PUSH0 KECCAK256 ADD PUSH0 SWAP2 POP SWAP2 POP POP SLOAD DUP2 JUMP JUMPDEST PUSH2 0x11BC PUSH2 0x1A5B JUMP JUMPDEST PUSH2 0x11C4 PUSH2 0x1AE2 JUMP JUMPDEST PUSH0 DUP2 DUP2 MSTORE PUSH1 0x4 PUSH1 0x20 DUP2 SWAP1 MSTORE PUSH1 0x40 SWAP1 SWAP2 KECCAK256 SWAP1 PUSH1 0x4 DUP3 ADD SLOAD PUSH1 0xFF AND PUSH1 0x6 DUP2 GT ISZERO PUSH2 0x11EE JUMPI PUSH2 0x11EE PUSH2 0x1E49 JUMP JUMPDEST EQ PUSH2 0x120C JUMPI PUSH1 0x40 MLOAD PUSH4 0xE5C81DCB PUSH1 0xE0 SHL DUP2 MSTORE PUSH1 0x4 ADD PUSH1 0x40 MLOAD DUP1 SWAP2 SUB SWAP1 REVERT JUMPDEST PUSH1 0x4 DUP2 ADD DUP1 SLOAD PUSH1 0xFF NOT AND PUSH1 0x5 OR SWAP1 SSTORE PUSH1 0x3 DUP2 ADD SLOAD PUSH0 SWAP1 PUSH2 0x2710 SWAP1 PUSH2 0x1232 SWAP1 PUSH2 0x1B58 PUSH2 0x215B JUMP JUMPDEST PUSH2 0x123C SWAP2 SWAP1 PUSH2 0x2172 JUMP JUMPDEST SWAP1 POP PUSH0 DUP2 DUP4 PUSH1 0x3 ADD SLOAD PUSH2 0x124F SWAP2 SWAP1 PUSH2 0x2191 JUMP JUMPDEST DUP4 SLOAD SWAP1 SWAP2 POP PUSH2 0x128B SWAP1 PUSH1 0x1 PUSH1 0x1 PUSH1 0xA0 SHL SUB PUSH32 0x0 DUP2 AND SWAP2 AND DUP5 PUSH2 0x1A83 JUMP JUMPDEST DUP1 ISZERO PUSH2 0x12CD JUMPI PUSH1 0x1 DUP4 ADD SLOAD PUSH2 0x12CD SWAP1 PUSH1 0x1 PUSH1 0x1 PUSH1 0xA0 SHL SUB PUSH32 0x0 DUP2 AND SWAP2 AND DUP4 PUSH2 0x1A83 JUMP JUMPDEST DUP3 SLOAD PUSH1 0x40 MLOAD DUP4 DUP2 MSTORE PUSH1 0x1 PUSH1 0x1 PUSH1 0xA0 SHL SUB SWAP1 SWAP2 AND SWAP1 DUP6 SWAP1 PUSH32 0xF3A7AB0CCBAD7F367B7892962016C155D1CE76A3E6FDD0420B5E749763ACBDA7 SWAP1 PUSH1 0x20 ADD PUSH2 0x838 JUMP JUMPDEST PUSH2 0x1315 PUSH2 0x1DFD JUMP JUMPDEST POP PUSH0 DUP3 DUP2 MSTORE PUSH1 0x5 PUSH1 0x20 SWAP1 DUP2 MSTORE PUSH1 0x40 DUP1 DUP4 KECCAK256 PUSH1 0x1 PUSH1 0x1 PUSH1 0xA0 SHL SUB DUP1 DUP7 AND DUP6 MSTORE SWAP1 DUP4 MSTORE SWAP3 DUP2 SWAP1 KECCAK256 DUP2 MLOAD PUSH1 0xA0 DUP2 ADD DUP4 MSTORE DUP2 SLOAD SWAP1 SWAP5 AND DUP5 MSTORE PUSH1 0x1 DUP2 ADD SLOAD SWAP3 DUP5 ADD SWAP3 SWAP1 SWAP3 MSTORE PUSH1 0x2 DUP3 ADD SLOAD SWAP1 DUP4 ADD MSTORE PUSH1 0x3 DUP2 ADD SLOAD PUSH1 0x60 DUP4 ADD MSTORE PUSH1 0x4 ADD SLOAD PUSH1 0xFF AND ISZERO ISZERO PUSH1 0x80 DUP3 ADD MSTORE JUMPDEST SWAP3 SWAP2 POP POP JUMP JUMPDEST PUSH0 DUP3 DUP2 MSTORE PUSH1 0x4 PUSH1 0x20 MSTORE PUSH1 0x40 SWAP1 KECCAK256 PUSH1 0x1 PUSH1 0x4 DUP3 ADD SLOAD PUSH1 0xFF AND PUSH1 0x6 DUP2 GT ISZERO PUSH2 0x13A5 JUMPI PUSH2 0x13A5 PUSH2 0x1E49 JUMP JUMPDEST EQ PUSH2 0x13C3 JUMPI PUSH1 0x40 MLOAD PUSH4 0xABBFAC0D PUSH1 0xE0 SHL DUP2 MSTORE PUSH1 0x4 ADD PUSH1 0x40 MLOAD DUP1 SWAP2 SUB SWAP1 REVERT JUMPDEST PUSH1 0x1 DUP2 ADD SLOAD PUSH1 0x1 PUSH1 0x1 PUSH1 0xA0 SHL SUB AND CALLER EQ PUSH2 0x13F0 JUMPI PUSH1 0x40 MLOAD PUSH4 0xE1B1BE19 PUSH1 0xE0 SHL DUP2 MSTORE PUSH1 0x4 ADD PUSH1 0x40 MLOAD DUP1 SWAP2 SUB SWAP1 REVERT JUMPDEST DUP2 PUSH2 0x1442 JUMPI PUSH1 0x40 MLOAD PUSH3 0x461BCD PUSH1 0xE5 SHL DUP2 MSTORE PUSH1 0x20 PUSH1 0x4 DUP3 ADD MSTORE PUSH1 0x18 PUSH1 0x24 DUP3 ADD MSTORE PUSH32 0x496E76616C69642064656C6976657261626C6520686173680000000000000000 PUSH1 0x44 DUP3 ADD MSTORE PUSH1 0x64 ADD JUMPDEST PUSH1 0x40 MLOAD DUP1 SWAP2 SUB SWAP1 REVERT JUMPDEST PUSH1 0x5 DUP2 ADD DUP3 SWAP1 SSTORE PUSH1 0x4 DUP2 ADD DUP1 SLOAD PUSH1 0xFF NOT AND PUSH1 0x2 OR SWAP1 SSTORE TIMESTAMP PUSH1 0x8 DUP3 ADD SSTORE PUSH1 0x40 MLOAD DUP3 DUP2 MSTORE DUP4 SWAP1 PUSH32 0x480DA4CCF65F8315CBA8BA88EC1E6CDC983D8CFF56CCC4C99AF625A3C74CE4DA SWAP1 PUSH1 0x20 ADD PUSH1 0x40 MLOAD DUP1 SWAP2 SUB SWAP1 LOG2 POP POP POP JUMP JUMPDEST PUSH0 DUP4 DUP2 MSTORE PUSH1 0x4 PUSH1 0x20 MSTORE PUSH1 0x40 SWAP1 KECCAK256 DUP1 SLOAD PUSH1 0x1 PUSH1 0x1 PUSH1 0xA0 SHL SUB AND PUSH2 0x14CD JUMPI PUSH1 0x40 MLOAD PUSH4 0xDA319DFF PUSH1 0xE0 SHL DUP2 MSTORE PUSH1 0x4 ADD PUSH1 0x40 MLOAD DUP1 SWAP2 SUB SWAP1 REVERT JUMPDEST PUSH0 PUSH1 0x4 DUP3 ADD SLOAD PUSH1 0xFF AND PUSH1 0x6 DUP2 GT ISZERO PUSH2 0x14E7 JUMPI PUSH2 0x14E7 PUSH2 0x1E49 JUMP JUMPDEST EQ PUSH2 0x1505 JUMPI PUSH1 0x40 MLOAD PUSH4 0xFE894217 PUSH1 0xE0 SHL DUP2 MSTORE PUSH1 0x4 ADD PUSH1 0x40 MLOAD DUP1 SWAP2 SUB SWAP1 REVERT JUMPDEST DUP1 SLOAD PUSH1 0x1 PUSH1 0x1 PUSH1 0xA0 SHL SUB AND CALLER SUB PUSH2 0x152F JUMPI PUSH1 0x40 MLOAD PUSH4 0xFCE47E5 PUSH1 0xE0 SHL DUP2 MSTORE PUSH1 0x4 ADD PUSH1 0x40 MLOAD DUP1 SWAP2 SUB SWAP1 REVERT JUMPDEST DUP3 PUSH0 SUB PUSH2 0x154F JUMPI PUSH1 0x40 MLOAD PUSH4 0xAA04EEAD PUSH1 0xE0 SHL DUP2 MSTORE PUSH1 0x4 ADD PUSH1 0x40 MLOAD DUP1 SWAP2 SUB SWAP1 REVERT JUMPDEST DUP1 PUSH1 0x2 ADD SLOAD DUP4 GT ISZERO PUSH2 0x1574 JUMPI PUSH1 0x40 MLOAD PUSH4 0x9F44ED7 PUSH1 0xE2 SHL DUP2 MSTORE PUSH1 0x4 ADD PUSH1 0x40 MLOAD DUP1 SWAP2 SUB SWAP1 REVERT JUMPDEST PUSH0 DUP5 DUP2 MSTORE PUSH1 0x5 PUSH1 0x20 SWAP1 DUP2 MSTORE PUSH1 0x40 DUP1 DUP4 KECCAK256 CALLER DUP5 MSTORE SWAP1 SWAP2 MSTORE SWAP1 KECCAK256 SLOAD PUSH1 0x1 PUSH1 0x1 PUSH1 0xA0 SHL SUB AND ISZERO PUSH2 0x15B4 JUMPI PUSH1 0x40 MLOAD PUSH4 0xB8CEE9F PUSH1 0xE4 SHL DUP2 MSTORE PUSH1 0x4 ADD PUSH1 0x40 MLOAD DUP1 SWAP2 SUB SWAP1 REVERT JUMPDEST PUSH1 0x40 DUP1 MLOAD PUSH1 0xA0 DUP2 ADD DUP3 MSTORE CALLER DUP1 DUP3 MSTORE PUSH1 0x20 DUP1 DUP4 ADD DUP8 DUP2 MSTORE DUP4 DUP6 ADD DUP8 DUP2 MSTORE TIMESTAMP PUSH1 0x60 DUP7 ADD SWAP1 DUP2 MSTORE PUSH0 PUSH1 0x80 DUP8 ADD DUP2 DUP2 MSTORE DUP13 DUP3 MSTORE PUSH1 0x5 DUP7 MSTORE DUP9 DUP3 KECCAK256 DUP8 DUP4 MSTORE DUP7 MSTORE DUP9 DUP3 KECCAK256 SWAP8 MLOAD DUP9 SLOAD PUSH1 0x1 PUSH1 0x1 PUSH1 0xA0 SHL SUB SWAP2 SWAP1 SWAP2 AND PUSH1 0x1 PUSH1 0x1 PUSH1 0xA0 SHL SUB NOT SWAP2 DUP3 AND OR DUP10 SSTORE SWAP5 MLOAD PUSH1 0x1 DUP10 DUP2 ADD SWAP2 SWAP1 SWAP2 SSTORE SWAP4 MLOAD PUSH1 0x2 DUP10 ADD SSTORE SWAP2 MLOAD PUSH1 0x3 DUP9 ADD SSTORE SWAP1 MLOAD PUSH1 0x4 SWAP1 SWAP7 ADD DUP1 SLOAD SWAP7 ISZERO ISZERO PUSH1 0xFF NOT SWAP1 SWAP8 AND SWAP7 SWAP1 SWAP7 OR SWAP1 SWAP6 SSTORE DUP10 DUP6 MSTORE PUSH1 0x6 DUP4 MSTORE SWAP5 DUP5 KECCAK256 DUP1 SLOAD SWAP6 DUP7 ADD DUP2 SSTORE DUP5 MSTORE SWAP1 DUP4 KECCAK256 SWAP1 SWAP4 ADD DUP1 SLOAD SWAP1 SWAP4 AND OR SWAP1 SWAP2 SSTORE PUSH1 0xA DUP3 ADD DUP1 SLOAD SWAP2 PUSH2 0x1675 DUP4 PUSH2 0x21B7 JUMP JUMPDEST SWAP1 SWAP2 SSTORE POP POP PUSH1 0x40 DUP1 MLOAD DUP5 DUP2 MSTORE PUSH1 0x20 DUP2 ADD DUP5 SWAP1 MSTORE CALLER SWAP2 DUP7 SWAP2 PUSH32 0xEF6D2C268E6C826F1B828EB961B739407D952AA5104E66B5EA600F36F7F0F21A SWAP2 ADD PUSH1 0x40 MLOAD DUP1 SWAP2 SUB SWAP1 LOG3 POP POP POP POP JUMP JUMPDEST PUSH2 0x16C5 PUSH2 0x1AE2 JUMP JUMPDEST PUSH1 0x1 PUSH1 0x1 PUSH1 0xA0 SHL SUB DUP2 AND PUSH2 0x16EC JUMPI PUSH1 0x40 MLOAD PUSH4 0xED1B8B3 PUSH1 0xE3 SHL DUP2 MSTORE PUSH1 0x4 ADD PUSH1 0x40 MLOAD DUP1 SWAP2 SUB SWAP1 REVERT JUMPDEST PUSH1 0x3 DUP1 SLOAD PUSH1 0x1 PUSH1 0x1 PUSH1 0xA0 SHL SUB DUP4 DUP2 AND PUSH1 0x1 PUSH1 0x1 PUSH1 0xA0 SHL SUB NOT DUP4 AND DUP2 OR SWAP1 SWAP4 SSTORE PUSH1 0x40 DUP1 MLOAD SWAP2 SWAP1 SWAP3 AND DUP1 DUP3 MSTORE PUSH1 0x20 DUP3 ADD SWAP4 SWAP1 SWAP4 MSTORE PUSH32 0xAAEBCF1BFA00580E41D966056B48521FA9F202645C86D4DDF28113E617C1B1D3 SWAP2 ADD PUSH2 0xB6C JUMP JUMPDEST PUSH2 0x174E PUSH2 0x1AE2 JUMP JUMPDEST PUSH1 0xC SSTORE JUMP JUMPDEST PUSH2 0x175B PUSH2 0x1A5B JUMP JUMPDEST PUSH0 DUP2 DUP2 MSTORE PUSH1 0x4 PUSH1 0x20 MSTORE PUSH1 0x40 SWAP1 KECCAK256 DUP1 SLOAD PUSH1 0x1 PUSH1 0x1 PUSH1 0xA0 SHL SUB AND PUSH2 0x1790 JUMPI PUSH1 0x40 MLOAD PUSH4 0xDA319DFF PUSH1 0xE0 SHL DUP2 MSTORE PUSH1 0x4 ADD PUSH1 0x40 MLOAD DUP1 SWAP2 SUB SWAP1 REVERT JUMPDEST PUSH0 PUSH1 0x4 DUP3 ADD SLOAD PUSH1 0xFF AND PUSH1 0x6 DUP2 GT ISZERO PUSH2 0x17AA JUMPI PUSH2 0x17AA PUSH2 0x1E49 JUMP JUMPDEST EQ PUSH2 0x17C8 JUMPI PUSH1 0x40 MLOAD PUSH4 0xFE894217 PUSH1 0xE0 SHL DUP2 MSTORE PUSH1 0x4 ADD PUSH1 0x40 MLOAD DUP1 SWAP2 SUB SWAP1 REVERT JUMPDEST DUP1 SLOAD PUSH1 0x1 PUSH1 0x1 PUSH1 0xA0 SHL SUB AND CALLER EQ PUSH2 0x17F2 JUMPI PUSH1 0x40 MLOAD PUSH4 0x5085C6A7 PUSH1 0xE0 SHL DUP2 MSTORE PUSH1 0x4 ADD PUSH1 0x40 MLOAD DUP1 SWAP2 SUB SWAP1 REVERT JUMPDEST PUSH1 0x4 DUP2 ADD DUP1 SLOAD PUSH1 0xFF NOT AND PUSH1 0x6 OR SWAP1 SSTORE DUP1 SLOAD PUSH1 0x2 DUP3 ADD SLOAD PUSH2 0x1841 SWAP2 PUSH32 0x0 PUSH1 0x1 PUSH1 0x1 PUSH1 0xA0 SHL SUB SWAP1 DUP2 AND SWAP3 SWAP2 AND SWAP1 PUSH2 0x1A83 JUMP JUMPDEST DUP1 SLOAD PUSH1 0x40 MLOAD PUSH1 0x1 PUSH1 0x1 PUSH1 0xA0 SHL SUB SWAP1 SWAP2 AND SWAP1 DUP4 SWAP1 PUSH32 0x44D83729A43F9C6046446DF014D073DD242E0AD672071E9B292F31B669C25B09 SWAP1 PUSH0 SWAP1 LOG3 POP PUSH2 0x84C PUSH1 0x1 PUSH0 SSTORE JUMP JUMPDEST PUSH2 0x188B PUSH2 0x1A5B JUMP JUMPDEST PUSH0 DUP2 DUP2 MSTORE PUSH1 0x4 PUSH1 0x20 MSTORE PUSH1 0x40 SWAP1 KECCAK256 PUSH1 0x2 PUSH1 0x4 DUP3 ADD SLOAD PUSH1 0xFF AND PUSH1 0x6 DUP2 GT ISZERO PUSH2 0x18B3 JUMPI PUSH2 0x18B3 PUSH2 0x1E49 JUMP JUMPDEST EQ PUSH2 0x18D1 JUMPI PUSH1 0x40 MLOAD PUSH4 0x15FCFCA7 PUSH1 0xE2 SHL DUP2 MSTORE PUSH1 0x4 ADD PUSH1 0x40 MLOAD DUP1 SWAP2 SUB SWAP1 REVERT JUMPDEST PUSH1 0xE SLOAD DUP2 PUSH1 0x8 ADD SLOAD PUSH2 0x18E3 SWAP2 SWAP1 PUSH2 0x21A4 JUMP JUMPDEST TIMESTAMP LT ISZERO PUSH2 0x6EA JUMPI PUSH1 0x40 MLOAD PUSH4 0xE05D403 PUSH1 0xE4 SHL DUP2 MSTORE PUSH1 0x4 ADD PUSH1 0x40 MLOAD DUP1 SWAP2 SUB SWAP1 REVERT JUMPDEST PUSH2 0x190B PUSH2 0x1A5B JUMP JUMPDEST PUSH0 DUP4 DUP2 MSTORE PUSH1 0x4 PUSH1 0x20 MSTORE PUSH1 0x40 SWAP1 KECCAK256 DUP1 SLOAD PUSH1 0x1 PUSH1 0x1 PUSH1 0xA0 SHL SUB AND PUSH2 0x1940 JUMPI PUSH1 0x40 MLOAD PUSH4 0xDA319DFF PUSH1 0xE0 SHL DUP2 MSTORE PUSH1 0x4 ADD PUSH1 0x40 MLOAD DUP1 SWAP2 SUB SWAP1 REVERT JUMPDEST PUSH1 0x1 DUP2 ADD SLOAD PUSH1 0x1 PUSH1 0x1 PUSH1 0xA0 SHL SUB AND CALLER EQ PUSH2 0x196D JUMPI PUSH1 0x40 MLOAD PUSH4 0xD6B2F97F PUSH1 0xE0 SHL DUP2 MSTORE PUSH1 0x4 ADD PUSH1 0x40 MLOAD DUP1 SWAP2 SUB SWAP1 REVERT JUMPDEST PUSH1 0x1 PUSH1 0x4 DUP3 ADD SLOAD PUSH1 0xFF AND PUSH1 0x6 DUP2 GT ISZERO PUSH2 0x1988 JUMPI PUSH2 0x1988 PUSH2 0x1E49 JUMP JUMPDEST EQ PUSH2 0x19A6 JUMPI PUSH1 0x40 MLOAD PUSH4 0xABBFAC0D PUSH1 0xE0 SHL DUP2 MSTORE PUSH1 0x4 ADD PUSH1 0x40 MLOAD DUP1 SWAP2 SUB SWAP1 REVERT JUMPDEST PUSH2 0x19B1 DUP4 DUP4 DUP7 PUSH2 0x1B0F JUMP JUMPDEST PUSH0 DUP5 DUP2 MSTORE PUSH1 0x7 PUSH1 0x20 SWAP1 DUP2 MSTORE PUSH1 0x40 DUP1 DUP4 KECCAK256 DUP1 SLOAD PUSH1 0x1 DUP2 ADD DUP3 SSTORE SWAP1 DUP5 MSTORE SWAP2 SWAP1 SWAP3 KECCAK256 ADD DUP5 SWAP1 SSTORE MLOAD CALLER SWAP1 DUP5 SWAP1 DUP7 SWAP1 PUSH32 0xA8FBC1664833C0000EC4104C2D4E046AFDEF3F29BD44B36BE042A0110EB45482 SWAP1 PUSH2 0x1A0A SWAP1 DUP8 DUP2 MSTORE PUSH1 0x20 ADD SWAP1 JUMP JUMPDEST PUSH1 0x40 MLOAD DUP1 SWAP2 SUB SWAP1 LOG4 POP PUSH2 0x1A1C PUSH1 0x1 PUSH0 SSTORE JUMP JUMPDEST POP POP POP JUMP JUMPDEST PUSH2 0x1A29 PUSH2 0x1AE2 JUMP JUMPDEST PUSH1 0x1 PUSH1 0x1 PUSH1 0xA0 SHL SUB DUP2 AND PUSH2 0x1A52 JUMPI PUSH1 0x40 MLOAD PUSH4 0x1E4FBDF7 PUSH1 0xE0 SHL DUP2 MSTORE PUSH0 PUSH1 0x4 DUP3 ADD MSTORE PUSH1 0x24 ADD PUSH2 0x1439 JUMP JUMPDEST PUSH2 0x84C DUP2 PUSH2 0x1D01 JUMP JUMPDEST PUSH1 0x2 PUSH0 SLOAD SUB PUSH2 0x1A7D JUMPI PUSH1 0x40 MLOAD PUSH4 0x3EE5AEB5 PUSH1 0xE0 SHL DUP2 MSTORE PUSH1 0x4 ADD PUSH1 0x40 MLOAD DUP1 SWAP2 SUB SWAP1 REVERT JUMPDEST PUSH1 0x2 PUSH0 SSTORE JUMP JUMPDEST PUSH1 0x40 MLOAD PUSH1 0x1 PUSH1 0x1 PUSH1 0xA0 SHL SUB DUP4 DUP2 AND PUSH1 0x24 DUP4 ADD MSTORE PUSH1 0x44 DUP3 ADD DUP4 SWAP1 MSTORE PUSH2 0x1A1C SWAP2 DUP6 SWAP2 DUP3 AND SWAP1 PUSH4 0xA9059CBB SWAP1 PUSH1 0x64 ADD JUMPDEST PUSH1 0x40 MLOAD PUSH1 0x20 DUP2 DUP4 SUB SUB DUP2 MSTORE SWAP1 PUSH1 0x40 MSTORE SWAP2 POP PUSH1 0xE0 SHL PUSH1 0x20 DUP3 ADD DUP1 MLOAD PUSH1 0x1 PUSH1 0x1 PUSH1 0xE0 SHL SUB DUP4 DUP2 DUP4 AND OR DUP4 MSTORE POP POP POP POP PUSH2 0x1D52 JUMP JUMPDEST PUSH1 0x1 SLOAD PUSH1 0x1 PUSH1 0x1 PUSH1 0xA0 SHL SUB AND CALLER EQ PUSH2 0xD05 JUMPI PUSH1 0x40 MLOAD PUSH4 0x118CDAA7 PUSH1 0xE0 SHL DUP2 MSTORE CALLER PUSH1 0x4 DUP3 ADD MSTORE PUSH1 0x24 ADD PUSH2 0x1439 JUMP JUMPDEST PUSH0 DUP4 DUP2 MSTORE PUSH1 0x4 PUSH1 0x20 MSTORE PUSH1 0x40 SWAP1 KECCAK256 SLOAD PUSH1 0x1 PUSH1 0x1 PUSH1 0xA0 SHL SUB AND ISZERO PUSH2 0x1B44 JUMPI PUSH1 0x40 MLOAD PUSH4 0xF2E16B03 PUSH1 0xE0 SHL DUP2 MSTORE PUSH1 0x4 ADD PUSH1 0x40 MLOAD DUP1 SWAP2 SUB SWAP1 REVERT JUMPDEST DUP2 PUSH0 SUB PUSH2 0x1B64 JUMPI PUSH1 0x40 MLOAD PUSH4 0xCE8338ED PUSH1 0xE0 SHL DUP2 MSTORE PUSH1 0x4 ADD PUSH1 0x40 MLOAD DUP1 SWAP2 SUB SWAP1 REVERT JUMPDEST PUSH2 0x1B99 PUSH1 0x1 PUSH1 0x1 PUSH1 0xA0 SHL SUB PUSH32 0x0 AND CALLER ADDRESS DUP6 PUSH2 0x1DC4 JUMP JUMPDEST PUSH1 0x40 DUP1 MLOAD PUSH2 0x160 DUP2 ADD DUP3 MSTORE CALLER DUP2 MSTORE PUSH0 PUSH1 0x20 DUP1 DUP4 ADD DUP3 DUP2 MSTORE DUP4 DUP6 ADD DUP8 DUP2 MSTORE PUSH1 0x60 DUP6 ADD DUP9 DUP2 MSTORE PUSH1 0x80 DUP7 ADD DUP6 DUP2 MSTORE PUSH1 0xA0 DUP8 ADD DUP7 SWAP1 MSTORE TIMESTAMP PUSH1 0xC0 DUP9 ADD MSTORE PUSH1 0xE0 DUP8 ADD DUP7 SWAP1 MSTORE PUSH2 0x100 DUP8 ADD DUP7 SWAP1 MSTORE PUSH2 0x120 DUP8 ADD DUP10 SWAP1 MSTORE PUSH2 0x140 DUP8 ADD DUP7 SWAP1 MSTORE DUP11 DUP7 MSTORE PUSH1 0x4 SWAP5 DUP6 SWAP1 MSTORE SWAP7 SWAP1 SWAP5 KECCAK256 DUP6 MLOAD DUP2 SLOAD PUSH1 0x1 PUSH1 0x1 PUSH1 0xA0 SHL SUB NOT SWAP1 DUP2 AND PUSH1 0x1 PUSH1 0x1 PUSH1 0xA0 SHL SUB SWAP3 DUP4 AND OR DUP4 SSTORE SWAP4 MLOAD PUSH1 0x1 DUP1 DUP5 ADD DUP1 SLOAD SWAP1 SWAP7 AND SWAP2 SWAP1 SWAP3 AND OR SWAP1 SWAP4 SSTORE SWAP1 MLOAD PUSH1 0x2 DUP3 ADD SSTORE SWAP3 MLOAD PUSH1 0x3 DUP5 ADD SSTORE SWAP4 MLOAD SWAP1 DUP3 ADD DUP1 SLOAD SWAP4 SWAP5 SWAP3 SWAP4 SWAP2 SWAP3 SWAP1 SWAP2 PUSH1 0xFF NOT AND SWAP1 DUP4 PUSH1 0x6 DUP2 GT ISZERO PUSH2 0x1C63 JUMPI PUSH2 0x1C63 PUSH2 0x1E49 JUMP JUMPDEST MUL OR SWAP1 SSTORE POP PUSH1 0xA0 DUP3 ADD MLOAD PUSH1 0x5 DUP3 ADD SSTORE PUSH1 0xC0 DUP3 ADD MLOAD PUSH1 0x6 DUP3 ADD SSTORE PUSH1 0xE0 DUP3 ADD MLOAD PUSH1 0x7 DUP3 ADD SSTORE PUSH2 0x100 DUP3 ADD MLOAD PUSH1 0x8 DUP1 DUP4 ADD SWAP2 SWAP1 SWAP2 SSTORE PUSH2 0x120 DUP4 ADD MLOAD PUSH1 0x9 DUP4 ADD SSTORE PUSH2 0x140 SWAP1 SWAP3 ADD MLOAD PUSH1 0xA SWAP1 SWAP2 ADD SSTORE DUP1 SLOAD SWAP1 PUSH0 PUSH2 0x1CBA DUP4 PUSH2 0x21B7 JUMP JUMPDEST SWAP1 SWAP2 SSTORE POP POP PUSH1 0x40 DUP1 MLOAD DUP4 DUP2 MSTORE PUSH1 0x20 DUP2 ADD DUP4 SWAP1 MSTORE CALLER SWAP2 DUP6 SWAP2 PUSH32 0x2B6D0A485834BBF18C00F1C929F83B527C3D517653AD7206E356AF51190E9B36 SWAP2 ADD PUSH1 0x40 MLOAD DUP1 SWAP2 SUB SWAP1 LOG3 POP POP POP JUMP JUMPDEST PUSH1 0x1 DUP1 SLOAD PUSH1 0x1 PUSH1 0x1 PUSH1 0xA0 SHL SUB DUP4 DUP2 AND PUSH1 0x1 PUSH1 0x1 PUSH1 0xA0 SHL SUB NOT DUP4 AND DUP2 OR SWAP1 SWAP4 SSTORE PUSH1 0x40 MLOAD SWAP2 AND SWAP2 SWAP1 DUP3 SWAP1 PUSH32 0x8BE0079C531659141344CD1FD0A4F28419497F9722A3DAAFE3B4186F6B6457E0 SWAP1 PUSH0 SWAP1 LOG3 POP POP JUMP JUMPDEST PUSH0 DUP1 PUSH1 0x20 PUSH0 DUP5 MLOAD PUSH1 0x20 DUP7 ADD PUSH0 DUP9 GAS CALL DUP1 PUSH2 0x1D71 JUMPI PUSH1 0x40 MLOAD RETURNDATASIZE PUSH0 DUP3 RETURNDATACOPY RETURNDATASIZE DUP2 REVERT JUMPDEST POP POP PUSH0 MLOAD RETURNDATASIZE SWAP2 POP DUP2 ISZERO PUSH2 0x1D88 JUMPI DUP1 PUSH1 0x1 EQ ISZERO PUSH2 0x1D95 JUMP JUMPDEST PUSH1 0x1 PUSH1 0x1 PUSH1 0xA0 SHL SUB DUP5 AND EXTCODESIZE ISZERO JUMPDEST ISZERO PUSH2 0x1DBE JUMPI PUSH1 0x40 MLOAD PUSH4 0x5274AFE7 PUSH1 0xE0 SHL DUP2 MSTORE PUSH1 0x1 PUSH1 0x1 PUSH1 0xA0 SHL SUB DUP6 AND PUSH1 0x4 DUP3 ADD MSTORE PUSH1 0x24 ADD PUSH2 0x1439 JUMP JUMPDEST POP POP POP POP JUMP JUMPDEST PUSH1 0x40 MLOAD PUSH1 0x1 PUSH1 0x1 PUSH1 0xA0 SHL SUB DUP5 DUP2 AND PUSH1 0x24 DUP4 ADD MSTORE DUP4 DUP2 AND PUSH1 0x44 DUP4 ADD MSTORE PUSH1 0x64 DUP3 ADD DUP4 SWAP1 MSTORE PUSH2 0x1DBE SWAP2 DUP7 SWAP2 DUP3 AND SWAP1 PUSH4 0x23B872DD SWAP1 PUSH1 0x84 ADD PUSH2 0x1AB0 JUMP JUMPDEST PUSH1 0x40 MLOAD DUP1 PUSH1 0xA0 ADD PUSH1 0x40 MSTORE DUP1 PUSH0 PUSH1 0x1 PUSH1 0x1 PUSH1 0xA0 SHL SUB AND DUP2 MSTORE PUSH1 0x20 ADD PUSH0 DUP2 MSTORE PUSH1 0x20 ADD PUSH0 DUP2 MSTORE PUSH1 0x20 ADD PUSH0 DUP2 MSTORE PUSH1 0x20 ADD PUSH0 ISZERO ISZERO DUP2 MSTORE POP SWAP1 JUMP JUMPDEST PUSH0 PUSH1 0x20 DUP3 DUP5 SUB SLT ISZERO PUSH2 0x1E42 JUMPI PUSH0 DUP1 REVERT JUMPDEST POP CALLDATALOAD SWAP2 SWAP1 POP JUMP JUMPDEST PUSH4 0x4E487B71 PUSH1 0xE0 SHL PUSH0 MSTORE PUSH1 0x21 PUSH1 0x4 MSTORE PUSH1 0x24 PUSH0 REVERT JUMPDEST PUSH1 0x7 DUP2 LT PUSH2 0x1E79 JUMPI PUSH4 0x4E487B71 PUSH1 0xE0 SHL PUSH0 MSTORE PUSH1 0x21 PUSH1 0x4 MSTORE PUSH1 0x24 PUSH0 REVERT JUMPDEST SWAP1 MSTORE JUMP JUMPDEST DUP2 MLOAD PUSH1 0x1 PUSH1 0x1 PUSH1 0xA0 SHL SUB AND DUP2 MSTORE PUSH2 0x160 DUP2 ADD PUSH1 0x20 DUP4 ADD MLOAD PUSH2 0x1EA9 PUSH1 0x20 DUP5 ADD DUP3 PUSH1 0x1 PUSH1 0x1 PUSH1 0xA0 SHL SUB AND SWAP1 MSTORE JUMP JUMPDEST POP PUSH1 0x40 DUP4 ADD MLOAD PUSH1 0x40 DUP4 ADD MSTORE PUSH1 0x60 DUP4 ADD MLOAD PUSH1 0x60 DUP4 ADD MSTORE PUSH1 0x80 DUP4 ADD MLOAD PUSH2 0x1ED0 PUSH1 0x80 DUP5 ADD DUP3 PUSH2 0x1E5D JUMP JUMPDEST POP PUSH1 0xA0 DUP4 ADD MLOAD PUSH1 0xA0 DUP4 ADD MSTORE PUSH1 0xC0 DUP4 ADD MLOAD PUSH1 0xC0 DUP4 ADD MSTORE PUSH1 0xE0 DUP4 ADD MLOAD PUSH1 0xE0 DUP4 ADD MSTORE PUSH2 0x100 DUP1 DUP5 ADD MLOAD DUP2 DUP5 ADD MSTORE POP PUSH2 0x120 DUP1 DUP5 ADD MLOAD DUP2 DUP5 ADD MSTORE POP PUSH2 0x140 DUP1 DUP5 ADD MLOAD DUP2 DUP5 ADD MSTORE POP SWAP3 SWAP2 POP POP JUMP JUMPDEST DUP1 MLOAD PUSH1 0x1 PUSH1 0x1 PUSH1 0xA0 SHL SUB AND DUP3 MSTORE PUSH1 0x20 DUP1 DUP3 ADD MLOAD SWAP1 DUP4 ADD MSTORE PUSH1 0x40 DUP1 DUP3 ADD MLOAD SWAP1 DUP4 ADD MSTORE PUSH1 0x60 DUP1 DUP3 ADD MLOAD SWAP1 DUP4 ADD MSTORE PUSH1 0x80 SWAP1 DUP2 ADD MLOAD ISZERO ISZERO SWAP2 ADD MSTORE JUMP JUMPDEST PUSH1 0x40 DUP1 DUP3 MSTORE DUP4 MLOAD SWAP1 DUP3 ADD DUP2 SWAP1 MSTORE PUSH0 SWAP1 PUSH1 0x20 SWAP1 PUSH1 0x60 DUP5 ADD SWAP1 DUP3 DUP8 ADD DUP5 JUMPDEST DUP3 DUP2 LT ISZERO PUSH2 0x1F92 JUMPI DUP2 MLOAD PUSH1 0x1 PUSH1 0x1 PUSH1 0xA0 SHL SUB AND DUP5 MSTORE SWAP3 DUP5 ADD SWAP3 SWAP1 DUP5 ADD SWAP1 PUSH1 0x1 ADD PUSH2 0x1F6D JUMP JUMPDEST POP POP POP DUP4 DUP2 SUB DUP3 DUP6 ADD MSTORE DUP5 MLOAD DUP1 DUP3 MSTORE DUP6 DUP4 ADD SWAP2 DUP4 ADD SWAP1 PUSH0 JUMPDEST DUP2 DUP2 LT ISZERO PUSH2 0x1FD0 JUMPI PUSH2 0x1FBD DUP4 DUP6 MLOAD PUSH2 0x1F19 JUMP JUMPDEST SWAP3 DUP5 ADD SWAP3 PUSH1 0xA0 SWAP3 SWAP1 SWAP3 ADD SWAP2 PUSH1 0x1 ADD PUSH2 0x1FAA JUMP JUMPDEST POP SWAP1 SWAP8 SWAP7 POP POP POP POP POP POP POP JUMP JUMPDEST PUSH1 0x20 DUP1 DUP3 MSTORE DUP3 MLOAD DUP3 DUP3 ADD DUP2 SWAP1 MSTORE PUSH0 SWAP2 SWAP1 DUP5 DUP3 ADD SWAP1 PUSH1 0x40 DUP6 ADD SWAP1 DUP5 JUMPDEST DUP2 DUP2 LT ISZERO PUSH2 0x2014 JUMPI DUP4 MLOAD DUP4 MSTORE SWAP3 DUP5 ADD SWAP3 SWAP2 DUP5 ADD SWAP2 PUSH1 0x1 ADD PUSH2 0x1FF8 JUMP JUMPDEST POP SWAP1 SWAP7 SWAP6 POP POP POP POP POP POP JUMP JUMPDEST PUSH0 DUP1 PUSH1 0x40 DUP4 DUP6 SUB SLT ISZERO PUSH2 0x2031 JUMPI PUSH0 DUP1 REVERT JUMPDEST POP POP DUP1 CALLDATALOAD SWAP3 PUSH1 0x20 SWAP1 SWAP2 ADD CALLDATALOAD SWAP2 POP JUMP JUMPDEST DUP1 CALLDATALOAD PUSH1 0x1 PUSH1 0x1 PUSH1 0xA0 SHL SUB DUP2 AND DUP2 EQ PUSH2 0x2056 JUMPI PUSH0 DUP1 REVERT JUMPDEST SWAP2 SWAP1 POP JUMP JUMPDEST PUSH0 DUP1 PUSH1 0x40 DUP4 DUP6 SUB SLT ISZERO PUSH2 0x206C JUMPI PUSH0 DUP1 REVERT JUMPDEST DUP3 CALLDATALOAD SWAP2 POP PUSH2 0x207C PUSH1 0x20 DUP5 ADD PUSH2 0x2040 JUMP JUMPDEST SWAP1 POP SWAP3 POP SWAP3 SWAP1 POP JUMP JUMPDEST PUSH1 0xA0 DUP2 ADD PUSH2 0x1377 DUP3 DUP5 PUSH2 0x1F19 JUMP JUMPDEST PUSH0 DUP1 PUSH0 PUSH1 0x60 DUP5 DUP7 SUB SLT ISZERO PUSH2 0x20A5 JUMPI PUSH0 DUP1 REVERT JUMPDEST POP POP DUP2 CALLDATALOAD SWAP4 PUSH1 0x20 DUP4 ADD CALLDATALOAD SWAP4 POP PUSH1 0x40 SWAP1 SWAP3 ADD CALLDATALOAD SWAP2 SWAP1 POP JUMP JUMPDEST PUSH1 0x1 PUSH1 0x1 PUSH1 0xA0 SHL SUB DUP13 DUP2 AND DUP3 MSTORE DUP12 AND PUSH1 0x20 DUP3 ADD MSTORE PUSH1 0x40 DUP2 ADD DUP11 SWAP1 MSTORE PUSH1 0x60 DUP2 ADD DUP10 SWAP1 MSTORE PUSH2 0x160 DUP2 ADD PUSH2 0x20F0 PUSH1 0x80 DUP4 ADD DUP11 PUSH2 0x1E5D JUMP JUMPDEST DUP8 PUSH1 0xA0 DUP4 ADD MSTORE DUP7 PUSH1 0xC0 DUP4 ADD MSTORE DUP6 PUSH1 0xE0 DUP4 ADD MSTORE DUP5 PUSH2 0x100 DUP4 ADD MSTORE DUP4 PUSH2 0x120 DUP4 ADD MSTORE DUP3 PUSH2 0x140 DUP4 ADD MSTORE SWAP13 SWAP12 POP POP POP POP POP POP POP POP POP POP POP POP JUMP JUMPDEST PUSH0 PUSH1 0x20 DUP3 DUP5 SUB SLT ISZERO PUSH2 0x2137 JUMPI PUSH0 DUP1 REVERT JUMPDEST PUSH2 0x2140 DUP3 PUSH2 0x2040 JUMP JUMPDEST SWAP4 SWAP3 POP POP POP JUMP JUMPDEST PUSH4 0x4E487B71 PUSH1 0xE0 SHL PUSH0 MSTORE PUSH1 0x11 PUSH1 0x4 MSTORE PUSH1 0x24 PUSH0 REVERT JUMPDEST DUP1 DUP3 MUL DUP2 ISZERO DUP3 DUP3 DIV DUP5 EQ OR PUSH2 0x1377 JUMPI PUSH2 0x1377 PUSH2 0x2147 JUMP JUMPDEST PUSH0 DUP3 PUSH2 0x218C JUMPI PUSH4 0x4E487B71 PUSH1 0xE0 SHL PUSH0 MSTORE PUSH1 0x12 PUSH1 0x4 MSTORE PUSH1 0x24 PUSH0 REVERT JUMPDEST POP DIV SWAP1 JUMP JUMPDEST DUP2 DUP2 SUB DUP2 DUP2 GT ISZERO PUSH2 0x1377 JUMPI PUSH2 0x1377 PUSH2 0x2147 JUMP JUMPDEST DUP1 DUP3 ADD DUP1 DUP3 GT ISZERO PUSH2 0x1377 JUMPI PUSH2 0x1377 PUSH2 0x2147 JUMP JUMPDEST PUSH0 PUSH1 0x1 DUP3 ADD PUSH2 0x21C8 JUMPI PUSH2 0x21C8 PUSH2 0x2147 JUMP JUMPDEST POP PUSH1 0x1 ADD SWAP1 JUMP JUMPDEST PUSH4 0x4E487B71 PUSH1 0xE0 SHL PUSH0 MSTORE PUSH1 0x41 PUSH1 0x4 MSTORE PUSH1 0x24 PUSH0 REVERT JUMPDEST PUSH4 0x4E487B71 PUSH1 0xE0 SHL PUSH0 MSTORE PUSH1 0x32 PUSH1 0x4 MSTORE PUSH1 0x24 PUSH0 REVERT INVALID LOG2 PUSH5 0x6970667358 0x22 SLT KECCAK256 0xAA SHR 0xF6 0xD3 0xBB PUSH2 0x1A04 SWAP3 DUP5 0x2F 0xD4 SGT 0xD4 0xCF LOG2 SWAP9 0xE3 LOG1 0xA8 0xB1 PUSH23 0x6CE919EDA7F5B5BE08EE64736F6C634300081400330000 "},"methodIdentifiers":{"BPS_DENOMINATOR()":"e1a45218","MAX_FEE_BPS()":"d55be8c6","acceptBid(bytes32,address)":"888a7934","approveTask(bytes32)":"0ccce304","autoApprove(bytes32)":"f08f6ea0","autoApproveWindow()":"9bbeabda","bidOnTask(bytes32,uint256,uint256)":"d4fa5d61","cancelTask(bytes32)":"ee8ca3b5","claimTask(bytes32)":"70f8c6f9","claimTimeout()":"0e1da6c3","createSubtask(bytes32,bytes32,uint256)":"f2444b0d","createTask(bytes32,uint256)":"6fbb5f62","disputeTask(bytes32)":"bbacc591","disputeWindow()":"117f5f92","feeRecipient()":"46904840","getBid(bytes32,address)":"d0ba5264","getStats()":"c59d4847","getSubtasks(bytes32)":"6c51c0f1","getTask(bytes32)":"15a29035","getTaskBids(bytes32)":"64a0c3f5","owner()":"8da5cb5b","platformFeeBps()":"22dcd13e","refund(bytes32)":"7249fbb6","renounceOwnership()":"715018a6","resolveDispute(bytes32)":"c8218e3e","setAutoApproveWindow(uint256)":"9eac6099","setClaimTimeout(uint256)":"e7a5b4ea","setDisputeWindow(uint256)":"332226d0","setFee(uint256)":"69fe0e2d","setFeeRecipient(address)":"e74b981b","submitDeliverable(bytes32,bytes32)":"d46600aa","subtasks(bytes32,uint256)":"be909bb9","taskBidders(bytes32,uint256)":"9eabd40c","taskBids(bytes32,address)":"bb5b93b5","tasks(bytes32)":"e579f500","totalFeesCollected()":"60c6d8ae","totalTasksCompleted()":"108ab45e","totalTasksCreated()":"fd4df69b","totalVolumeUsdc()":"24dd2893","transferOwnership(address)":"f2fde38b","usdc()":"3e413bee"}}}}}